{
  "_format": "hh-sol-artifact-1",
  "contractName": "SocialFeed",
  "sourceName": "contracts/SocialFeed.sol",
  "abi": [
    {
      "inputs": [],
      "stateMutability": "nonpayable",
      "type": "constructor"
    },
    {
      "inputs": [
        {
          "internalType": "address",
          "name": "owner",
          "type": "address"
        }
      ],
      "name": "OwnableInvalidOwner",
      "type": "error"
    },
    {
      "inputs": [
        {
          "internalType": "address",
          "name": "account",
          "type": "address"
        }
      ],
      "name": "OwnableUnauthorizedAccount",
      "type": "error"
    },
    {
      "inputs": [],
      "name": "ReentrancyGuardReentrantCall",
      "type": "error"
    },
    {
      "anonymous": false,
      "inputs": [
        {
          "indexed": true,
          "internalType": "address",
          "name": "sender",
          "type": "address"
        },
        {
          "indexed": false,
          "internalType": "string",
          "name": "ipfsHash",
          "type": "string"
        },
        {
          "indexed": false,
          "internalType": "uint256",
          "name": "timestamp",
          "type": "uint256"
        }
      ],
      "name": "ChatMessageSent",
      "type": "event"
    },
    {
      "anonymous": false,
      "inputs": [
        {
          "indexed": true,
          "internalType": "uint256",
          "name": "postId",
          "type": "uint256"
        },
        {
          "indexed": true,
          "internalType": "address",
          "name": "commenter",
          "type": "address"
        },
        {
          "indexed": false,
          "internalType": "string",
          "name": "ipfsHash",
          "type": "string"
        },
        {
          "indexed": false,
          "internalType": "uint256",
          "name": "timestamp",
          "type": "uint256"
        }
      ],
      "name": "CommentAdded",
      "type": "event"
    },
    {
      "anonymous": false,
      "inputs": [
        {
          "indexed": true,
          "internalType": "uint256",
          "name": "postId",
          "type": "uint256"
        },
        {
          "indexed": true,
          "internalType": "uint256",
          "name": "commentId",
          "type": "uint256"
        },
        {
          "indexed": true,
          "internalType": "address",
          "name": "commenter",
          "type": "address"
        }
      ],
      "name": "CommentDeleted",
      "type": "event"
    },
    {
      "anonymous": false,
      "inputs": [
        {
          "indexed": true,
          "internalType": "uint256",
          "name": "postId",
          "type": "uint256"
        },
        {
          "indexed": true,
          "internalType": "uint256",
          "name": "commentId",
          "type": "uint256"
        },
        {
          "indexed": true,
          "internalType": "address",
          "name": "commenter",
          "type": "address"
        },
        {
          "indexed": false,
          "internalType": "string",
          "name": "newIpfsHash",
          "type": "string"
        }
      ],
      "name": "CommentEdited",
      "type": "event"
    },
    {
      "anonymous": false,
      "inputs": [
        {
          "indexed": true,
          "internalType": "uint256",
          "name": "commentId",
          "type": "uint256"
        },
        {
          "indexed": true,
          "internalType": "address",
          "name": "liker",
          "type": "address"
        }
      ],
      "name": "CommentLiked",
      "type": "event"
    },
    {
      "anonymous": false,
      "inputs": [
        {
          "indexed": true,
          "internalType": "uint256",
          "name": "commentId",
          "type": "uint256"
        },
        {
          "indexed": true,
          "internalType": "address",
          "name": "unliker",
          "type": "address"
        }
      ],
      "name": "CommentUnliked",
      "type": "event"
    },
    {
      "anonymous": false,
      "inputs": [
        {
          "indexed": true,
          "internalType": "address",
          "name": "recipient",
          "type": "address"
        },
        {
          "indexed": true,
          "internalType": "address",
          "name": "sender",
          "type": "address"
        },
        {
          "indexed": false,
          "internalType": "string",
          "name": "notificationType",
          "type": "string"
        },
        {
          "indexed": false,
          "internalType": "uint256",
          "name": "relatedId",
          "type": "uint256"
        },
        {
          "indexed": false,
          "internalType": "uint256",
          "name": "timestamp",
          "type": "uint256"
        }
      ],
      "name": "NotificationCreated",
      "type": "event"
    },
    {
      "anonymous": false,
      "inputs": [
        {
          "indexed": true,
          "internalType": "address",
          "name": "user",
          "type": "address"
        },
        {
          "indexed": false,
          "internalType": "uint256",
          "name": "notificationId",
          "type": "uint256"
        }
      ],
      "name": "NotificationRead",
      "type": "event"
    },
    {
      "anonymous": false,
      "inputs": [
        {
          "indexed": true,
          "internalType": "address",
          "name": "previousOwner",
          "type": "address"
        },
        {
          "indexed": true,
          "internalType": "address",
          "name": "newOwner",
          "type": "address"
        }
      ],
      "name": "OwnershipTransferred",
      "type": "event"
    },
    {
      "anonymous": false,
      "inputs": [
        {
          "indexed": true,
          "internalType": "uint256",
          "name": "postId",
          "type": "uint256"
        },
        {
          "indexed": true,
          "internalType": "address",
          "name": "author",
          "type": "address"
        },
        {
          "indexed": false,
          "internalType": "string",
          "name": "ipfsHash",
          "type": "string"
        },
        {
          "indexed": false,
          "internalType": "uint256",
          "name": "timestamp",
          "type": "uint256"
        }
      ],
      "name": "PostCreated",
      "type": "event"
    },
    {
      "anonymous": false,
      "inputs": [
        {
          "indexed": true,
          "internalType": "uint256",
          "name": "postId",
          "type": "uint256"
        },
        {
          "indexed": true,
          "internalType": "address",
          "name": "author",
          "type": "address"
        }
      ],
      "name": "PostDeleted",
      "type": "event"
    },
    {
      "anonymous": false,
      "inputs": [
        {
          "indexed": true,
          "internalType": "uint256",
          "name": "postId",
          "type": "uint256"
        },
        {
          "indexed": true,
          "internalType": "address",
          "name": "liker",
          "type": "address"
        },
        {
          "indexed": false,
          "internalType": "uint256",
          "name": "newLikeCount",
          "type": "uint256"
        }
      ],
      "name": "PostLiked",
      "type": "event"
    },
    {
      "anonymous": false,
      "inputs": [
        {
          "indexed": true,
          "internalType": "uint256",
          "name": "postId",
          "type": "uint256"
        },
        {
          "indexed": true,
          "internalType": "address",
          "name": "unliker",
          "type": "address"
        },
        {
          "indexed": false,
          "internalType": "uint256",
          "name": "newLikeCount",
          "type": "uint256"
        }
      ],
      "name": "PostUnliked",
      "type": "event"
    },
    {
      "anonymous": false,
      "inputs": [
        {
          "indexed": true,
          "internalType": "address",
          "name": "user",
          "type": "address"
        },
        {
          "indexed": false,
          "internalType": "string",
          "name": "displayName",
          "type": "string"
        }
      ],
      "name": "ProfileDeleted",
      "type": "event"
    },
    {
      "anonymous": false,
      "inputs": [
        {
          "indexed": true,
          "internalType": "address",
          "name": "user",
          "type": "address"
        },
        {
          "indexed": false,
          "internalType": "string",
          "name": "displayName",
          "type": "string"
        },
        {
          "indexed": false,
          "internalType": "string",
          "name": "profileIpfsHash",
          "type": "string"
        }
      ],
      "name": "ProfileUpdated",
      "type": "event"
    },
    {
      "anonymous": false,
      "inputs": [
        {
          "indexed": true,
          "internalType": "address",
          "name": "follower",
          "type": "address"
        },
        {
          "indexed": true,
          "internalType": "address",
          "name": "following",
          "type": "address"
        }
      ],
      "name": "UserFollowed",
      "type": "event"
    },
    {
      "anonymous": false,
      "inputs": [
        {
          "indexed": true,
          "internalType": "address",
          "name": "user",
          "type": "address"
        },
        {
          "indexed": false,
          "internalType": "string",
          "name": "displayName",
          "type": "string"
        },
        {
          "indexed": false,
          "internalType": "uint256",
          "name": "timestamp",
          "type": "uint256"
        }
      ],
      "name": "UserOnline",
      "type": "event"
    },
    {
      "anonymous": false,
      "inputs": [
        {
          "indexed": true,
          "internalType": "address",
          "name": "follower",
          "type": "address"
        },
        {
          "indexed": true,
          "internalType": "address",
          "name": "unfollowing",
          "type": "address"
        }
      ],
      "name": "UserUnfollowed",
      "type": "event"
    },
    {
      "inputs": [],
      "name": "MAX_POST_LENGTH",
      "outputs": [
        {
          "internalType": "uint256",
          "name": "",
          "type": "uint256"
        }
      ],
      "stateMutability": "view",
      "type": "function"
    },
    {
      "inputs": [],
      "name": "ONLINE_THRESHOLD",
      "outputs": [
        {
          "internalType": "uint256",
          "name": "",
          "type": "uint256"
        }
      ],
      "stateMutability": "view",
      "type": "function"
    },
    {
      "inputs": [
        {
          "internalType": "uint256",
          "name": "_postId",
          "type": "uint256"
        },
        {
          "internalType": "string",
          "name": "_ipfsHash",
          "type": "string"
        }
      ],
      "name": "addComment",
      "outputs": [],
      "stateMutability": "nonpayable",
      "type": "function"
    },
    {
      "inputs": [
        {
          "internalType": "uint256",
          "name": "_postId",
          "type": "uint256"
        },
        {
          "internalType": "uint256",
          "name": "_replyToCommentId",
          "type": "uint256"
        },
        {
          "internalType": "string",
          "name": "_ipfsHash",
          "type": "string"
        }
      ],
      "name": "addCommentReply",
      "outputs": [],
      "stateMutability": "nonpayable",
      "type": "function"
    },
    {
      "inputs": [
        {
          "internalType": "address",
          "name": "_follower",
          "type": "address"
        },
        {
          "internalType": "address",
          "name": "_following",
          "type": "address"
        }
      ],
      "name": "checkIsFollowing",
      "outputs": [
        {
          "internalType": "bool",
          "name": "",
          "type": "bool"
        }
      ],
      "stateMutability": "view",
      "type": "function"
    },
    {
      "inputs": [
        {
          "internalType": "uint256",
          "name": "_keepCount",
          "type": "uint256"
        }
      ],
      "name": "clearOldNotifications",
      "outputs": [],
      "stateMutability": "nonpayable",
      "type": "function"
    },
    {
      "inputs": [
        {
          "internalType": "uint256",
          "name": "",
          "type": "uint256"
        },
        {
          "internalType": "address",
          "name": "",
          "type": "address"
        }
      ],
      "name": "commentLikes",
      "outputs": [
        {
          "internalType": "bool",
          "name": "",
          "type": "bool"
        }
      ],
      "stateMutability": "view",
      "type": "function"
    },
    {
      "inputs": [
        {
          "internalType": "string",
          "name": "_ipfsHash",
          "type": "string"
        }
      ],
      "name": "createPost",
      "outputs": [],
      "stateMutability": "nonpayable",
      "type": "function"
    },
    {
      "inputs": [
        {
          "internalType": "uint256",
          "name": "_postId",
          "type": "uint256"
        },
        {
          "internalType": "uint256",
          "name": "_commentId",
          "type": "uint256"
        }
      ],
      "name": "deleteComment",
      "outputs": [],
      "stateMutability": "nonpayable",
      "type": "function"
    },
    {
      "inputs": [
        {
          "internalType": "uint256",
          "name": "_postId",
          "type": "uint256"
        }
      ],
      "name": "deletePost",
      "outputs": [],
      "stateMutability": "nonpayable",
      "type": "function"
    },
    {
      "inputs": [],
      "name": "deleteProfile",
      "outputs": [],
      "stateMutability": "nonpayable",
      "type": "function"
    },
    {
      "inputs": [
        {
          "internalType": "uint256",
          "name": "_postId",
          "type": "uint256"
        },
        {
          "internalType": "uint256",
          "name": "_commentId",
          "type": "uint256"
        },
        {
          "internalType": "string",
          "name": "_newIpfsHash",
          "type": "string"
        }
      ],
      "name": "editComment",
      "outputs": [],
      "stateMutability": "nonpayable",
      "type": "function"
    },
    {
      "inputs": [
        {
          "internalType": "address",
          "name": "_userToFollow",
          "type": "address"
        }
      ],
      "name": "followUser",
      "outputs": [],
      "stateMutability": "nonpayable",
      "type": "function"
    },
    {
      "inputs": [],
      "name": "getOnlineUsers",
      "outputs": [
        {
          "internalType": "address[]",
          "name": "",
          "type": "address[]"
        },
        {
          "internalType": "string[]",
          "name": "",
          "type": "string[]"
        },
        {
          "internalType": "uint256[]",
          "name": "",
          "type": "uint256[]"
        }
      ],
      "stateMutability": "view",
      "type": "function"
    },
    {
      "inputs": [
        {
          "internalType": "uint256",
          "name": "_postId",
          "type": "uint256"
        }
      ],
      "name": "getPostComments",
      "outputs": [
        {
          "components": [
            {
              "internalType": "uint256",
              "name": "id",
              "type": "uint256"
            },
            {
              "internalType": "uint256",
              "name": "postId",
              "type": "uint256"
            },
            {
              "internalType": "address",
              "name": "commenter",
              "type": "address"
            },
            {
              "internalType": "string",
              "name": "ipfsHash",
              "type": "string"
            },
            {
              "internalType": "uint256",
              "name": "timestamp",
              "type": "uint256"
            },
            {
              "internalType": "uint256",
              "name": "likes",
              "type": "uint256"
            },
            {
              "internalType": "uint256",
              "name": "replyTo",
              "type": "uint256"
            },
            {
              "internalType": "bool",
              "name": "isActive",
              "type": "bool"
            }
          ],
          "internalType": "struct SocialFeed.Comment[]",
          "name": "",
          "type": "tuple[]"
        }
      ],
      "stateMutability": "view",
      "type": "function"
    },
    {
      "inputs": [
        {
          "internalType": "uint256",
          "name": "_offset",
          "type": "uint256"
        },
        {
          "internalType": "uint256",
          "name": "_limit",
          "type": "uint256"
        }
      ],
      "name": "getRecentPosts",
      "outputs": [
        {
          "components": [
            {
              "internalType": "uint256",
              "name": "id",
              "type": "uint256"
            },
            {
              "internalType": "address",
              "name": "author",
              "type": "address"
            },
            {
              "internalType": "string",
              "name": "ipfsHash",
              "type": "string"
            },
            {
              "internalType": "uint256",
              "name": "timestamp",
              "type": "uint256"
            },
            {
              "internalType": "uint256",
              "name": "likes",
              "type": "uint256"
            },
            {
              "internalType": "bool",
              "name": "isActive",
              "type": "bool"
            }
          ],
          "internalType": "struct SocialFeed.Post[]",
          "name": "",
          "type": "tuple[]"
        }
      ],
      "stateMutability": "view",
      "type": "function"
    },
    {
      "inputs": [],
      "name": "getTotalPosts",
      "outputs": [
        {
          "internalType": "uint256",
          "name": "",
          "type": "uint256"
        }
      ],
      "stateMutability": "view",
      "type": "function"
    },
    {
      "inputs": [
        {
          "internalType": "address",
          "name": "_user",
          "type": "address"
        }
      ],
      "name": "getUnreadNotificationCount",
      "outputs": [
        {
          "internalType": "uint256",
          "name": "",
          "type": "uint256"
        }
      ],
      "stateMutability": "view",
      "type": "function"
    },
    {
      "inputs": [
        {
          "internalType": "address",
          "name": "_user",
          "type": "address"
        }
      ],
      "name": "getUserNotifications",
      "outputs": [
        {
          "components": [
            {
              "internalType": "address",
              "name": "sender",
              "type": "address"
            },
            {
              "internalType": "uint96",
              "name": "timestamp",
              "type": "uint96"
            },
            {
              "internalType": "uint8",
              "name": "notificationType",
              "type": "uint8"
            },
            {
              "internalType": "bool",
              "name": "read",
              "type": "bool"
            },
            {
              "internalType": "uint32",
              "name": "relatedId",
              "type": "uint32"
            }
          ],
          "internalType": "struct SocialFeed.Notification[]",
          "name": "",
          "type": "tuple[]"
        }
      ],
      "stateMutability": "view",
      "type": "function"
    },
    {
      "inputs": [
        {
          "internalType": "address",
          "name": "_user",
          "type": "address"
        }
      ],
      "name": "getUserPosts",
      "outputs": [
        {
          "components": [
            {
              "internalType": "uint256",
              "name": "id",
              "type": "uint256"
            },
            {
              "internalType": "address",
              "name": "author",
              "type": "address"
            },
            {
              "internalType": "string",
              "name": "ipfsHash",
              "type": "string"
            },
            {
              "internalType": "uint256",
              "name": "timestamp",
              "type": "uint256"
            },
            {
              "internalType": "uint256",
              "name": "likes",
              "type": "uint256"
            },
            {
              "internalType": "bool",
              "name": "isActive",
              "type": "bool"
            }
          ],
          "internalType": "struct SocialFeed.Post[]",
          "name": "",
          "type": "tuple[]"
        }
      ],
      "stateMutability": "view",
      "type": "function"
    },
    {
      "inputs": [
        {
          "internalType": "address",
          "name": "_user",
          "type": "address"
        }
      ],
      "name": "getUserProfile",
      "outputs": [
        {
          "components": [
            {
              "internalType": "string",
              "name": "displayName",
              "type": "string"
            },
            {
              "internalType": "string",
              "name": "profileIpfsHash",
              "type": "string"
            },
            {
              "internalType": "uint256",
              "name": "postCount",
              "type": "uint256"
            },
            {
              "internalType": "uint256",
              "name": "followerCount",
              "type": "uint256"
            },
            {
              "internalType": "uint256",
              "name": "followingCount",
              "type": "uint256"
            },
            {
              "internalType": "uint256",
              "name": "lastSeen",
              "type": "uint256"
            },
            {
              "internalType": "bool",
              "name": "exists",
              "type": "bool"
            }
          ],
          "internalType": "struct SocialFeed.UserProfile",
          "name": "",
          "type": "tuple"
        }
      ],
      "stateMutability": "view",
      "type": "function"
    },
    {
      "inputs": [
        {
          "internalType": "uint256",
          "name": "_postId",
          "type": "uint256"
        },
        {
          "internalType": "address",
          "name": "_user",
          "type": "address"
        }
      ],
      "name": "hasLiked",
      "outputs": [
        {
          "internalType": "bool",
          "name": "",
          "type": "bool"
        }
      ],
      "stateMutability": "view",
      "type": "function"
    },
    {
      "inputs": [
        {
          "internalType": "uint256",
          "name": "_commentId",
          "type": "uint256"
        },
        {
          "internalType": "address",
          "name": "_user",
          "type": "address"
        }
      ],
      "name": "hasLikedComment",
      "outputs": [
        {
          "internalType": "bool",
          "name": "",
          "type": "bool"
        }
      ],
      "stateMutability": "view",
      "type": "function"
    },
    {
      "inputs": [
        {
          "internalType": "address",
          "name": "",
          "type": "address"
        },
        {
          "internalType": "uint256",
          "name": "",
          "type": "uint256"
        }
      ],
      "name": "hasLikedPost",
      "outputs": [
        {
          "internalType": "bool",
          "name": "",
          "type": "bool"
        }
      ],
      "stateMutability": "view",
      "type": "function"
    },
    {
      "inputs": [
        {
          "internalType": "address",
          "name": "",
          "type": "address"
        },
        {
          "internalType": "address",
          "name": "",
          "type": "address"
        }
      ],
      "name": "isFollowing",
      "outputs": [
        {
          "internalType": "bool",
          "name": "",
          "type": "bool"
        }
      ],
      "stateMutability": "view",
      "type": "function"
    },
    {
      "inputs": [
        {
          "internalType": "address",
          "name": "_user",
          "type": "address"
        }
      ],
      "name": "isUserOnline",
      "outputs": [
        {
          "internalType": "bool",
          "name": "",
          "type": "bool"
        }
      ],
      "stateMutability": "view",
      "type": "function"
    },
    {
      "inputs": [
        {
          "internalType": "string",
          "name": "_username",
          "type": "string"
        }
      ],
      "name": "isUsernameAvailable",
      "outputs": [
        {
          "internalType": "bool",
          "name": "",
          "type": "bool"
        }
      ],
      "stateMutability": "view",
      "type": "function"
    },
    {
      "inputs": [
        {
          "internalType": "uint256",
          "name": "_postId",
          "type": "uint256"
        },
        {
          "internalType": "uint256",
          "name": "_commentId",
          "type": "uint256"
        }
      ],
      "name": "likeComment",
      "outputs": [],
      "stateMutability": "nonpayable",
      "type": "function"
    },
    {
      "inputs": [
        {
          "internalType": "uint256",
          "name": "_postId",
          "type": "uint256"
        }
      ],
      "name": "likePost",
      "outputs": [],
      "stateMutability": "nonpayable",
      "type": "function"
    },
    {
      "inputs": [],
      "name": "markAllNotificationsAsRead",
      "outputs": [],
      "stateMutability": "nonpayable",
      "type": "function"
    },
    {
      "inputs": [
        {
          "internalType": "uint256",
          "name": "_notificationIndex",
          "type": "uint256"
        }
      ],
      "name": "markNotificationAsRead",
      "outputs": [],
      "stateMutability": "nonpayable",
      "type": "function"
    },
    {
      "inputs": [],
      "name": "owner",
      "outputs": [
        {
          "internalType": "address",
          "name": "",
          "type": "address"
        }
      ],
      "stateMutability": "view",
      "type": "function"
    },
    {
      "inputs": [
        {
          "internalType": "uint256",
          "name": "",
          "type": "uint256"
        },
        {
          "internalType": "uint256",
          "name": "",
          "type": "uint256"
        }
      ],
      "name": "postComments",
      "outputs": [
        {
          "internalType": "uint256",
          "name": "id",
          "type": "uint256"
        },
        {
          "internalType": "uint256",
          "name": "postId",
          "type": "uint256"
        },
        {
          "internalType": "address",
          "name": "commenter",
          "type": "address"
        },
        {
          "internalType": "string",
          "name": "ipfsHash",
          "type": "string"
        },
        {
          "internalType": "uint256",
          "name": "timestamp",
          "type": "uint256"
        },
        {
          "internalType": "uint256",
          "name": "likes",
          "type": "uint256"
        },
        {
          "internalType": "uint256",
          "name": "replyTo",
          "type": "uint256"
        },
        {
          "internalType": "bool",
          "name": "isActive",
          "type": "bool"
        }
      ],
      "stateMutability": "view",
      "type": "function"
    },
    {
      "inputs": [
        {
          "internalType": "uint256",
          "name": "",
          "type": "uint256"
        },
        {
          "internalType": "address",
          "name": "",
          "type": "address"
        }
      ],
      "name": "postLikes",
      "outputs": [
        {
          "internalType": "bool",
          "name": "",
          "type": "bool"
        }
      ],
      "stateMutability": "view",
      "type": "function"
    },
    {
      "inputs": [
        {
          "internalType": "uint256",
          "name": "",
          "type": "uint256"
        }
      ],
      "name": "posts",
      "outputs": [
        {
          "internalType": "uint256",
          "name": "id",
          "type": "uint256"
        },
        {
          "internalType": "address",
          "name": "author",
          "type": "address"
        },
        {
          "internalType": "string",
          "name": "ipfsHash",
          "type": "string"
        },
        {
          "internalType": "uint256",
          "name": "timestamp",
          "type": "uint256"
        },
        {
          "internalType": "uint256",
          "name": "likes",
          "type": "uint256"
        },
        {
          "internalType": "bool",
          "name": "isActive",
          "type": "bool"
        }
      ],
      "stateMutability": "view",
      "type": "function"
    },
    {
      "inputs": [],
      "name": "renounceOwnership",
      "outputs": [],
      "stateMutability": "nonpayable",
      "type": "function"
    },
    {
      "inputs": [
        {
          "internalType": "string",
          "name": "_ipfsHash",
          "type": "string"
        }
      ],
      "name": "sendChatMessage",
      "outputs": [],
      "stateMutability": "nonpayable",
      "type": "function"
    },
    {
      "inputs": [
        {
          "internalType": "address",
          "name": "newOwner",
          "type": "address"
        }
      ],
      "name": "transferOwnership",
      "outputs": [],
      "stateMutability": "nonpayable",
      "type": "function"
    },
    {
      "inputs": [
        {
          "internalType": "address",
          "name": "_userToUnfollow",
          "type": "address"
        }
      ],
      "name": "unfollowUser",
      "outputs": [],
      "stateMutability": "nonpayable",
      "type": "function"
    },
    {
      "inputs": [
        {
          "internalType": "uint256",
          "name": "_commentId",
          "type": "uint256"
        }
      ],
      "name": "unlikeComment",
      "outputs": [],
      "stateMutability": "nonpayable",
      "type": "function"
    },
    {
      "inputs": [
        {
          "internalType": "uint256",
          "name": "_postId",
          "type": "uint256"
        }
      ],
      "name": "unlikePost",
      "outputs": [],
      "stateMutability": "nonpayable",
      "type": "function"
    },
    {
      "inputs": [],
      "name": "updateOnlineStatus",
      "outputs": [],
      "stateMutability": "nonpayable",
      "type": "function"
    },
    {
      "inputs": [
        {
          "internalType": "string",
          "name": "_displayName",
          "type": "string"
        },
        {
          "internalType": "string",
          "name": "_profileIpfsHash",
          "type": "string"
        }
      ],
      "name": "updateProfile",
      "outputs": [],
      "stateMutability": "nonpayable",
      "type": "function"
    },
    {
      "inputs": [
        {
          "internalType": "address",
          "name": "",
          "type": "address"
        },
        {
          "internalType": "address",
          "name": "",
          "type": "address"
        }
      ],
      "name": "userFollows",
      "outputs": [
        {
          "internalType": "bool",
          "name": "",
          "type": "bool"
        }
      ],
      "stateMutability": "view",
      "type": "function"
    },
    {
      "inputs": [
        {
          "internalType": "address",
          "name": "",
          "type": "address"
        }
      ],
      "name": "userProfiles",
      "outputs": [
        {
          "internalType": "string",
          "name": "displayName",
          "type": "string"
        },
        {
          "internalType": "string",
          "name": "profileIpfsHash",
          "type": "string"
        },
        {
          "internalType": "uint256",
          "name": "postCount",
          "type": "uint256"
        },
        {
          "internalType": "uint256",
          "name": "followerCount",
          "type": "uint256"
        },
        {
          "internalType": "uint256",
          "name": "followingCount",
          "type": "uint256"
        },
        {
          "internalType": "uint256",
          "name": "lastSeen",
          "type": "uint256"
        },
        {
          "internalType": "bool",
          "name": "exists",
          "type": "bool"
        }
      ],
      "stateMutability": "view",
      "type": "function"
    },
    {
      "inputs": [
        {
          "internalType": "string",
          "name": "",
          "type": "string"
        }
      ],
      "name": "usernameTaken",
      "outputs": [
        {
          "internalType": "bool",
          "name": "",
          "type": "bool"
        }
      ],
      "stateMutability": "view",
      "type": "function"
    },
    {
      "inputs": [
        {
          "internalType": "string",
          "name": "",
          "type": "string"
        }
      ],
      "name": "usernameToAddress",
      "outputs": [
        {
          "internalType": "address",
          "name": "",
          "type": "address"
        }
      ],
      "stateMutability": "view",
      "type": "function"
    }
  ],
  "bytecode": "0x60806040523480156200001157600080fd5b5033806200003957604051631e4fbdf760e01b81526000600482015260240160405180910390fd5b62000044816200004f565b50600180556200009f565b600080546001600160a01b038381166001600160a01b0319831681178455604051919092169283917f8be0079c531659141344cd1fd0a4f28419497f9722a3daafe3b4186f6b6457e09190a35050565b61458380620000af6000396000f3fe608060405234801561001057600080fd5b50600436106102955760003560e01c806399f9b88811610167578063c9d3cc6a116100ce578063f26e818a11610087578063f26e818a146106d4578063f2fde38b14610702578063f69c6dec14610715578063f825f14314610728578063fa188de91461075c578063fa5611521461076f57600080fd5b8063c9d3cc6a1461061f578063ca1f0cad14610632578063ccaad2de14610660578063d524ff7614610673578063e9a9f05114610693578063f107cfcb146106c157600080fd5b8063a7e33a0c11610120578063a7e33a0c146105ad578063aa7e5683146105c0578063c4c600d9146105d3578063c7303c61146105e6578063c7f87e4f146105f9578063c99388fc1461060c57600080fd5b806399f9b888146105465780639a2194a9146105595780639eefe6381461056c5780639ef39d7814610574578063a0e9182114610587578063a70806f71461059a57600080fd5b80635432a7731161020b578063746f08fd116101c4578063746f08fd146104645780638d97bc7f1461046c5780638da5cb5b1461049a5780638fb7092c146104bf578063987ee156146104f857806399ec3a421461051857600080fd5b80635432a7731461041057806357f31358146104195780635fe226b4146104395780636d4540eb14610441578063715018a614610449578063725009d31461045157600080fd5b8063332d56d71161025d578063332d56d71461034057806334d1bf291461036657806338904ec9146103795780633ebe97c9146103b25780634025681a146103c95780635193c94c146103e957600080fd5b8063040af8881461029a578063094cd5ee146102b55780630b1e7f83146102ca5780631c906291146102ef57806331a4bcb51461032d575b600080fd5b6102a2607881565b6040519081526020015b60405180910390f35b6102c86102c3366004613a56565b610782565b005b6102dd6102d8366004613a56565b610864565b6040516102ac96959493929190613abf565b61031d6102fd366004613b25565b600e60209081526000928352604080842090915290825290205460ff1681565b60405190151581526020016102ac565b6102c861033b366004613b51565b610930565b61035361034e366004613b73565b610b26565b6040516102ac9796959493929190613b95565b61031d610374366004613be7565b610c74565b61031d610387366004613b25565b6000918252600e602090815260408084206001600160a01b0393909316845291905290205460ff1690565b6103ba610ca4565b6040516102ac93929190613c4c565b6103dc6103d7366004613b51565b6110d9565b6040516102ac9190613d00565b6103fc6103f7366004613b51565b611363565b6040516102ac989796959493929190613dac565b6102a261011881565b61042c610427366004613b73565b61145a565b6040516102ac9190613e08565b600b546102a2565b6102c8611523565b6102c8611726565b6102c861045f366004613a56565b61173a565b6102c861189f565b61031d61047a366004613be7565b600860209081526000928352604080842090915290825290205460ff1681565b6000546001600160a01b03165b6040516001600160a01b0390911681526020016102ac565b61031d6104cd366004613b25565b60009182526006602090815260408084206001600160a01b0393909316845291905290205460ff1690565b61050b610506366004613b73565b61190c565b6040516102ac9190613e93565b61031d610526366004613be7565b600760209081526000928352604080842090915290825290205460ff1681565b6102c8610554366004613a56565b611ad2565b6103dc610567366004613b73565b611bb3565b6102c8611e85565b6102a2610582366004613b73565b611f31565b6102c8610595366004613b51565b61204c565b6102c86105a8366004613b73565b6121ff565b6102c86105bb366004613fb0565b6123f4565b6102c86105ce366004613fec565b6124b2565b6102c86105e1366004613a56565b612686565b6102c86105f4366004613fb0565b612814565b6102c8610607366004614032565b6129de565b61031d61061a366004613b73565b612b6a565b6102c861062d366004614081565b612bc6565b61031d610640366004613b25565b600660209081526000928352604080842090915290825290205460ff1681565b6102c861066e366004613a56565b612fc3565b610686610681366004613a56565b61306a565b6040516102ac91906140da565b61031d6106a136600461418f565b600560209081526000928352604080842090915290825290205460ff1681565b6102c86106cf366004613b73565b6131c2565b61031d6106e2366004613fb0565b8051602081830181018051600a8252928201919093012091525460ff1681565b6102c8610710366004613b73565b6132d5565b61031d610723366004613fb0565b613310565b6104a7610736366004613fb0565b80516020818301810180516009825292820191909301209152546001600160a01b031681565b6102c861076a366004613a56565b613349565b6102c861077d366004614032565b61345f565b60008181526003602052604090206005015460ff166107bc5760405162461bcd60e51b81526004016107b3906141b9565b60405180910390fd5b6000818152600360205260409020600101546001600160a01b0316331461081e5760405162461bcd60e51b81526020600482015260166024820152754f6e6c7920617574686f722063616e2064656c65746560501b60448201526064016107b3565b600081815260036020526040808220600501805460ff1916905551339183917f1da4a15b15417b54b8b3bea2ca87cfc4c94f0fee7d86702d0dab9e2906e7a7d39190a350565b60036020526000908152604090208054600182015460028301805492936001600160a01b0390921692610896906141e6565b80601f01602080910402602001604051908101604052809291908181526020018280546108c2906141e6565b801561090f5780601f106108e45761010080835404028352916020019161090f565b820191906000526020600020905b8154815290600101906020018083116108f257829003601f168201915b50505050600383015460048401546005909401549293909290915060ff1686565b6000828152600d60205260408120905b8154811015610ae9578282828154811061095c5761095c614220565b90600052602060002090600802016000015403610ad757336001600160a01b031682828154811061098f5761098f614220565b60009182526020909120600260089092020101546001600160a01b0316146109f95760405162461bcd60e51b815260206004820152601960248201527f4f6e6c7920636f6d6d656e7465722063616e2064656c6574650000000000000060448201526064016107b3565b818181548110610a0b57610a0b614220565b600091825260209091206007600890920201015460ff16610a6e5760405162461bcd60e51b815260206004820152601760248201527f436f6d6d656e7420616c72656164792064656c6574656400000000000000000060448201526064016107b3565b6000828281548110610a8257610a82614220565b60009182526020822060089190910201600701805460ff1916921515929092179091556040513391859187917f6ee692db105027f6f2626ec7348b1fee62bdd8b6aa9c2999ceed2aebd4dc3ee991a450505050565b80610ae18161424c565b915050610940565b5060405162461bcd60e51b815260206004820152601160248201527010dbdb5b595b9d081b9bdd08199bdd5b99607a1b60448201526064016107b3565b600460205260009081526040902080548190610b41906141e6565b80601f0160208091040260200160405190810160405280929190818152602001828054610b6d906141e6565b8015610bba5780601f10610b8f57610100808354040283529160200191610bba565b820191906000526020600020905b815481529060010190602001808311610b9d57829003601f168201915b505050505090806001018054610bcf906141e6565b80601f0160208091040260200160405190810160405280929190818152602001828054610bfb906141e6565b8015610c485780601f10610c1d57610100808354040283529160200191610c48565b820191906000526020600020905b815481529060010190602001808311610c2b57829003601f168201915b505050600284015460038501546004860154600587015460069097015495969295919450925060ff1687565b6001600160a01b0380831660009081526008602090815260408083209385168352929052205460ff165b92915050565b6060806060600080600b805490506001600160401b03811115610cc957610cc9613f0e565b604051908082528060200260200182016040528015610cf2578160200160208202803683370190505b50905060005b600b54811015610e3e57600060036000600b8481548110610d1b57610d1b614220565b600091825260208083209091015483528281019390935260409182018120600101546001600160a01b03168082526004909352206006015490915060ff168015610d8c57506001600160a01b038116600090815260046020526040902060050154607890610d899042614265565b11155b15610e2b576000805b85811015610dea57826001600160a01b0316858281518110610db957610db9614220565b60200260200101516001600160a01b031603610dd85760019150610dea565b80610de28161424c565b915050610d95565b5080610e295781848681518110610e0357610e03614220565b6001600160a01b039092166020928302919091019091015284610e258161424c565b9550505b505b5080610e368161424c565b915050610cf8565b506000826001600160401b03811115610e5957610e59613f0e565b604051908082528060200260200182016040528015610e82578160200160208202803683370190505b5090506000836001600160401b03811115610e9f57610e9f613f0e565b604051908082528060200260200182016040528015610ed257816020015b6060815260200190600190039081610ebd5790505b5090506000846001600160401b03811115610eef57610eef613f0e565b604051908082528060200260200182016040528015610f18578160200160208202803683370190505b50905060005b858110156110ca57848181518110610f3857610f38614220565b6020026020010151848281518110610f5257610f52614220565b60200260200101906001600160a01b031690816001600160a01b03168152505060046000868381518110610f8857610f88614220565b60200260200101516001600160a01b03166001600160a01b031681526020019081526020016000206000018054610fbe906141e6565b80601f0160208091040260200160405190810160405280929190818152602001828054610fea906141e6565b80156110375780601f1061100c57610100808354040283529160200191611037565b820191906000526020600020905b81548152906001019060200180831161101a57829003601f168201915b505050505083828151811061104e5761104e614220565b60200260200101819052506004600086838151811061106f5761106f614220565b60200260200101516001600160a01b03166001600160a01b03168152602001908152602001600020600501548282815181106110ad576110ad614220565b6020908102919091010152806110c28161424c565b915050610f1e565b50919790965090945092505050565b60606000821180156110ec575060328211155b6111285760405162461bcd60e51b815260206004820152600d60248201526c125b9d985b1a59081b1a5b5a5d609a1b60448201526064016107b3565b600b5480841061116c576040805160008082526020820190925290611163565b611150613a15565b8152602001906001900390816111485790505b50915050610c9e565b60006111788486614278565b9050818111156111855750805b60006111918683614265565b90506000816001600160401b038111156111ad576111ad613f0e565b6040519080825280602002602001820160405280156111e657816020015b6111d3613a15565b8152602001906001900390816111cb5790505b50905060005b82811015611358576000600b828a61120560018a614265565b61120f9190614265565b6112199190614265565b8154811061122957611229614220565b600091825260208083209091015480835260038252604092839020835160c0810185528154815260018201546001600160a01b031693810193909352600281018054929550929390929084019161127f906141e6565b80601f01602080910402602001604051908101604052809291908181526020018280546112ab906141e6565b80156112f85780601f106112cd576101008083540402835291602001916112f8565b820191906000526020600020905b8154815290600101906020018083116112db57829003601f168201915b5050509183525050600382015460208201526004820154604082015260059091015460ff161515606090910152835184908490811061133957611339614220565b60200260200101819052505080806113509061424c565b9150506111ec565b509695505050505050565b600d602052816000526040600020818154811061137f57600080fd5b600091825260209091206008909102018054600182015460028301546003840180549396509194506001600160a01b031692916113bb906141e6565b80601f01602080910402602001604051908101604052809291908181526020018280546113e7906141e6565b80156114345780601f1061140957610100808354040283529160200191611434565b820191906000526020600020905b81548152906001019060200180831161141757829003601f168201915b505050506004830154600584015460068501546007909501549394919390925060ff1688565b6001600160a01b0381166000908152600c60209081526040808320805482518185028101850190935280835260609492939192909184015b828210156115185760008481526020908190206040805160a0810182526002860290920180546001600160a01b0381168452600160a01b90046001600160601b03168385015260019081015460ff808216938501939093526101008104909216151560608401526201000090910463ffffffff1660808301529083529092019101611492565b505050509050919050565b3360009081526004602052604090206006015460ff1661157e5760405162461bcd60e51b8152602060048201526016602482015275141c9bd99a5b1948191bd95cc81b9bdd08195e1a5cdd60521b60448201526064016107b3565b3360009081526004602052604081208054611598906141e6565b80601f01602080910402602001604051908101604052809291908181526020018280546115c4906141e6565b80156116115780601f106115e657610100808354040283529160200191611611565b820191906000526020600020905b8154815290600101906020018083116115f457829003601f168201915b50505050509050600061162382613640565b90506000600a82604051611637919061428b565b908152604051908190036020018120805492151560ff199093169290921790915560099061166690839061428b565b90815260408051918290036020908101832080546001600160a01b031916905582810182526000808452338152600490915220906116a490826142f5565b5060408051602080820183526000808352338152600490915291909120600101906116cf90826142f5565b503360008181526004602052604090819020600601805460ff19169055517fccb26faf437ce4765f74a65be3d97c42d3022045b58bd819531faca0da50a8219061171a9085906143b4565b60405180910390a25050565b61172e6137a2565b61173860006137cf565b565b60008181526003602052604090206005015460ff1661176b5760405162461bcd60e51b81526004016107b3906141b9565b600081815260066020908152604080832033845290915290205460ff16156117c55760405162461bcd60e51b815260206004820152600d60248201526c105b1c9958591e481b1a5ad959609a1b60448201526064016107b3565b60008181526006602090815260408083203384528252808320805460ff19166001179055838352600390915281206004018054916118028361424c565b9091555050600081815260036020908152604091829020600401549151918252339183917fdfb8e3561bacb6caea7f0960d425956921b9147a631b6e857325c39911ee7e3b910160405180910390a36000818152600360205260409020600101546001600160a01b0316331461189c5760008181526003602052604081206001015461189c916001600160a01b039091169033908461381f565b50565b336000908152600c60205260408120905b81548110156119085760018282815481106118cd576118cd614220565b906000526020600020906002020160010160016101000a81548160ff02191690831515021790555080806119009061424c565b9150506118b0565b5050565b61194e6040518060e001604052806060815260200160608152602001600081526020016000815260200160008152602001600081526020016000151581525090565b6001600160a01b03821660009081526004602052604090819020815160e08101909252805482908290611980906141e6565b80601f01602080910402602001604051908101604052809291908181526020018280546119ac906141e6565b80156119f95780601f106119ce576101008083540402835291602001916119f9565b820191906000526020600020905b8154815290600101906020018083116119dc57829003601f168201915b50505050508152602001600182018054611a12906141e6565b80601f0160208091040260200160405190810160405280929190818152602001828054611a3e906141e6565b8015611a8b5780601f10611a6057610100808354040283529160200191611a8b565b820191906000526020600020905b815481529060010190602001808311611a6e57829003601f168201915b50505091835250506002820154602082015260038201546040820152600482015460608201526005820154608082015260069091015460ff16151560a09091015292915050565b336000908152600c60205260409020548110611b205760405162461bcd60e51b815260206004820152600d60248201526c092dcecc2d8d2c840d2dcc8caf609b1b60448201526064016107b3565b336000908152600c6020526040902080546001919083908110611b4557611b45614220565b906000526020600020906002020160010160016101000a81548160ff021916908315150217905550336001600160a01b03167ffd1543c051ad7cc4f93db51224aef2b82a58016c981119ca48b2b02febdd546b82604051611ba891815260200190565b60405180910390a250565b60606000805b600b54811015611c7357836001600160a01b031660036000600b8481548110611be457611be4614220565b600091825260208083209091015483528201929092526040019020600101546001600160a01b0316148015611c4e575060036000600b8381548110611c2b57611c2b614220565b6000918252602080832090910154835282019290925260400190206005015460ff165b15611c615781611c5d8161424c565b9250505b80611c6b8161424c565b915050611bb9565b506000816001600160401b03811115611c8e57611c8e613f0e565b604051908082528060200260200182016040528015611cc757816020015b611cb4613a15565b815260200190600190039081611cac5790505b50600b549091506000905b8015611e7b576000600b611ce7600184614265565b81548110611cf757611cf7614220565b600091825260208083209091015480835260039091526040909120600101549091506001600160a01b03908116908816148015611d45575060008181526003602052604090206005015460ff165b15611e6857600081815260036020908152604091829020825160c0810184528154815260018201546001600160a01b0316928101929092526002810180549293919291840191611d94906141e6565b80601f0160208091040260200160405190810160405280929190818152602001828054611dc0906141e6565b8015611e0d5780601f10611de257610100808354040283529160200191611e0d565b820191906000526020600020905b815481529060010190602001808311611df057829003601f168201915b5050509183525050600382015460208201526004820154604082015260059091015460ff1615156060909101528451859085908110611e4e57611e4e614220565b60200260200101819052508280611e649061424c565b9350505b5080611e73816143c7565b915050611cd2565b5090949350505050565b3360009081526004602052604090206006015460ff16611ee05760405162461bcd60e51b8152602060048201526016602482015275141c9bd99a5b1948191bd95cc81b9bdd08195e1a5cdd60521b60448201526064016107b3565b3360008181526004602052604090819020426005820181905591517f17711b33a90413d1ea25363235db2544e41794cf333f19961bb54b58e62a626d92611f2792916143de565b60405180910390a2565b6001600160a01b0381166000908152600c60209081526040808320805482518185028101850190935280835284938493929190849084015b82821015611fef5760008481526020908190206040805160a0810182526002860290920180546001600160a01b0381168452600160a01b90046001600160601b03168385015260019081015460ff808216938501939093526101008104909216151560608401526201000090910463ffffffff1660808301529083529092019101611f69565b50505050905060005b81518110156120435781818151811061201357612013614220565b602002602001015160600151612031578261202d8161424c565b9350505b8061203b8161424c565b915050611ff8565b50909392505050565b6000818152600e6020908152604080832033845290915290205460ff16156120a65760405162461bcd60e51b815260206004820152600d60248201526c105b1c9958591e481b1a5ad959609a1b60448201526064016107b3565b6000818152600e60209081526040808320338085529252808320805460ff1916600117905551909183917ff130ed2efa2f29aaeb0d5dd95532c1cfeef37afc311d3b52ca7666dadb6602a29190a36000828152600d60205260408120905b81548110156121f9578282828154811061212057612120614220565b906000526020600020906008020160000154148015612164575081818154811061214c5761214c614220565b600091825260209091206007600890920201015460ff165b156121e757336001600160a01b031682828154811061218557612185614220565b60009182526020909120600260089092020101546001600160a01b0316146121e2576121e28282815481106121bc576121bc614220565b60009182526020909120600260089092020101546001600160a01b03163360038761381f565b6121f9565b806121f18161424c565b915050612104565b50505050565b336001600160a01b038216036122505760405162461bcd60e51b815260206004820152601660248201527521b0b73737ba103337b63637bb903cb7bab939b2b63360511b60448201526064016107b3565b3360009081526008602090815260408083206001600160a01b038516845290915290205460ff16156122b85760405162461bcd60e51b8152602060048201526011602482015270416c726561647920666f6c6c6f77696e6760781b60448201526064016107b3565b3360008181526008602090815260408083206001600160a01b03861684528252808320805460ff1916600117905592825260049052206006015460ff1661231757336000908152600460205260409020600601805460ff191660011790555b6001600160a01b03811660009081526004602052604090206006015460ff16612361576001600160a01b0381166000908152600460205260409020600601805460ff191660011790555b33600090815260046020819052604082200180549161237f8361424c565b90915550506001600160a01b03811660009081526004602052604081206003018054916123ab8361424c565b90915550506040516001600160a01b0382169033907f30b3435b456f45779984ddfa456115ee4c20d9e446979b1b9e90dbb7e12b90b790600090a361189c81336001600061381f565b60008151116124155760405162461bcd60e51b81526004016107b390614472565b3360009081526004602052604090206006015460ff166124775760405162461bcd60e51b815260206004820152601860248201527f50726f66696c6520726571756972656420746f2063686174000000000000000060448201526064016107b3565b336001600160a01b03167f4703b424e970cd3b80e904dfcf84a1532ffa38dba9527c7678eb6e64066396a18242604051611ba89291906144a9565b60008281526003602052604090206005015460ff166124e35760405162461bcd60e51b81526004016107b3906141b9565b60008151116125045760405162461bcd60e51b81526004016107b390614472565b600f80549060006125148361424c565b90915550506040805161010081018252600f54815260208082018581523383850190815260608401868152426080860152600060a0860181905260c08601819052600160e08701819052898252600d865296812080548089018255908252949020855160089095020193845591519483019490945592516002820180546001600160a01b0319166001600160a01b0390921691909117905591519091829160038201906125c190826142f5565b506080820151600482015560a0820151600582015560c0820151600682015560e0909101516007909101805460ff1916911515919091179055604051339084907fceaa40d9d02173d6fae1f576cc1baff7cec35a842086153314079c405401a9889061263090869042906144a9565b60405180910390a36000838152600360205260409020600101546001600160a01b0316331461268157600083815260036020526040902060010154612681906001600160a01b03163360028661381f565b505050565b336000908152600c60205260409020805482106126a1575050565b80546000906126b1908490614265565b905060005b818110156121f95760005b83546126cf90600190614265565b8110156127c757836126e2826001614278565b815481106126f2576126f2614220565b906000526020600020906002020184828154811061271257612712614220565b60009182526020909120825460029092020180546001600160a01b039092166001600160a01b0319909216821781558254600160a01b908190046001600160601b03160290911781556001918201805492909101805460ff93841660ff19821681178355835461ffff19909216176101009182900490941615150292909217808355905465ffffffff000019909116620100009182900463ffffffff16909102179055806127bf8161424c565b9150506126c1565b50828054806127d8576127d86144cb565b600082815260208120600260001990930192830201908155600101805465ffffffffffff1916905590558061280c8161424c565b9150506126b6565b61281c6139eb565b600081511161283d5760405162461bcd60e51b81526004016107b390614472565b6002805490600061284d8361424c565b90915550506040805160c08101825260028054808352336020808501918252848601878152426060870152600060808701819052600160a08801819052948152600390925295902084518155905191810180546001600160a01b0319166001600160a01b03909316929092179091559251919291908201906128cf90826142f5565b5060608201516003820155608082015160048083019190915560a0909201516005909101805460ff1916911515919091179055600254600b8054600181019091557f0175b7a638427703f0dbe7bb9bbf987a2551717b34e79f33b5b1008d1fa01db90155336000908152602091909152604090206006015460ff1661296c57336000908152600460205260409020600601805460ff191660011790555b33600090815260046020526040812060020180549161298a8361424c565b9190505550336001600160a01b03166002547f285db98a4632176385795ddf0d2b67cef1a21f47eb2f5d06f786ab6b5147e20083426040516129cd9291906144a9565b60405180910390a361189c60018055565b60008381526003602052604090206005015460ff16612a0f5760405162461bcd60e51b81526004016107b3906141b9565b6000815111612a305760405162461bcd60e51b81526004016107b390614472565b600f8054906000612a408361424c565b90915550506040805161010081018252600f54815260208082018681523383850190815260608401868152426080860152600060a0860181905260c08601899052600160e087018190528a8252600d865296812080548089018255908252949020855160089095020193845591519483019490945592516002820180546001600160a01b0319166001600160a01b039092169190911790559151909182916003820190612aed90826142f5565b506080820151600482015560a0820151600582015560c0820151600682015560e0909101516007909101805460ff1916911515919091179055604051339085907fceaa40d9d02173d6fae1f576cc1baff7cec35a842086153314079c405401a98890612b5c90869042906144a9565b60405180910390a350505050565b6001600160a01b03811660009081526004602052604081206006015460ff16612b9557506000919050565b6001600160a01b038216600090815260046020526040902060050154607890612bbe9042614265565b111592915050565b6000825111612c175760405162461bcd60e51b815260206004820152601860248201527f557365726e616d652063616e6e6f7420626520656d707479000000000000000060448201526064016107b3565b601e82511115612c5d5760405162461bcd60e51b8152602060048201526011602482015270557365726e616d6520746f6f206c6f6e6760781b60448201526064016107b3565b6000612c6883613640565b3360009081526004602052604090206006015490915060ff1615612da0573360009081526004602052604081208054612d289190612ca5906141e6565b80601f0160208091040260200160405190810160405280929190818152602001828054612cd1906141e6565b8015612d1e5780601f10612cf357610100808354040283529160200191612d1e565b820191906000526020600020905b815481529060010190602001808311612d0157829003601f168201915b5050505050613640565b90508180519060200120818051906020012014612d9e576000600a82604051612d51919061428b565b908152604051908190036020018120805492151560ff1990931692909217909155600990612d8090839061428b565b90815260405190819003602001902080546001600160a01b03191690555b505b600a81604051612db0919061428b565b9081526040519081900360200190205460ff161580612dff5750336001600160a01b0316600982604051612de4919061428b565b908152604051908190036020019020546001600160a01b0316145b612e445760405162461bcd60e51b81526020600482015260166024820152752ab9b2b93730b6b29030b63932b0b23c903a30b5b2b760511b60448201526064016107b3565b6001600a82604051612e56919061428b565b908152604051908190036020018120805492151560ff19909316929092179091553390600990612e8790849061428b565b908152604080516020928190038301902080546001600160a01b0319166001600160a01b0394909416939093179092553360009081526004909152206006015460ff16612ef45733600090815260046020526040902060068101805460ff19166001179055426005909101555b336000908152600460205260409020612f0d84826142f5565b50336000908152600460205260409020600101612f2a83826142f5565b50336000818152600460205260409081902042600590910155517f6eb3a1c6a4675ba92d44e090515b1ceea358f26565d2854df0c99c3f5eaf985090612f7390869086906144e1565b60405180910390a2336001600160a01b03167f17711b33a90413d1ea25363235db2544e41794cf333f19961bb54b58e62a626d8442604051612fb69291906144a9565b60405180910390a2505050565b6000818152600e6020908152604080832033845290915290205460ff1661301c5760405162461bcd60e51b815260206004820152600d60248201526c139bdd081b1a5ad959081e595d609a1b60448201526064016107b3565b6000818152600e60209081526040808320338085529252808320805460ff1916905551909183917fca9a5541c0b22886f920ba8e818181b95e96be9b85a0d8d6ee60170ac253b3fa9190a350565b6060600d6000838152602001908152602001600020805480602002602001604051908101604052809291908181526020016000905b828210156115185760008481526020908190206040805161010081018252600886029092018054835260018101549383019390935260028301546001600160a01b0316908201526003820180549192916060840191906130fe906141e6565b80601f016020809104026020016040519081016040528092919081815260200182805461312a906141e6565b80156131775780601f1061314c57610100808354040283529160200191613177565b820191906000526020600020905b81548152906001019060200180831161315a57829003601f168201915b50505091835250506004820154602080830191909152600583015460408301526006830154606083015260079092015460ff161515608090910152908252600192909201910161309f565b3360009081526008602090815260408083206001600160a01b038516845290915290205460ff166132255760405162461bcd60e51b815260206004820152600d60248201526c4e6f7420666f6c6c6f77696e6760981b60448201526064016107b3565b3360008181526008602090815260408083206001600160a01b03861684528252808320805460ff1916905592825260049081905291812090910180549161326b836143c7565b90915550506001600160a01b0381166000908152600460205260408120600301805491613297836143c7565b90915550506040516001600160a01b0382169033907fe7339343c6edff57f2d15278c419523844cea30ae5ee2146aa22cb9e3107dab790600090a350565b6132dd6137a2565b6001600160a01b03811661330757604051631e4fbdf760e01b8152600060048201526024016107b3565b61189c816137cf565b60008061331c83613640565b9050600a8160405161332e919061428b565b9081526040519081900360200190205460ff16159392505050565b60008181526003602052604090206005015460ff1661337a5760405162461bcd60e51b81526004016107b3906141b9565b600081815260066020908152604080832033845290915290205460ff166133d35760405162461bcd60e51b815260206004820152600d60248201526c139bdd081b1a5ad959081e595d609a1b60448201526064016107b3565b60008181526006602090815260408083203384528252808320805460ff191690558383526003909152812060040180549161340d836143c7565b9091555050600081815260036020908152604091829020600401549151918252339183917ff82778657f73816e36e0eec83627a423a37071dfb38bb1dab6a21eb62cc2ff65910160405180910390a350565b60008151116134805760405162461bcd60e51b81526004016107b390614472565b6000838152600d60205260408120905b8154811015610ae957838282815481106134ac576134ac614220565b9060005260206000209060080201600001540361362e57336001600160a01b03168282815481106134df576134df614220565b60009182526020909120600260089092020101546001600160a01b0316146135495760405162461bcd60e51b815260206004820152601760248201527f4f6e6c7920636f6d6d656e7465722063616e206564697400000000000000000060448201526064016107b3565b81818154811061355b5761355b614220565b600091825260209091206007600890920201015460ff166135b35760405162461bcd60e51b815260206004820152601260248201527110dbdb5b595b9d081a5cc819195b195d195960721b60448201526064016107b3565b828282815481106135c6576135c6614220565b906000526020600020906008020160030190816135e391906142f5565b50336001600160a01b031684867f87091923e4fcadbd5c83a570516b1ae885c66ca3e926685ef6287888ab95a61c8660405161361f91906143b4565b60405180910390a45050505050565b806136388161424c565b915050613490565b60606000829050600081516001600160401b0381111561366257613662613f0e565b6040519080825280601f01601f19166020018201604052801561368c576020820181803683370190505b50905060005b825181101561379a5760418382815181106136af576136af614220565b016020015160f81c108015906136df5750605a8382815181106136d4576136d4614220565b016020015160f81c11155b15613741578281815181106136f6576136f6614220565b602001015160f81c60f81b60f81c6020613710919061450f565b60f81b82828151811061372557613725614220565b60200101906001600160f81b031916908160001a905350613788565b82818151811061375357613753614220565b602001015160f81c60f81b82828151811061377057613770614220565b60200101906001600160f81b031916908160001a9053505b806137928161424c565b915050613692565b509392505050565b6000546001600160a01b031633146117385760405163118cdaa760e01b81523360048201526024016107b3565b600080546001600160a01b038381166001600160a01b0319831681178455604051919092169283917f8be0079c531659141344cd1fd0a4f28419497f9722a3daafe3b4186f6b6457e09190a35050565b6001600160a01b038085166000908152600c60209081526040808320815160a08101835288861681526001600160601b0342811682860190815260ff808b1695840186815260608086018a815263ffffffff808e1660808901908152895460018181018c559a8e529b909c2097519551909616600160a01b0294909b16939093176002909802909401968755925195909301805497519651909116620100000265ffffffff0000199615156101000261ffff19909816959092169490941795909517939093169390931790559061391157506040805180820190915260048152636c696b6560e01b6020820152613995565b60001960ff8416016139405750604080518082019091526006815265666f6c6c6f7760d01b6020820152613995565b60011960ff841601613970575060408051808201909152600781526618dbdb5b595b9d60ca1b6020820152613995565b5060408051808201909152600c81526b636f6d6d656e745f6c696b6560a01b60208201525b836001600160a01b0316856001600160a01b03167f6e06286eb7b0afb28b65a4c8977ed1ad2d10c3895707cdba90de6ba20f56c00d8385426040516139dc93929190614528565b60405180910390a35050505050565b600260015403613a0e57604051633ee5aeb560e01b815260040160405180910390fd5b6002600155565b6040518060c001604052806000815260200160006001600160a01b031681526020016060815260200160008152602001600081526020016000151581525090565b600060208284031215613a6857600080fd5b5035919050565b60005b83811015613a8a578181015183820152602001613a72565b50506000910152565b60008151808452613aab816020860160208601613a6f565b601f01601f19169290920160200192915050565b8681526001600160a01b038616602082015260c060408201819052600090613ae990830187613a93565b6060830195909552506080810192909252151560a0909101529392505050565b80356001600160a01b0381168114613b2057600080fd5b919050565b60008060408385031215613b3857600080fd5b82359150613b4860208401613b09565b90509250929050565b60008060408385031215613b6457600080fd5b50508035926020909101359150565b600060208284031215613b8557600080fd5b613b8e82613b09565b9392505050565b60e081526000613ba860e083018a613a93565b8281036020840152613bba818a613a93565b604084019890985250506060810194909452608084019290925260a0830152151560c09091015292915050565b60008060408385031215613bfa57600080fd5b613c0383613b09565b9150613b4860208401613b09565b600081518084526020808501945080840160005b83811015613c4157815187529582019590820190600101613c25565b509495945050505050565b606080825284519082018190526000906020906080840190828801845b82811015613c8e5781516001600160a01b031684529284019290840190600101613c69565b50505083810382850152855180825282820190600581901b8301840188850160005b83811015613cde57601f19868403018552613ccc838351613a93565b94870194925090860190600101613cb0565b50508681036040880152613cf28189613c11565b9a9950505050505050505050565b60006020808301818452808551808352604092508286019150828160051b87010184880160005b83811015613d9e57888303603f19018552815180518452878101516001600160a01b0316888501528681015160c088860181905290613d6882870182613a93565b606084810151908801526080808501519088015260a0938401511515939096019290925250509386019390860190600101613d27565b509098975050505050505050565b888152602081018890526001600160a01b038716604082015261010060608201819052600090613dde83820189613a93565b9150508560808301528460a08301528360c083015282151560e08301529998505050505050505050565b602080825282518282018190526000919060409081850190868401855b82811015613e8657815180516001600160a01b03168552868101516001600160601b0316878601528581015160ff168686015260608082015115159086015260809081015163ffffffff169085015260a09093019290850190600101613e25565b5091979650505050505050565b602081526000825160e06020840152613eb0610100840182613a93565b90506020840151601f19848303016040850152613ecd8282613a93565b9150506040840151606084015260608401516080840152608084015160a084015260a084015160c084015260c0840151151560e08401528091505092915050565b634e487b7160e01b600052604160045260246000fd5b600082601f830112613f3557600080fd5b81356001600160401b0380821115613f4f57613f4f613f0e565b604051601f8301601f19908116603f01168101908282118183101715613f7757613f77613f0e565b81604052838152866020858801011115613f9057600080fd5b836020870160208301376000602085830101528094505050505092915050565b600060208284031215613fc257600080fd5b81356001600160401b03811115613fd857600080fd5b613fe484828501613f24565b949350505050565b60008060408385031215613fff57600080fd5b8235915060208301356001600160401b0381111561401c57600080fd5b61402885828601613f24565b9150509250929050565b60008060006060848603121561404757600080fd5b833592506020840135915060408401356001600160401b0381111561406b57600080fd5b61407786828701613f24565b9150509250925092565b6000806040838503121561409457600080fd5b82356001600160401b03808211156140ab57600080fd5b6140b786838701613f24565b935060208501359150808211156140cd57600080fd5b5061402885828601613f24565b60006020808301818452808551808352604092508286019150828160051b87010184880160005b83811015613d9e57888303603f190185528151805184528781015188850152868101516001600160a01b031687850152606080820151610100828701819052919061414e83880182613a93565b6080858101519089015260a0808601519089015260c0808601519089015260e094850151151594909701939093525050509386019390860190600101614101565b600080604083850312156141a257600080fd5b6141ab83613b09565b946020939093013593505050565b602080825260139082015272141bdcdd08191bd95cc81b9bdd08195e1a5cdd606a1b604082015260600190565b600181811c908216806141fa57607f821691505b60208210810361421a57634e487b7160e01b600052602260045260246000fd5b50919050565b634e487b7160e01b600052603260045260246000fd5b634e487b7160e01b600052601160045260246000fd5b60006001820161425e5761425e614236565b5060010190565b81810381811115610c9e57610c9e614236565b80820180821115610c9e57610c9e614236565b6000825161429d818460208701613a6f565b9190910192915050565b601f82111561268157600081815260208120601f850160051c810160208610156142ce5750805b601f850160051c820191505b818110156142ed578281556001016142da565b505050505050565b81516001600160401b0381111561430e5761430e613f0e565b6143228161431c84546141e6565b846142a7565b602080601f831160018114614357576000841561433f5750858301515b600019600386901b1c1916600185901b1785556142ed565b600085815260208120601f198616915b8281101561438657888601518255948401946001909101908401614367565b50858210156143a45787850151600019600388901b60f8161c191681555b5050505050600190811b01905550565b602081526000613b8e6020830184613a93565b6000816143d6576143d6614236565b506000190190565b6040815260008084546143f0816141e6565b8060408601526060600180841660008114614412576001811461442c5761445d565b60ff1985168884015283151560051b88018301955061445d565b8960005260208060002060005b868110156144545781548b8201870152908401908201614439565b8a018501975050505b50505050506020929092019290925292915050565b60208082526019908201527f4950465320686173682063616e6e6f7420626520656d70747900000000000000604082015260600190565b6040815260006144bc6040830185613a93565b90508260208301529392505050565b634e487b7160e01b600052603160045260246000fd5b6040815260006144f46040830185613a93565b82810360208401526145068185613a93565b95945050505050565b60ff8181168382160190811115610c9e57610c9e614236565b60608152600061453b6060830186613a93565b6020830194909452506040015291905056fea2646970667358221220ceeb7991ed946eeeedc24522649c5c7b43aad84e98d6a6555b9c6dbc2643957d64736f6c63430008140033",
  "linkReferences": {},
  "deployedLinkReferences": {}
}