{
  "_format": "hh-sol-artifact-1",
  "contractName": "SocialFeed",
  "sourceName": "contracts/SocialFeed.sol",
  "abi": [
    {
      "inputs": [],
      "stateMutability": "nonpayable",
      "type": "constructor"
    },
    {
      "inputs": [
        {
          "internalType": "address",
          "name": "owner",
          "type": "address"
        }
      ],
      "name": "OwnableInvalidOwner",
      "type": "error"
    },
    {
      "inputs": [
        {
          "internalType": "address",
          "name": "account",
          "type": "address"
        }
      ],
      "name": "OwnableUnauthorizedAccount",
      "type": "error"
    },
    {
      "inputs": [],
      "name": "ReentrancyGuardReentrantCall",
      "type": "error"
    },
    {
      "anonymous": false,
      "inputs": [
        {
          "indexed": true,
          "internalType": "address",
          "name": "sender",
          "type": "address"
        },
        {
          "indexed": false,
          "internalType": "string",
          "name": "ipfsHash",
          "type": "string"
        },
        {
          "indexed": false,
          "internalType": "uint256",
          "name": "timestamp",
          "type": "uint256"
        }
      ],
      "name": "ChatMessageSent",
      "type": "event"
    },
    {
      "anonymous": false,
      "inputs": [
        {
          "indexed": true,
          "internalType": "uint256",
          "name": "postId",
          "type": "uint256"
        },
        {
          "indexed": true,
          "internalType": "address",
          "name": "commenter",
          "type": "address"
        },
        {
          "indexed": false,
          "internalType": "string",
          "name": "ipfsHash",
          "type": "string"
        },
        {
          "indexed": false,
          "internalType": "uint256",
          "name": "timestamp",
          "type": "uint256"
        }
      ],
      "name": "CommentAdded",
      "type": "event"
    },
    {
      "anonymous": false,
      "inputs": [
        {
          "indexed": true,
          "internalType": "uint256",
          "name": "postId",
          "type": "uint256"
        },
        {
          "indexed": true,
          "internalType": "uint256",
          "name": "commentId",
          "type": "uint256"
        },
        {
          "indexed": true,
          "internalType": "address",
          "name": "commenter",
          "type": "address"
        }
      ],
      "name": "CommentDeleted",
      "type": "event"
    },
    {
      "anonymous": false,
      "inputs": [
        {
          "indexed": true,
          "internalType": "uint256",
          "name": "postId",
          "type": "uint256"
        },
        {
          "indexed": true,
          "internalType": "uint256",
          "name": "commentId",
          "type": "uint256"
        },
        {
          "indexed": true,
          "internalType": "address",
          "name": "commenter",
          "type": "address"
        },
        {
          "indexed": false,
          "internalType": "string",
          "name": "newIpfsHash",
          "type": "string"
        }
      ],
      "name": "CommentEdited",
      "type": "event"
    },
    {
      "anonymous": false,
      "inputs": [
        {
          "indexed": true,
          "internalType": "uint256",
          "name": "commentId",
          "type": "uint256"
        },
        {
          "indexed": true,
          "internalType": "address",
          "name": "liker",
          "type": "address"
        }
      ],
      "name": "CommentLiked",
      "type": "event"
    },
    {
      "anonymous": false,
      "inputs": [
        {
          "indexed": true,
          "internalType": "uint256",
          "name": "commentId",
          "type": "uint256"
        },
        {
          "indexed": true,
          "internalType": "address",
          "name": "unliker",
          "type": "address"
        }
      ],
      "name": "CommentUnliked",
      "type": "event"
    },
    {
      "anonymous": false,
      "inputs": [
        {
          "indexed": true,
          "internalType": "address",
          "name": "recipient",
          "type": "address"
        },
        {
          "indexed": true,
          "internalType": "address",
          "name": "sender",
          "type": "address"
        },
        {
          "indexed": false,
          "internalType": "string",
          "name": "notificationType",
          "type": "string"
        },
        {
          "indexed": false,
          "internalType": "uint256",
          "name": "relatedId",
          "type": "uint256"
        },
        {
          "indexed": false,
          "internalType": "uint256",
          "name": "timestamp",
          "type": "uint256"
        }
      ],
      "name": "NotificationCreated",
      "type": "event"
    },
    {
      "anonymous": false,
      "inputs": [
        {
          "indexed": true,
          "internalType": "address",
          "name": "user",
          "type": "address"
        },
        {
          "indexed": false,
          "internalType": "uint256",
          "name": "notificationId",
          "type": "uint256"
        }
      ],
      "name": "NotificationRead",
      "type": "event"
    },
    {
      "anonymous": false,
      "inputs": [
        {
          "indexed": true,
          "internalType": "address",
          "name": "previousOwner",
          "type": "address"
        },
        {
          "indexed": true,
          "internalType": "address",
          "name": "newOwner",
          "type": "address"
        }
      ],
      "name": "OwnershipTransferred",
      "type": "event"
    },
    {
      "anonymous": false,
      "inputs": [
        {
          "indexed": true,
          "internalType": "uint256",
          "name": "postId",
          "type": "uint256"
        },
        {
          "indexed": true,
          "internalType": "address",
          "name": "author",
          "type": "address"
        },
        {
          "indexed": false,
          "internalType": "string",
          "name": "ipfsHash",
          "type": "string"
        },
        {
          "indexed": false,
          "internalType": "uint256",
          "name": "timestamp",
          "type": "uint256"
        }
      ],
      "name": "PostCreated",
      "type": "event"
    },
    {
      "anonymous": false,
      "inputs": [
        {
          "indexed": true,
          "internalType": "uint256",
          "name": "postId",
          "type": "uint256"
        },
        {
          "indexed": true,
          "internalType": "address",
          "name": "author",
          "type": "address"
        }
      ],
      "name": "PostDeleted",
      "type": "event"
    },
    {
      "anonymous": false,
      "inputs": [
        {
          "indexed": true,
          "internalType": "uint256",
          "name": "postId",
          "type": "uint256"
        },
        {
          "indexed": true,
          "internalType": "address",
          "name": "liker",
          "type": "address"
        },
        {
          "indexed": false,
          "internalType": "uint256",
          "name": "newLikeCount",
          "type": "uint256"
        }
      ],
      "name": "PostLiked",
      "type": "event"
    },
    {
      "anonymous": false,
      "inputs": [
        {
          "indexed": true,
          "internalType": "uint256",
          "name": "postId",
          "type": "uint256"
        },
        {
          "indexed": true,
          "internalType": "address",
          "name": "unliker",
          "type": "address"
        },
        {
          "indexed": false,
          "internalType": "uint256",
          "name": "newLikeCount",
          "type": "uint256"
        }
      ],
      "name": "PostUnliked",
      "type": "event"
    },
    {
      "anonymous": false,
      "inputs": [
        {
          "indexed": true,
          "internalType": "address",
          "name": "user",
          "type": "address"
        },
        {
          "indexed": false,
          "internalType": "string",
          "name": "displayName",
          "type": "string"
        },
        {
          "indexed": false,
          "internalType": "string",
          "name": "profileIpfsHash",
          "type": "string"
        }
      ],
      "name": "ProfileCreated",
      "type": "event"
    },
    {
      "anonymous": false,
      "inputs": [
        {
          "indexed": true,
          "internalType": "address",
          "name": "user",
          "type": "address"
        },
        {
          "indexed": false,
          "internalType": "string",
          "name": "displayName",
          "type": "string"
        }
      ],
      "name": "ProfileDeleted",
      "type": "event"
    },
    {
      "anonymous": false,
      "inputs": [
        {
          "indexed": true,
          "internalType": "address",
          "name": "user",
          "type": "address"
        },
        {
          "indexed": false,
          "internalType": "string",
          "name": "displayName",
          "type": "string"
        },
        {
          "indexed": false,
          "internalType": "string",
          "name": "profileIpfsHash",
          "type": "string"
        }
      ],
      "name": "ProfileUpdated",
      "type": "event"
    },
    {
      "anonymous": false,
      "inputs": [
        {
          "indexed": true,
          "internalType": "address",
          "name": "follower",
          "type": "address"
        },
        {
          "indexed": true,
          "internalType": "address",
          "name": "following",
          "type": "address"
        }
      ],
      "name": "UserFollowed",
      "type": "event"
    },
    {
      "anonymous": false,
      "inputs": [
        {
          "indexed": true,
          "internalType": "address",
          "name": "follower",
          "type": "address"
        },
        {
          "indexed": true,
          "internalType": "address",
          "name": "unfollowing",
          "type": "address"
        }
      ],
      "name": "UserUnfollowed",
      "type": "event"
    },
    {
      "inputs": [],
      "name": "MAX_POST_LENGTH",
      "outputs": [
        {
          "internalType": "uint256",
          "name": "",
          "type": "uint256"
        }
      ],
      "stateMutability": "view",
      "type": "function"
    },
    {
      "inputs": [
        {
          "internalType": "uint256",
          "name": "_postId",
          "type": "uint256"
        },
        {
          "internalType": "string",
          "name": "_ipfsHash",
          "type": "string"
        }
      ],
      "name": "addComment",
      "outputs": [],
      "stateMutability": "nonpayable",
      "type": "function"
    },
    {
      "inputs": [
        {
          "internalType": "uint256",
          "name": "_postId",
          "type": "uint256"
        },
        {
          "internalType": "uint256",
          "name": "_replyToCommentId",
          "type": "uint256"
        },
        {
          "internalType": "string",
          "name": "_ipfsHash",
          "type": "string"
        }
      ],
      "name": "addCommentReply",
      "outputs": [],
      "stateMutability": "nonpayable",
      "type": "function"
    },
    {
      "inputs": [
        {
          "internalType": "address",
          "name": "_follower",
          "type": "address"
        },
        {
          "internalType": "address",
          "name": "_following",
          "type": "address"
        }
      ],
      "name": "checkIsFollowing",
      "outputs": [
        {
          "internalType": "bool",
          "name": "",
          "type": "bool"
        }
      ],
      "stateMutability": "view",
      "type": "function"
    },
    {
      "inputs": [
        {
          "internalType": "uint256",
          "name": "_keepCount",
          "type": "uint256"
        }
      ],
      "name": "clearOldNotifications",
      "outputs": [],
      "stateMutability": "nonpayable",
      "type": "function"
    },
    {
      "inputs": [
        {
          "internalType": "uint256",
          "name": "",
          "type": "uint256"
        },
        {
          "internalType": "address",
          "name": "",
          "type": "address"
        }
      ],
      "name": "commentLikes",
      "outputs": [
        {
          "internalType": "bool",
          "name": "",
          "type": "bool"
        }
      ],
      "stateMutability": "view",
      "type": "function"
    },
    {
      "inputs": [
        {
          "internalType": "address",
          "name": "_mentionedUser",
          "type": "address"
        },
        {
          "internalType": "uint256",
          "name": "_postId",
          "type": "uint256"
        }
      ],
      "name": "createMentionNotification",
      "outputs": [],
      "stateMutability": "nonpayable",
      "type": "function"
    },
    {
      "inputs": [
        {
          "internalType": "string",
          "name": "_ipfsHash",
          "type": "string"
        }
      ],
      "name": "createPost",
      "outputs": [],
      "stateMutability": "nonpayable",
      "type": "function"
    },
    {
      "inputs": [
        {
          "internalType": "address",
          "name": "_originalCommenter",
          "type": "address"
        },
        {
          "internalType": "uint256",
          "name": "_postId",
          "type": "uint256"
        }
      ],
      "name": "createReplyNotification",
      "outputs": [],
      "stateMutability": "nonpayable",
      "type": "function"
    },
    {
      "inputs": [
        {
          "internalType": "address",
          "name": "_taggedUser",
          "type": "address"
        },
        {
          "internalType": "uint256",
          "name": "_postId",
          "type": "uint256"
        }
      ],
      "name": "createTagNotification",
      "outputs": [],
      "stateMutability": "nonpayable",
      "type": "function"
    },
    {
      "inputs": [
        {
          "internalType": "uint256",
          "name": "_postId",
          "type": "uint256"
        },
        {
          "internalType": "uint256",
          "name": "_commentId",
          "type": "uint256"
        }
      ],
      "name": "deleteComment",
      "outputs": [],
      "stateMutability": "nonpayable",
      "type": "function"
    },
    {
      "inputs": [
        {
          "internalType": "uint256",
          "name": "_postId",
          "type": "uint256"
        }
      ],
      "name": "deletePost",
      "outputs": [],
      "stateMutability": "nonpayable",
      "type": "function"
    },
    {
      "inputs": [],
      "name": "deleteProfile",
      "outputs": [],
      "stateMutability": "nonpayable",
      "type": "function"
    },
    {
      "inputs": [
        {
          "internalType": "uint256",
          "name": "_postId",
          "type": "uint256"
        },
        {
          "internalType": "uint256",
          "name": "_commentId",
          "type": "uint256"
        },
        {
          "internalType": "string",
          "name": "_newIpfsHash",
          "type": "string"
        }
      ],
      "name": "editComment",
      "outputs": [],
      "stateMutability": "nonpayable",
      "type": "function"
    },
    {
      "inputs": [
        {
          "internalType": "address",
          "name": "_userToFollow",
          "type": "address"
        }
      ],
      "name": "followUser",
      "outputs": [],
      "stateMutability": "nonpayable",
      "type": "function"
    },
    {
      "inputs": [],
      "name": "getAllRegisteredUsers",
      "outputs": [
        {
          "internalType": "address[]",
          "name": "",
          "type": "address[]"
        }
      ],
      "stateMutability": "view",
      "type": "function"
    },
    {
      "inputs": [
        {
          "internalType": "uint256",
          "name": "_postId",
          "type": "uint256"
        }
      ],
      "name": "getPostComments",
      "outputs": [
        {
          "components": [
            {
              "internalType": "uint256",
              "name": "id",
              "type": "uint256"
            },
            {
              "internalType": "uint256",
              "name": "postId",
              "type": "uint256"
            },
            {
              "internalType": "address",
              "name": "commenter",
              "type": "address"
            },
            {
              "internalType": "string",
              "name": "ipfsHash",
              "type": "string"
            },
            {
              "internalType": "uint256",
              "name": "timestamp",
              "type": "uint256"
            },
            {
              "internalType": "uint256",
              "name": "likes",
              "type": "uint256"
            },
            {
              "internalType": "uint256",
              "name": "replyTo",
              "type": "uint256"
            },
            {
              "internalType": "bool",
              "name": "isActive",
              "type": "bool"
            }
          ],
          "internalType": "struct SocialFeed.Comment[]",
          "name": "",
          "type": "tuple[]"
        }
      ],
      "stateMutability": "view",
      "type": "function"
    },
    {
      "inputs": [
        {
          "internalType": "uint256",
          "name": "_offset",
          "type": "uint256"
        },
        {
          "internalType": "uint256",
          "name": "_limit",
          "type": "uint256"
        }
      ],
      "name": "getRecentPosts",
      "outputs": [
        {
          "components": [
            {
              "internalType": "uint256",
              "name": "id",
              "type": "uint256"
            },
            {
              "internalType": "address",
              "name": "author",
              "type": "address"
            },
            {
              "internalType": "string",
              "name": "ipfsHash",
              "type": "string"
            },
            {
              "internalType": "uint256",
              "name": "timestamp",
              "type": "uint256"
            },
            {
              "internalType": "uint256",
              "name": "likes",
              "type": "uint256"
            },
            {
              "internalType": "bool",
              "name": "isActive",
              "type": "bool"
            }
          ],
          "internalType": "struct SocialFeed.Post[]",
          "name": "",
          "type": "tuple[]"
        }
      ],
      "stateMutability": "view",
      "type": "function"
    },
    {
      "inputs": [],
      "name": "getRegisteredUsersCount",
      "outputs": [
        {
          "internalType": "uint256",
          "name": "",
          "type": "uint256"
        }
      ],
      "stateMutability": "view",
      "type": "function"
    },
    {
      "inputs": [
        {
          "internalType": "uint256",
          "name": "_start",
          "type": "uint256"
        },
        {
          "internalType": "uint256",
          "name": "_limit",
          "type": "uint256"
        }
      ],
      "name": "getRegisteredUsersPaginated",
      "outputs": [
        {
          "internalType": "address[]",
          "name": "",
          "type": "address[]"
        }
      ],
      "stateMutability": "view",
      "type": "function"
    },
    {
      "inputs": [],
      "name": "getTotalPosts",
      "outputs": [
        {
          "internalType": "uint256",
          "name": "",
          "type": "uint256"
        }
      ],
      "stateMutability": "view",
      "type": "function"
    },
    {
      "inputs": [
        {
          "internalType": "address",
          "name": "_user",
          "type": "address"
        }
      ],
      "name": "getUnreadNotificationCount",
      "outputs": [
        {
          "internalType": "uint256",
          "name": "",
          "type": "uint256"
        }
      ],
      "stateMutability": "view",
      "type": "function"
    },
    {
      "inputs": [
        {
          "internalType": "address",
          "name": "_user",
          "type": "address"
        }
      ],
      "name": "getUserNotifications",
      "outputs": [
        {
          "components": [
            {
              "internalType": "address",
              "name": "sender",
              "type": "address"
            },
            {
              "internalType": "uint96",
              "name": "timestamp",
              "type": "uint96"
            },
            {
              "internalType": "uint8",
              "name": "notificationType",
              "type": "uint8"
            },
            {
              "internalType": "bool",
              "name": "read",
              "type": "bool"
            },
            {
              "internalType": "uint32",
              "name": "relatedId",
              "type": "uint32"
            }
          ],
          "internalType": "struct SocialFeed.Notification[]",
          "name": "",
          "type": "tuple[]"
        }
      ],
      "stateMutability": "view",
      "type": "function"
    },
    {
      "inputs": [
        {
          "internalType": "address",
          "name": "_user",
          "type": "address"
        }
      ],
      "name": "getUserPosts",
      "outputs": [
        {
          "components": [
            {
              "internalType": "uint256",
              "name": "id",
              "type": "uint256"
            },
            {
              "internalType": "address",
              "name": "author",
              "type": "address"
            },
            {
              "internalType": "string",
              "name": "ipfsHash",
              "type": "string"
            },
            {
              "internalType": "uint256",
              "name": "timestamp",
              "type": "uint256"
            },
            {
              "internalType": "uint256",
              "name": "likes",
              "type": "uint256"
            },
            {
              "internalType": "bool",
              "name": "isActive",
              "type": "bool"
            }
          ],
          "internalType": "struct SocialFeed.Post[]",
          "name": "",
          "type": "tuple[]"
        }
      ],
      "stateMutability": "view",
      "type": "function"
    },
    {
      "inputs": [
        {
          "internalType": "address",
          "name": "_user",
          "type": "address"
        }
      ],
      "name": "getUserProfile",
      "outputs": [
        {
          "components": [
            {
              "internalType": "string",
              "name": "displayName",
              "type": "string"
            },
            {
              "internalType": "string",
              "name": "profileIpfsHash",
              "type": "string"
            },
            {
              "internalType": "uint256",
              "name": "postCount",
              "type": "uint256"
            },
            {
              "internalType": "uint256",
              "name": "followerCount",
              "type": "uint256"
            },
            {
              "internalType": "uint256",
              "name": "followingCount",
              "type": "uint256"
            },
            {
              "internalType": "bool",
              "name": "exists",
              "type": "bool"
            }
          ],
          "internalType": "struct SocialFeed.UserProfile",
          "name": "",
          "type": "tuple"
        }
      ],
      "stateMutability": "view",
      "type": "function"
    },
    {
      "inputs": [
        {
          "internalType": "uint256",
          "name": "_postId",
          "type": "uint256"
        },
        {
          "internalType": "address",
          "name": "_user",
          "type": "address"
        }
      ],
      "name": "hasLiked",
      "outputs": [
        {
          "internalType": "bool",
          "name": "",
          "type": "bool"
        }
      ],
      "stateMutability": "view",
      "type": "function"
    },
    {
      "inputs": [
        {
          "internalType": "uint256",
          "name": "_commentId",
          "type": "uint256"
        },
        {
          "internalType": "address",
          "name": "_user",
          "type": "address"
        }
      ],
      "name": "hasLikedComment",
      "outputs": [
        {
          "internalType": "bool",
          "name": "",
          "type": "bool"
        }
      ],
      "stateMutability": "view",
      "type": "function"
    },
    {
      "inputs": [
        {
          "internalType": "address",
          "name": "",
          "type": "address"
        },
        {
          "internalType": "uint256",
          "name": "",
          "type": "uint256"
        }
      ],
      "name": "hasLikedPost",
      "outputs": [
        {
          "internalType": "bool",
          "name": "",
          "type": "bool"
        }
      ],
      "stateMutability": "view",
      "type": "function"
    },
    {
      "inputs": [
        {
          "internalType": "address",
          "name": "",
          "type": "address"
        },
        {
          "internalType": "address",
          "name": "",
          "type": "address"
        }
      ],
      "name": "isFollowing",
      "outputs": [
        {
          "internalType": "bool",
          "name": "",
          "type": "bool"
        }
      ],
      "stateMutability": "view",
      "type": "function"
    },
    {
      "inputs": [
        {
          "internalType": "string",
          "name": "_username",
          "type": "string"
        }
      ],
      "name": "isUsernameAvailable",
      "outputs": [
        {
          "internalType": "bool",
          "name": "",
          "type": "bool"
        }
      ],
      "stateMutability": "view",
      "type": "function"
    },
    {
      "inputs": [
        {
          "internalType": "uint256",
          "name": "_postId",
          "type": "uint256"
        },
        {
          "internalType": "uint256",
          "name": "_commentId",
          "type": "uint256"
        }
      ],
      "name": "likeComment",
      "outputs": [],
      "stateMutability": "nonpayable",
      "type": "function"
    },
    {
      "inputs": [
        {
          "internalType": "uint256",
          "name": "_postId",
          "type": "uint256"
        }
      ],
      "name": "likePost",
      "outputs": [],
      "stateMutability": "nonpayable",
      "type": "function"
    },
    {
      "inputs": [],
      "name": "markAllNotificationsAsRead",
      "outputs": [],
      "stateMutability": "nonpayable",
      "type": "function"
    },
    {
      "inputs": [
        {
          "internalType": "uint256",
          "name": "_notificationIndex",
          "type": "uint256"
        }
      ],
      "name": "markNotificationAsRead",
      "outputs": [],
      "stateMutability": "nonpayable",
      "type": "function"
    },
    {
      "inputs": [],
      "name": "owner",
      "outputs": [
        {
          "internalType": "address",
          "name": "",
          "type": "address"
        }
      ],
      "stateMutability": "view",
      "type": "function"
    },
    {
      "inputs": [
        {
          "internalType": "uint256",
          "name": "",
          "type": "uint256"
        },
        {
          "internalType": "uint256",
          "name": "",
          "type": "uint256"
        }
      ],
      "name": "postComments",
      "outputs": [
        {
          "internalType": "uint256",
          "name": "id",
          "type": "uint256"
        },
        {
          "internalType": "uint256",
          "name": "postId",
          "type": "uint256"
        },
        {
          "internalType": "address",
          "name": "commenter",
          "type": "address"
        },
        {
          "internalType": "string",
          "name": "ipfsHash",
          "type": "string"
        },
        {
          "internalType": "uint256",
          "name": "timestamp",
          "type": "uint256"
        },
        {
          "internalType": "uint256",
          "name": "likes",
          "type": "uint256"
        },
        {
          "internalType": "uint256",
          "name": "replyTo",
          "type": "uint256"
        },
        {
          "internalType": "bool",
          "name": "isActive",
          "type": "bool"
        }
      ],
      "stateMutability": "view",
      "type": "function"
    },
    {
      "inputs": [
        {
          "internalType": "uint256",
          "name": "",
          "type": "uint256"
        },
        {
          "internalType": "address",
          "name": "",
          "type": "address"
        }
      ],
      "name": "postLikes",
      "outputs": [
        {
          "internalType": "bool",
          "name": "",
          "type": "bool"
        }
      ],
      "stateMutability": "view",
      "type": "function"
    },
    {
      "inputs": [
        {
          "internalType": "uint256",
          "name": "",
          "type": "uint256"
        }
      ],
      "name": "posts",
      "outputs": [
        {
          "internalType": "uint256",
          "name": "id",
          "type": "uint256"
        },
        {
          "internalType": "address",
          "name": "author",
          "type": "address"
        },
        {
          "internalType": "string",
          "name": "ipfsHash",
          "type": "string"
        },
        {
          "internalType": "uint256",
          "name": "timestamp",
          "type": "uint256"
        },
        {
          "internalType": "uint256",
          "name": "likes",
          "type": "uint256"
        },
        {
          "internalType": "bool",
          "name": "isActive",
          "type": "bool"
        }
      ],
      "stateMutability": "view",
      "type": "function"
    },
    {
      "inputs": [],
      "name": "renounceOwnership",
      "outputs": [],
      "stateMutability": "nonpayable",
      "type": "function"
    },
    {
      "inputs": [
        {
          "internalType": "string",
          "name": "_ipfsHash",
          "type": "string"
        }
      ],
      "name": "sendChatMessage",
      "outputs": [],
      "stateMutability": "nonpayable",
      "type": "function"
    },
    {
      "inputs": [
        {
          "internalType": "address",
          "name": "newOwner",
          "type": "address"
        }
      ],
      "name": "transferOwnership",
      "outputs": [],
      "stateMutability": "nonpayable",
      "type": "function"
    },
    {
      "inputs": [
        {
          "internalType": "address",
          "name": "_userToUnfollow",
          "type": "address"
        }
      ],
      "name": "unfollowUser",
      "outputs": [],
      "stateMutability": "nonpayable",
      "type": "function"
    },
    {
      "inputs": [
        {
          "internalType": "uint256",
          "name": "_commentId",
          "type": "uint256"
        }
      ],
      "name": "unlikeComment",
      "outputs": [],
      "stateMutability": "nonpayable",
      "type": "function"
    },
    {
      "inputs": [
        {
          "internalType": "uint256",
          "name": "_postId",
          "type": "uint256"
        }
      ],
      "name": "unlikePost",
      "outputs": [],
      "stateMutability": "nonpayable",
      "type": "function"
    },
    {
      "inputs": [
        {
          "internalType": "string",
          "name": "_displayName",
          "type": "string"
        },
        {
          "internalType": "string",
          "name": "_profileIpfsHash",
          "type": "string"
        }
      ],
      "name": "updateProfile",
      "outputs": [],
      "stateMutability": "nonpayable",
      "type": "function"
    },
    {
      "inputs": [
        {
          "internalType": "address",
          "name": "",
          "type": "address"
        },
        {
          "internalType": "address",
          "name": "",
          "type": "address"
        }
      ],
      "name": "userFollows",
      "outputs": [
        {
          "internalType": "bool",
          "name": "",
          "type": "bool"
        }
      ],
      "stateMutability": "view",
      "type": "function"
    },
    {
      "inputs": [
        {
          "internalType": "address",
          "name": "",
          "type": "address"
        }
      ],
      "name": "userProfiles",
      "outputs": [
        {
          "internalType": "string",
          "name": "displayName",
          "type": "string"
        },
        {
          "internalType": "string",
          "name": "profileIpfsHash",
          "type": "string"
        },
        {
          "internalType": "uint256",
          "name": "postCount",
          "type": "uint256"
        },
        {
          "internalType": "uint256",
          "name": "followerCount",
          "type": "uint256"
        },
        {
          "internalType": "uint256",
          "name": "followingCount",
          "type": "uint256"
        },
        {
          "internalType": "bool",
          "name": "exists",
          "type": "bool"
        }
      ],
      "stateMutability": "view",
      "type": "function"
    },
    {
      "inputs": [
        {
          "internalType": "string",
          "name": "",
          "type": "string"
        }
      ],
      "name": "usernameTaken",
      "outputs": [
        {
          "internalType": "bool",
          "name": "",
          "type": "bool"
        }
      ],
      "stateMutability": "view",
      "type": "function"
    },
    {
      "inputs": [
        {
          "internalType": "string",
          "name": "",
          "type": "string"
        }
      ],
      "name": "usernameToAddress",
      "outputs": [
        {
          "internalType": "address",
          "name": "",
          "type": "address"
        }
      ],
      "stateMutability": "view",
      "type": "function"
    }
  ],
  "bytecode": "0x60806040523480156200001157600080fd5b5033806200003957604051631e4fbdf760e01b81526000600482015260240160405180910390fd5b62000044816200004f565b50600180556200009f565b600080546001600160a01b038381166001600160a01b0319831681178455604051919092169283917f8be0079c531659141344cd1fd0a4f28419497f9722a3daafe3b4186f6b6457e09190a35050565b6143b380620000af6000396000f3fe608060405234801561001057600080fd5b50600436106102bb5760003560e01c8063999572f711610182578063c7f87e4f116100e9578063f107cfcb116100a2578063f69c6dec1161007c578063f69c6dec1461076d578063f825f14314610780578063fa188de9146107b4578063fa561152146107c757600080fd5b8063f107cfcb14610719578063f26e818a1461072c578063f2fde38b1461075a57600080fd5b8063c7f87e4f14610664578063c9d3cc6a14610677578063ca1f0cad1461068a578063ccaad2de146106b8578063d524ff76146106cb578063e9a9f051146106eb57600080fd5b8063a70806f71161013b578063a70806f7146105f2578063a7e33a0c14610605578063aa7e568314610618578063b96830061461062b578063c4c600d91461063e578063c7303c611461065157600080fd5b8063999572f71461057057806399ec3a421461057857806399f9b888146105a65780639a2194a9146105b95780639ef39d78146105cc578063a0e91821146105df57600080fd5b80635193c94c11610226578063725009d3116101df578063725009d3146104a9578063746f08fd146104bc5780638d97bc7f146104c45780638da5cb5b146104f25780638fb7092c14610517578063987ee1561461055057600080fd5b80635193c94c146104335780635432a7731461045a57806357f31358146104715780635fe226b4146104915780636d4540eb14610499578063715018a6146104a157600080fd5b806334d1bf291161027857806334d1bf291461038c57806338904ec91461039f578063397388af146103d857806339ddd43d146103ed5780634025681a14610400578063513761e71461042057600080fd5b8063094cd5ee146102c05780630b1e7f83146102d55780631c906291146103035780632e7ee0b41461034157806331a4bcb514610354578063332d56d714610367575b600080fd5b6102d36102ce36600461399d565b6107da565b005b6102e86102e336600461399d565b6108bc565b6040516102fa96959493929190613a06565b60405180910390f35b610331610311366004613a6c565b600f60209081526000928352604080842090915290825290205460ff1681565b60405190151581526020016102fa565b6102d361034f366004613a98565b610988565b6102d3610362366004613ac2565b610a17565b61037a610375366004613ae4565b610c0d565b6040516102fa96959493929190613b06565b61033161039a366004613b53565b610d55565b6103316103ad366004613a6c565b6000918252600f602090815260408084206001600160a01b0393909316845291905290205460ff1690565b6103e0610d85565b6040516102fa9190613b7d565b6102d36103fb366004613a98565b610de7565b61041361040e366004613ac2565b610e72565b6040516102fa9190613bca565b6102d361042e366004613a98565b6110fd565b610446610441366004613ac2565b61117e565b6040516102fa989796959493929190613c76565b61046361011881565b6040519081526020016102fa565b61048461047f366004613ae4565b611275565b6040516102fa9190613cd2565b600b54610463565b6102d361133e565b6102d3611541565b6102d36104b736600461399d565b611555565b6102d36116ba565b6103316104d2366004613b53565b600860209081526000928352604080842090915290825290205460ff1681565b6000546001600160a01b03165b6040516001600160a01b0390911681526020016102fa565b610331610525366004613a6c565b60009182526006602090815260408084206001600160a01b0393909316845291905290205460ff1690565b61056361055e366004613ae4565b611723565b6040516102fa9190613d5d565b600c54610463565b610331610586366004613b53565b600760209081526000928352604080842090915290825290205460ff1681565b6102d36105b436600461399d565b6118d8565b6104136105c7366004613ae4565b6119b9565b6104636105da366004613ae4565b611c8c565b6102d36105ed366004613ac2565b611da7565b6102d3610600366004613ae4565b611f5a565b6102d3610613366004613e70565b61214f565b6102d3610626366004613ead565b61220d565b6103e0610639366004613ac2565b6123e1565b6102d361064c36600461399d565b612533565b6102d361065f366004613e70565b6126c1565b6102d3610672366004613ef4565b61288a565b6102d3610685366004613f44565b612a16565b610331610698366004613a6c565b600660209081526000928352604080842090915290825290205460ff1681565b6102d36106c636600461399d565b612e4f565b6106de6106d936600461399d565b612ef6565b6040516102fa9190613f9e565b6103316106f9366004613a98565b600560209081526000928352604080842090915290825290205460ff1681565b6102d3610727366004613ae4565b61304e565b61033161073a366004613e70565b8051602081830181018051600a8252928201919093012091525460ff1681565b6102d3610768366004613ae4565b613161565b61033161077b366004613e70565b61319c565b6104ff61078e366004613e70565b80516020818301810180516009825292820191909301209152546001600160a01b031681565b6102d36107c236600461399d565b6131d5565b6102d36107d5366004613ef4565b6132eb565b60008181526003602052604090206005015460ff166108145760405162461bcd60e51b815260040161080b90614053565b60405180910390fd5b6000818152600360205260409020600101546001600160a01b031633146108765760405162461bcd60e51b81526020600482015260166024820152754f6e6c7920617574686f722063616e2064656c65746560501b604482015260640161080b565b600081815260036020526040808220600501805460ff1916905551339183917f1da4a15b15417b54b8b3bea2ca87cfc4c94f0fee7d86702d0dab9e2906e7a7d39190a350565b60036020526000908152604090208054600182015460028301805492936001600160a01b03909216926108ee90614080565b80601f016020809104026020016040519081016040528092919081815260200182805461091a90614080565b80156109675780601f1061093c57610100808354040283529160200191610967565b820191906000526020600020905b81548152906001019060200180831161094a57829003601f168201915b50505050600383015460048401546005909401549293909290915060ff1686565b336001600160a01b038316036109e05760405162461bcd60e51b815260206004820152601760248201527f43616e6e6f74206d656e74696f6e20796f757273656c66000000000000000000604482015260640161080b565b6001600160a01b038216610a065760405162461bcd60e51b815260040161080b906140ba565b610a1382336004846134cc565b5050565b6000828152600e60205260408120905b8154811015610bd05782828281548110610a4357610a436140e3565b90600052602060002090600802016000015403610bbe57336001600160a01b0316828281548110610a7657610a766140e3565b60009182526020909120600260089092020101546001600160a01b031614610ae05760405162461bcd60e51b815260206004820152601960248201527f4f6e6c7920636f6d6d656e7465722063616e2064656c65746500000000000000604482015260640161080b565b818181548110610af257610af26140e3565b600091825260209091206007600890920201015460ff16610b555760405162461bcd60e51b815260206004820152601760248201527f436f6d6d656e7420616c72656164792064656c65746564000000000000000000604482015260640161080b565b6000828281548110610b6957610b696140e3565b60009182526020822060089190910201600701805460ff1916921515929092179091556040513391859187917f6ee692db105027f6f2626ec7348b1fee62bdd8b6aa9c2999ceed2aebd4dc3ee991a450505050565b80610bc88161410f565b915050610a27565b5060405162461bcd60e51b815260206004820152601160248201527010dbdb5b595b9d081b9bdd08199bdd5b99607a1b604482015260640161080b565b600460205260009081526040902080548190610c2890614080565b80601f0160208091040260200160405190810160405280929190818152602001828054610c5490614080565b8015610ca15780601f10610c7657610100808354040283529160200191610ca1565b820191906000526020600020905b815481529060010190602001808311610c8457829003601f168201915b505050505090806001018054610cb690614080565b80601f0160208091040260200160405190810160405280929190818152602001828054610ce290614080565b8015610d2f5780601f10610d0457610100808354040283529160200191610d2f565b820191906000526020600020905b815481529060010190602001808311610d1257829003601f168201915b505050506002830154600384015460048501546005909501549394919390925060ff1686565b6001600160a01b0380831660009081526008602090815260408083209385168352929052205460ff165b92915050565b6060600c805480602002602001604051908101604052809291908181526020018280548015610ddd57602002820191906000526020600020905b81546001600160a01b03168152600190910190602001808311610dbf575b5050505050905090565b336001600160a01b03831603610e3f5760405162461bcd60e51b815260206004820152601860248201527f43616e6e6f74207265706c7920746f20796f757273656c660000000000000000604482015260640161080b565b6001600160a01b038216610e655760405162461bcd60e51b815260040161080b906140ba565b610a1382336005846134cc565b6060600082118015610e85575060328211155b610ec15760405162461bcd60e51b815260206004820152600d60248201526c125b9d985b1a59081b1a5b5a5d609a1b604482015260640161080b565b600b54808410610f05576040805160008082526020820190925290610efc565b610ee961395c565b815260200190600190039081610ee15790505b50915050610d7f565b6000610f118486614128565b905081811115610f1e5750805b6000610f2a868361413b565b905060008167ffffffffffffffff811115610f4757610f47613dcd565b604051908082528060200260200182016040528015610f8057816020015b610f6d61395c565b815260200190600190039081610f655790505b50905060005b828110156110f2576000600b828a610f9f60018a61413b565b610fa9919061413b565b610fb3919061413b565b81548110610fc357610fc36140e3565b600091825260208083209091015480835260038252604092839020835160c0810185528154815260018201546001600160a01b031693810193909352600281018054929550929390929084019161101990614080565b80601f016020809104026020016040519081016040528092919081815260200182805461104590614080565b80156110925780601f1061106757610100808354040283529160200191611092565b820191906000526020600020905b81548152906001019060200180831161107557829003601f168201915b5050509183525050600382015460208201526004820154604082015260059091015460ff16151560609091015283518490849081106110d3576110d36140e3565b60200260200101819052505080806110ea9061410f565b915050610f86565b509695505050505050565b336001600160a01b0383160361114b5760405162461bcd60e51b815260206004820152601360248201527221b0b73737ba103a30b3903cb7bab939b2b63360691b604482015260640161080b565b6001600160a01b0382166111715760405162461bcd60e51b815260040161080b906140ba565b610a1382336006846134cc565b600e602052816000526040600020818154811061119a57600080fd5b600091825260209091206008909102018054600182015460028301546003840180549396509194506001600160a01b031692916111d690614080565b80601f016020809104026020016040519081016040528092919081815260200182805461120290614080565b801561124f5780601f106112245761010080835404028352916020019161124f565b820191906000526020600020905b81548152906001019060200180831161123257829003601f168201915b505050506004830154600584015460068501546007909501549394919390925060ff1688565b6001600160a01b0381166000908152600d60209081526040808320805482518185028101850190935280835260609492939192909184015b828210156113335760008481526020908190206040805160a0810182526002860290920180546001600160a01b0381168452600160a01b90046001600160601b03168385015260019081015460ff808216938501939093526101008104909216151560608401526201000090910463ffffffff16608083015290835290920191016112ad565b505050509050919050565b3360009081526004602052604090206005015460ff166113995760405162461bcd60e51b8152602060048201526016602482015275141c9bd99a5b1948191bd95cc81b9bdd08195e1a5cdd60521b604482015260640161080b565b33600090815260046020526040812080546113b390614080565b80601f01602080910402602001604051908101604052809291908181526020018280546113df90614080565b801561142c5780601f106114015761010080835404028352916020019161142c565b820191906000526020600020905b81548152906001019060200180831161140f57829003601f168201915b50505050509050600061143e82613752565b90506000600a82604051611452919061414e565b908152604051908190036020018120805492151560ff199093169290921790915560099061148190839061414e565b90815260408051918290036020908101832080546001600160a01b031916905582810182526000808452338152600490915220906114bf90826141b8565b5060408051602080820183526000808352338152600490915291909120600101906114ea90826141b8565b503360008181526004602052604090819020600501805460ff19169055517fccb26faf437ce4765f74a65be3d97c42d3022045b58bd819531faca0da50a82190611535908590614278565b60405180910390a25050565b6115496138b5565b61155360006138e2565b565b60008181526003602052604090206005015460ff166115865760405162461bcd60e51b815260040161080b90614053565b600081815260066020908152604080832033845290915290205460ff16156115e05760405162461bcd60e51b815260206004820152600d60248201526c105b1c9958591e481b1a5ad959609a1b604482015260640161080b565b60008181526006602090815260408083203384528252808320805460ff191660011790558383526003909152812060040180549161161d8361410f565b9091555050600081815260036020908152604091829020600401549151918252339183917fdfb8e3561bacb6caea7f0960d425956921b9147a631b6e857325c39911ee7e3b910160405180910390a36000818152600360205260409020600101546001600160a01b031633146116b7576000818152600360205260408120600101546116b7916001600160a01b03909116903390846134cc565b50565b336000908152600d60205260408120905b8154811015610a135760018282815481106116e8576116e86140e3565b906000526020600020906002020160010160016101000a81548160ff021916908315150217905550808061171b9061410f565b9150506116cb565b61175e6040518060c0016040528060608152602001606081526020016000815260200160008152602001600081526020016000151581525090565b6001600160a01b03821660009081526004602052604090819020815160c0810190925280548290829061179090614080565b80601f01602080910402602001604051908101604052809291908181526020018280546117bc90614080565b80156118095780601f106117de57610100808354040283529160200191611809565b820191906000526020600020905b8154815290600101906020018083116117ec57829003601f168201915b5050505050815260200160018201805461182290614080565b80601f016020809104026020016040519081016040528092919081815260200182805461184e90614080565b801561189b5780601f106118705761010080835404028352916020019161189b565b820191906000526020600020905b81548152906001019060200180831161187e57829003601f168201915b505050918352505060028201546020820152600382015460408201526004820154606082015260059091015460ff16151560809091015292915050565b336000908152600d602052604090205481106119265760405162461bcd60e51b815260206004820152600d60248201526c092dcecc2d8d2c840d2dcc8caf609b1b604482015260640161080b565b336000908152600d602052604090208054600191908390811061194b5761194b6140e3565b906000526020600020906002020160010160016101000a81548160ff021916908315150217905550336001600160a01b03167ffd1543c051ad7cc4f93db51224aef2b82a58016c981119ca48b2b02febdd546b826040516119ae91815260200190565b60405180910390a250565b60606000805b600b54811015611a7957836001600160a01b031660036000600b84815481106119ea576119ea6140e3565b600091825260208083209091015483528201929092526040019020600101546001600160a01b0316148015611a54575060036000600b8381548110611a3157611a316140e3565b6000918252602080832090910154835282019290925260400190206005015460ff165b15611a675781611a638161410f565b9250505b80611a718161410f565b9150506119bf565b5060008167ffffffffffffffff811115611a9557611a95613dcd565b604051908082528060200260200182016040528015611ace57816020015b611abb61395c565b815260200190600190039081611ab35790505b50600b549091506000905b8015611c82576000600b611aee60018461413b565b81548110611afe57611afe6140e3565b600091825260208083209091015480835260039091526040909120600101549091506001600160a01b03908116908816148015611b4c575060008181526003602052604090206005015460ff165b15611c6f57600081815260036020908152604091829020825160c0810184528154815260018201546001600160a01b0316928101929092526002810180549293919291840191611b9b90614080565b80601f0160208091040260200160405190810160405280929190818152602001828054611bc790614080565b8015611c145780601f10611be957610100808354040283529160200191611c14565b820191906000526020600020905b815481529060010190602001808311611bf757829003601f168201915b5050509183525050600382015460208201526004820154604082015260059091015460ff1615156060909101528451859085908110611c5557611c556140e3565b60200260200101819052508280611c6b9061410f565b9350505b5080611c7a8161428b565b915050611ad9565b5090949350505050565b6001600160a01b0381166000908152600d60209081526040808320805482518185028101850190935280835284938493929190849084015b82821015611d4a5760008481526020908190206040805160a0810182526002860290920180546001600160a01b0381168452600160a01b90046001600160601b03168385015260019081015460ff808216938501939093526101008104909216151560608401526201000090910463ffffffff1660808301529083529092019101611cc4565b50505050905060005b8151811015611d9e57818181518110611d6e57611d6e6140e3565b602002602001015160600151611d8c5782611d888161410f565b9350505b80611d968161410f565b915050611d53565b50909392505050565b6000818152600f6020908152604080832033845290915290205460ff1615611e015760405162461bcd60e51b815260206004820152600d60248201526c105b1c9958591e481b1a5ad959609a1b604482015260640161080b565b6000818152600f60209081526040808320338085529252808320805460ff1916600117905551909183917ff130ed2efa2f29aaeb0d5dd95532c1cfeef37afc311d3b52ca7666dadb6602a29190a36000828152600e60205260408120905b8154811015611f545782828281548110611e7b57611e7b6140e3565b906000526020600020906008020160000154148015611ebf5750818181548110611ea757611ea76140e3565b600091825260209091206007600890920201015460ff165b15611f4257336001600160a01b0316828281548110611ee057611ee06140e3565b60009182526020909120600260089092020101546001600160a01b031614611f3d57611f3d828281548110611f1757611f176140e3565b60009182526020909120600260089092020101546001600160a01b0316336003876134cc565b611f54565b80611f4c8161410f565b915050611e5f565b50505050565b336001600160a01b03821603611fab5760405162461bcd60e51b815260206004820152601660248201527521b0b73737ba103337b63637bb903cb7bab939b2b63360511b604482015260640161080b565b3360009081526008602090815260408083206001600160a01b038516845290915290205460ff16156120135760405162461bcd60e51b8152602060048201526011602482015270416c726561647920666f6c6c6f77696e6760781b604482015260640161080b565b3360008181526008602090815260408083206001600160a01b03861684528252808320805460ff1916600117905592825260049052206005015460ff1661207257336000908152600460205260409020600501805460ff191660011790555b6001600160a01b03811660009081526004602052604090206005015460ff166120bc576001600160a01b0381166000908152600460205260409020600501805460ff191660011790555b3360009081526004602081905260408220018054916120da8361410f565b90915550506001600160a01b03811660009081526004602052604081206003018054916121068361410f565b90915550506040516001600160a01b0382169033907f30b3435b456f45779984ddfa456115ee4c20d9e446979b1b9e90dbb7e12b90b790600090a36116b78133600160006134cc565b60008151116121705760405162461bcd60e51b815260040161080b906142a2565b3360009081526004602052604090206005015460ff166121d25760405162461bcd60e51b815260206004820152601860248201527f50726f66696c6520726571756972656420746f20636861740000000000000000604482015260640161080b565b336001600160a01b03167f4703b424e970cd3b80e904dfcf84a1532ffa38dba9527c7678eb6e64066396a182426040516119ae9291906142d9565b60008281526003602052604090206005015460ff1661223e5760405162461bcd60e51b815260040161080b90614053565b600081511161225f5760405162461bcd60e51b815260040161080b906142a2565b6010805490600061226f8361410f565b90915550506040805161010081018252601054815260208082018581523383850190815260608401868152426080860152600060a0860181905260c08601819052600160e08701819052898252600e865296812080548089018255908252949020855160089095020193845591519483019490945592516002820180546001600160a01b0319166001600160a01b03909216919091179055915190918291600382019061231c90826141b8565b506080820151600482015560a0820151600582015560c0820151600682015560e0909101516007909101805460ff1916911515919091179055604051339084907fceaa40d9d02173d6fae1f576cc1baff7cec35a842086153314079c405401a9889061238b90869042906142d9565b60405180910390a36000838152600360205260409020600101546001600160a01b031633146123dc576000838152600360205260409020600101546123dc906001600160a01b0316336002866134cc565b505050565b600c5460609083106124355760405162461bcd60e51b815260206004820152601960248201527f537461727420696e646578206f7574206f6620626f756e647300000000000000604482015260640161080b565b60006124418385614128565b600c549091508111156124535750600c545b600061245f858361413b565b905060008167ffffffffffffffff81111561247c5761247c613dcd565b6040519080825280602002602001820160405280156124a5578160200160208202803683370190505b50905060005b8281101561252957600c6124bf8289614128565b815481106124cf576124cf6140e3565b9060005260206000200160009054906101000a90046001600160a01b03168282815181106124ff576124ff6140e3565b6001600160a01b0390921660209283029190910190910152806125218161410f565b9150506124ab565b5095945050505050565b336000908152600d602052604090208054821061254e575050565b805460009061255e90849061413b565b905060005b81811015611f545760005b835461257c9060019061413b565b811015612674578361258f826001614128565b8154811061259f5761259f6140e3565b90600052602060002090600202018482815481106125bf576125bf6140e3565b60009182526020909120825460029092020180546001600160a01b039092166001600160a01b0319909216821781558254600160a01b908190046001600160601b03160290911781556001918201805492909101805460ff93841660ff19821681178355835461ffff19909216176101009182900490941615150292909217808355905465ffffffff000019909116620100009182900463ffffffff169091021790558061266c8161410f565b91505061256e565b5082805480612685576126856142fb565b600082815260208120600260001990930192830201908155600101805465ffffffffffff191690559055806126b98161410f565b915050612563565b6126c9613932565b60008151116126ea5760405162461bcd60e51b815260040161080b906142a2565b600280549060006126fa8361410f565b90915550506040805160c08101825260028054808352336020808501918252848601878152426060870152600060808701819052600160a08801819052948152600390925295902084518155905191810180546001600160a01b0319166001600160a01b039093169290921790915592519192919082019061277c90826141b8565b5060608201516003820155608082015160048083019190915560a0909201516005918201805460ff1916911515919091179055600254600b8054600181019091557f0175b7a638427703f0dbe7bb9bbf987a2551717b34e79f33b5b1008d1fa01db901553360009081526020929092526040909120015460ff1661281857336000908152600460205260409020600501805460ff191660011790555b3360009081526004602052604081206002018054916128368361410f565b9190505550336001600160a01b03166002547f285db98a4632176385795ddf0d2b67cef1a21f47eb2f5d06f786ab6b5147e20083426040516128799291906142d9565b60405180910390a36116b760018055565b60008381526003602052604090206005015460ff166128bb5760405162461bcd60e51b815260040161080b90614053565b60008151116128dc5760405162461bcd60e51b815260040161080b906142a2565b601080549060006128ec8361410f565b90915550506040805161010081018252601054815260208082018681523383850190815260608401868152426080860152600060a0860181905260c08601899052600160e087018190528a8252600e865296812080548089018255908252949020855160089095020193845591519483019490945592516002820180546001600160a01b0319166001600160a01b03909216919091179055915190918291600382019061299990826141b8565b506080820151600482015560a0820151600582015560c0820151600682015560e0909101516007909101805460ff1916911515919091179055604051339085907fceaa40d9d02173d6fae1f576cc1baff7cec35a842086153314079c405401a98890612a0890869042906142d9565b60405180910390a350505050565b6000825111612a675760405162461bcd60e51b815260206004820152601860248201527f557365726e616d652063616e6e6f7420626520656d7074790000000000000000604482015260640161080b565b601e82511115612aad5760405162461bcd60e51b8152602060048201526011602482015270557365726e616d6520746f6f206c6f6e6760781b604482015260640161080b565b6000612ab883613752565b3360009081526004602052604090206005015490915060ff1615612bf0573360009081526004602052604081208054612b789190612af590614080565b80601f0160208091040260200160405190810160405280929190818152602001828054612b2190614080565b8015612b6e5780601f10612b4357610100808354040283529160200191612b6e565b820191906000526020600020905b815481529060010190602001808311612b5157829003601f168201915b5050505050613752565b90508180519060200120818051906020012014612bee576000600a82604051612ba1919061414e565b908152604051908190036020018120805492151560ff1990931692909217909155600990612bd090839061414e565b90815260405190819003602001902080546001600160a01b03191690555b505b600a81604051612c00919061414e565b9081526040519081900360200190205460ff161580612c4f5750336001600160a01b0316600982604051612c34919061414e565b908152604051908190036020019020546001600160a01b0316145b612c945760405162461bcd60e51b81526020600482015260166024820152752ab9b2b93730b6b29030b63932b0b23c903a30b5b2b760511b604482015260640161080b565b6001600a82604051612ca6919061414e565b908152604051908190036020018120805492151560ff19909316929092179091553390600990612cd790849061414e565b908152604080516020928190038301902080546001600160a01b0319166001600160a01b0394909416939093179092553360009081526004909152206005015460ff16158015612d8157336000818152600460205260408120600501805460ff19166001908117909155600c805491820181559091527fdf6966c971051c3d54ec59162606531493a51404a002842f56009d7e5cf4a8c70180546001600160a01b03191690911790555b336000908152600460205260409020612d9a85826141b8565b50336000908152600460205260409020600101612db784826141b8565b508015612e0657336001600160a01b03167f6b4494367229a908b0585b361e2871a21f8eb4cd852c02f55c9e06989f4bb2aa8585604051612df9929190614311565b60405180910390a2611f54565b336001600160a01b03167f6eb3a1c6a4675ba92d44e090515b1ceea358f26565d2854df0c99c3f5eaf98508585604051612e41929190614311565b60405180910390a250505050565b6000818152600f6020908152604080832033845290915290205460ff16612ea85760405162461bcd60e51b815260206004820152600d60248201526c139bdd081b1a5ad959081e595d609a1b604482015260640161080b565b6000818152600f60209081526040808320338085529252808320805460ff1916905551909183917fca9a5541c0b22886f920ba8e818181b95e96be9b85a0d8d6ee60170ac253b3fa9190a350565b6060600e6000838152602001908152602001600020805480602002602001604051908101604052809291908181526020016000905b828210156113335760008481526020908190206040805161010081018252600886029092018054835260018101549383019390935260028301546001600160a01b031690820152600382018054919291606084019190612f8a90614080565b80601f0160208091040260200160405190810160405280929190818152602001828054612fb690614080565b80156130035780601f10612fd857610100808354040283529160200191613003565b820191906000526020600020905b815481529060010190602001808311612fe657829003601f168201915b50505091835250506004820154602080830191909152600583015460408301526006830154606083015260079092015460ff1615156080909101529082526001929092019101612f2b565b3360009081526008602090815260408083206001600160a01b038516845290915290205460ff166130b15760405162461bcd60e51b815260206004820152600d60248201526c4e6f7420666f6c6c6f77696e6760981b604482015260640161080b565b3360008181526008602090815260408083206001600160a01b03861684528252808320805460ff191690559282526004908190529181209091018054916130f78361428b565b90915550506001600160a01b03811660009081526004602052604081206003018054916131238361428b565b90915550506040516001600160a01b0382169033907fe7339343c6edff57f2d15278c419523844cea30ae5ee2146aa22cb9e3107dab790600090a350565b6131696138b5565b6001600160a01b03811661319357604051631e4fbdf760e01b81526000600482015260240161080b565b6116b7816138e2565b6000806131a883613752565b9050600a816040516131ba919061414e565b9081526040519081900360200190205460ff16159392505050565b60008181526003602052604090206005015460ff166132065760405162461bcd60e51b815260040161080b90614053565b600081815260066020908152604080832033845290915290205460ff1661325f5760405162461bcd60e51b815260206004820152600d60248201526c139bdd081b1a5ad959081e595d609a1b604482015260640161080b565b60008181526006602090815260408083203384528252808320805460ff19169055838352600390915281206004018054916132998361428b565b9091555050600081815260036020908152604091829020600401549151918252339183917ff82778657f73816e36e0eec83627a423a37071dfb38bb1dab6a21eb62cc2ff65910160405180910390a350565b600081511161330c5760405162461bcd60e51b815260040161080b906142a2565b6000838152600e60205260408120905b8154811015610bd05783828281548110613338576133386140e3565b906000526020600020906008020160000154036134ba57336001600160a01b031682828154811061336b5761336b6140e3565b60009182526020909120600260089092020101546001600160a01b0316146133d55760405162461bcd60e51b815260206004820152601760248201527f4f6e6c7920636f6d6d656e7465722063616e2065646974000000000000000000604482015260640161080b565b8181815481106133e7576133e76140e3565b600091825260209091206007600890920201015460ff1661343f5760405162461bcd60e51b815260206004820152601260248201527110dbdb5b595b9d081a5cc819195b195d195960721b604482015260640161080b565b82828281548110613452576134526140e3565b9060005260206000209060080201600301908161346f91906141b8565b50336001600160a01b031684867f87091923e4fcadbd5c83a570516b1ae885c66ca3e926685ef6287888ab95a61c866040516134ab9190614278565b60405180910390a45050505050565b806134c48161410f565b91505061331c565b6001600160a01b038085166000908152600d60209081526040808320815160a08101835288861681526001600160601b0342811682860190815260ff808b1695840186815260608086018a815263ffffffff808e1660808901908152895460018181018c559a8e529b909c2097519551909616600160a01b0294909b16939093176002909802909401968755925195909301805497519651909116620100000265ffffffff0000199615156101000261ffff1990981695909216949094179590951793909316939093179055906135be57506040805180820190915260048152636c696b6560e01b60208201526136fc565b60001960ff8416016135ed5750604080518082019091526006815265666f6c6c6f7760d01b60208201526136fc565b60011960ff84160161361d575060408051808201909152600781526618dbdb5b595b9d60ca1b60208201526136fc565b60021960ff841601613652575060408051808201909152600c81526b636f6d6d656e745f6c696b6560a01b60208201526136fc565b60031960ff841601613682575060408051808201909152600781526636b2b73a34b7b760c91b60208201526136fc565b60041960ff8416016136b057506040805180820190915260058152647265706c7960d81b60208201526136fc565b60051960ff8416016136dc575060408051808201909152600381526274616760e81b60208201526136fc565b506040805180820190915260078152663ab735b737bbb760c91b60208201525b836001600160a01b0316856001600160a01b03167f6e06286eb7b0afb28b65a4c8977ed1ad2d10c3895707cdba90de6ba20f56c00d8385426040516137439392919061433f565b60405180910390a35050505050565b606060008290506000815167ffffffffffffffff81111561377557613775613dcd565b6040519080825280601f01601f19166020018201604052801561379f576020820181803683370190505b50905060005b82518110156138ad5760418382815181106137c2576137c26140e3565b016020015160f81c108015906137f25750605a8382815181106137e7576137e76140e3565b016020015160f81c11155b1561385457828181518110613809576138096140e3565b602001015160f81c60f81b60f81c60206138239190614364565b60f81b828281518110613838576138386140e3565b60200101906001600160f81b031916908160001a90535061389b565b828181518110613866576138666140e3565b602001015160f81c60f81b828281518110613883576138836140e3565b60200101906001600160f81b031916908160001a9053505b806138a58161410f565b9150506137a5565b509392505050565b6000546001600160a01b031633146115535760405163118cdaa760e01b815233600482015260240161080b565b600080546001600160a01b038381166001600160a01b0319831681178455604051919092169283917f8be0079c531659141344cd1fd0a4f28419497f9722a3daafe3b4186f6b6457e09190a35050565b60026001540361395557604051633ee5aeb560e01b815260040160405180910390fd5b6002600155565b6040518060c001604052806000815260200160006001600160a01b031681526020016060815260200160008152602001600081526020016000151581525090565b6000602082840312156139af57600080fd5b5035919050565b60005b838110156139d15781810151838201526020016139b9565b50506000910152565b600081518084526139f28160208601602086016139b6565b601f01601f19169290920160200192915050565b8681526001600160a01b038616602082015260c060408201819052600090613a30908301876139da565b6060830195909552506080810192909252151560a0909101529392505050565b80356001600160a01b0381168114613a6757600080fd5b919050565b60008060408385031215613a7f57600080fd5b82359150613a8f60208401613a50565b90509250929050565b60008060408385031215613aab57600080fd5b613ab483613a50565b946020939093013593505050565b60008060408385031215613ad557600080fd5b50508035926020909101359150565b600060208284031215613af657600080fd5b613aff82613a50565b9392505050565b60c081526000613b1960c08301896139da565b8281036020840152613b2b81896139da565b91505085604083015284606083015283608083015282151560a0830152979650505050505050565b60008060408385031215613b6657600080fd5b613b6f83613a50565b9150613a8f60208401613a50565b6020808252825182820181905260009190848201906040850190845b81811015613bbe5783516001600160a01b031683529284019291840191600101613b99565b50909695505050505050565b60006020808301818452808551808352604092508286019150828160051b87010184880160005b83811015613c6857888303603f19018552815180518452878101516001600160a01b0316888501528681015160c088860181905290613c32828701826139da565b606084810151908801526080808501519088015260a0938401511515939096019290925250509386019390860190600101613bf1565b509098975050505050505050565b888152602081018890526001600160a01b038716604082015261010060608201819052600090613ca8838201896139da565b9150508560808301528460a08301528360c083015282151560e08301529998505050505050505050565b602080825282518282018190526000919060409081850190868401855b82811015613d5057815180516001600160a01b03168552868101516001600160601b0316878601528581015160ff168686015260608082015115159086015260809081015163ffffffff169085015260a09093019290850190600101613cef565b5091979650505050505050565b602081526000825160c06020840152613d7960e08401826139da565b90506020840151601f19848303016040850152613d9682826139da565b9150506040840151606084015260608401516080840152608084015160a084015260a0840151151560c08401528091505092915050565b634e487b7160e01b600052604160045260246000fd5b600082601f830112613df457600080fd5b813567ffffffffffffffff80821115613e0f57613e0f613dcd565b604051601f8301601f19908116603f01168101908282118183101715613e3757613e37613dcd565b81604052838152866020858801011115613e5057600080fd5b836020870160208301376000602085830101528094505050505092915050565b600060208284031215613e8257600080fd5b813567ffffffffffffffff811115613e9957600080fd5b613ea584828501613de3565b949350505050565b60008060408385031215613ec057600080fd5b82359150602083013567ffffffffffffffff811115613ede57600080fd5b613eea85828601613de3565b9150509250929050565b600080600060608486031215613f0957600080fd5b8335925060208401359150604084013567ffffffffffffffff811115613f2e57600080fd5b613f3a86828701613de3565b9150509250925092565b60008060408385031215613f5757600080fd5b823567ffffffffffffffff80821115613f6f57600080fd5b613f7b86838701613de3565b93506020850135915080821115613f9157600080fd5b50613eea85828601613de3565b60006020808301818452808551808352604092508286019150828160051b87010184880160005b83811015613c6857888303603f190185528151805184528781015188850152868101516001600160a01b0316878501526060808201516101008287018190529190614012838801826139da565b6080858101519089015260a0808601519089015260c0808601519089015260e094850151151594909701939093525050509386019390860190600101613fc5565b602080825260139082015272141bdcdd08191bd95cc81b9bdd08195e1a5cdd606a1b604082015260600190565b600181811c9082168061409457607f821691505b6020821081036140b457634e487b7160e01b600052602260045260246000fd5b50919050565b6020808252600f908201526e496e76616c6964206164647265737360881b604082015260600190565b634e487b7160e01b600052603260045260246000fd5b634e487b7160e01b600052601160045260246000fd5b600060018201614121576141216140f9565b5060010190565b80820180821115610d7f57610d7f6140f9565b81810381811115610d7f57610d7f6140f9565b600082516141608184602087016139b6565b9190910192915050565b601f8211156123dc57600081815260208120601f850160051c810160208610156141915750805b601f850160051c820191505b818110156141b05782815560010161419d565b505050505050565b815167ffffffffffffffff8111156141d2576141d2613dcd565b6141e6816141e08454614080565b8461416a565b602080601f83116001811461421b57600084156142035750858301515b600019600386901b1c1916600185901b1785556141b0565b600085815260208120601f198616915b8281101561424a5788860151825594840194600190910190840161422b565b50858210156142685787850151600019600388901b60f8161c191681555b5050505050600190811b01905550565b602081526000613aff60208301846139da565b60008161429a5761429a6140f9565b506000190190565b60208082526019908201527f4950465320686173682063616e6e6f7420626520656d70747900000000000000604082015260600190565b6040815260006142ec60408301856139da565b90508260208301529392505050565b634e487b7160e01b600052603160045260246000fd5b60408152600061432460408301856139da565b828103602084015261433681856139da565b95945050505050565b60608152600061435260608301866139da565b60208301949094525060400152919050565b60ff8181168382160190811115610d7f57610d7f6140f956fea2646970667358221220e7599ac18da5a1e1530dfca65a600cd92969aaa131b9a150b9ee8eb75dd2a41164736f6c63430008140033",
  "linkReferences": {},
  "deployedLinkReferences": {}
}