{
  "_format": "hh-sol-artifact-1",
  "contractName": "SocialFeed",
  "sourceName": "contracts/SocialFeed.sol",
  "abi": [
    {
      "inputs": [],
      "stateMutability": "nonpayable",
      "type": "constructor"
    },
    {
      "inputs": [
        {
          "internalType": "address",
          "name": "owner",
          "type": "address"
        }
      ],
      "name": "OwnableInvalidOwner",
      "type": "error"
    },
    {
      "inputs": [
        {
          "internalType": "address",
          "name": "account",
          "type": "address"
        }
      ],
      "name": "OwnableUnauthorizedAccount",
      "type": "error"
    },
    {
      "inputs": [],
      "name": "ReentrancyGuardReentrantCall",
      "type": "error"
    },
    {
      "anonymous": false,
      "inputs": [
        {
          "indexed": true,
          "internalType": "address",
          "name": "sender",
          "type": "address"
        },
        {
          "indexed": false,
          "internalType": "string",
          "name": "ipfsHash",
          "type": "string"
        },
        {
          "indexed": false,
          "internalType": "uint256",
          "name": "timestamp",
          "type": "uint256"
        }
      ],
      "name": "ChatMessageSent",
      "type": "event"
    },
    {
      "anonymous": false,
      "inputs": [
        {
          "indexed": true,
          "internalType": "uint256",
          "name": "postId",
          "type": "uint256"
        },
        {
          "indexed": true,
          "internalType": "address",
          "name": "commenter",
          "type": "address"
        },
        {
          "indexed": false,
          "internalType": "string",
          "name": "ipfsHash",
          "type": "string"
        },
        {
          "indexed": false,
          "internalType": "uint256",
          "name": "timestamp",
          "type": "uint256"
        }
      ],
      "name": "CommentAdded",
      "type": "event"
    },
    {
      "anonymous": false,
      "inputs": [
        {
          "indexed": true,
          "internalType": "uint256",
          "name": "postId",
          "type": "uint256"
        },
        {
          "indexed": true,
          "internalType": "uint256",
          "name": "commentId",
          "type": "uint256"
        },
        {
          "indexed": true,
          "internalType": "address",
          "name": "commenter",
          "type": "address"
        }
      ],
      "name": "CommentDeleted",
      "type": "event"
    },
    {
      "anonymous": false,
      "inputs": [
        {
          "indexed": true,
          "internalType": "uint256",
          "name": "postId",
          "type": "uint256"
        },
        {
          "indexed": true,
          "internalType": "uint256",
          "name": "commentId",
          "type": "uint256"
        },
        {
          "indexed": true,
          "internalType": "address",
          "name": "commenter",
          "type": "address"
        },
        {
          "indexed": false,
          "internalType": "string",
          "name": "newIpfsHash",
          "type": "string"
        }
      ],
      "name": "CommentEdited",
      "type": "event"
    },
    {
      "anonymous": false,
      "inputs": [
        {
          "indexed": true,
          "internalType": "uint256",
          "name": "commentId",
          "type": "uint256"
        },
        {
          "indexed": true,
          "internalType": "address",
          "name": "liker",
          "type": "address"
        }
      ],
      "name": "CommentLiked",
      "type": "event"
    },
    {
      "anonymous": false,
      "inputs": [
        {
          "indexed": true,
          "internalType": "uint256",
          "name": "commentId",
          "type": "uint256"
        },
        {
          "indexed": true,
          "internalType": "address",
          "name": "unliker",
          "type": "address"
        }
      ],
      "name": "CommentUnliked",
      "type": "event"
    },
    {
      "anonymous": false,
      "inputs": [
        {
          "indexed": true,
          "internalType": "address",
          "name": "recipient",
          "type": "address"
        },
        {
          "indexed": true,
          "internalType": "address",
          "name": "sender",
          "type": "address"
        },
        {
          "indexed": false,
          "internalType": "string",
          "name": "notificationType",
          "type": "string"
        },
        {
          "indexed": false,
          "internalType": "uint256",
          "name": "relatedId",
          "type": "uint256"
        },
        {
          "indexed": false,
          "internalType": "uint256",
          "name": "timestamp",
          "type": "uint256"
        }
      ],
      "name": "NotificationCreated",
      "type": "event"
    },
    {
      "anonymous": false,
      "inputs": [
        {
          "indexed": true,
          "internalType": "address",
          "name": "user",
          "type": "address"
        },
        {
          "indexed": false,
          "internalType": "uint256",
          "name": "notificationId",
          "type": "uint256"
        }
      ],
      "name": "NotificationRead",
      "type": "event"
    },
    {
      "anonymous": false,
      "inputs": [
        {
          "indexed": true,
          "internalType": "address",
          "name": "previousOwner",
          "type": "address"
        },
        {
          "indexed": true,
          "internalType": "address",
          "name": "newOwner",
          "type": "address"
        }
      ],
      "name": "OwnershipTransferred",
      "type": "event"
    },
    {
      "anonymous": false,
      "inputs": [
        {
          "indexed": true,
          "internalType": "uint256",
          "name": "postId",
          "type": "uint256"
        },
        {
          "indexed": true,
          "internalType": "address",
          "name": "author",
          "type": "address"
        },
        {
          "indexed": false,
          "internalType": "string",
          "name": "ipfsHash",
          "type": "string"
        },
        {
          "indexed": false,
          "internalType": "uint256",
          "name": "timestamp",
          "type": "uint256"
        }
      ],
      "name": "PostCreated",
      "type": "event"
    },
    {
      "anonymous": false,
      "inputs": [
        {
          "indexed": true,
          "internalType": "uint256",
          "name": "postId",
          "type": "uint256"
        },
        {
          "indexed": true,
          "internalType": "address",
          "name": "author",
          "type": "address"
        }
      ],
      "name": "PostDeleted",
      "type": "event"
    },
    {
      "anonymous": false,
      "inputs": [
        {
          "indexed": true,
          "internalType": "uint256",
          "name": "postId",
          "type": "uint256"
        },
        {
          "indexed": true,
          "internalType": "address",
          "name": "liker",
          "type": "address"
        },
        {
          "indexed": false,
          "internalType": "uint256",
          "name": "newLikeCount",
          "type": "uint256"
        }
      ],
      "name": "PostLiked",
      "type": "event"
    },
    {
      "anonymous": false,
      "inputs": [
        {
          "indexed": true,
          "internalType": "uint256",
          "name": "postId",
          "type": "uint256"
        },
        {
          "indexed": true,
          "internalType": "address",
          "name": "unliker",
          "type": "address"
        },
        {
          "indexed": false,
          "internalType": "uint256",
          "name": "newLikeCount",
          "type": "uint256"
        }
      ],
      "name": "PostUnliked",
      "type": "event"
    },
    {
      "anonymous": false,
      "inputs": [
        {
          "indexed": true,
          "internalType": "address",
          "name": "user",
          "type": "address"
        },
        {
          "indexed": false,
          "internalType": "string",
          "name": "displayName",
          "type": "string"
        },
        {
          "indexed": false,
          "internalType": "string",
          "name": "profileIpfsHash",
          "type": "string"
        }
      ],
      "name": "ProfileCreated",
      "type": "event"
    },
    {
      "anonymous": false,
      "inputs": [
        {
          "indexed": true,
          "internalType": "address",
          "name": "user",
          "type": "address"
        },
        {
          "indexed": false,
          "internalType": "string",
          "name": "displayName",
          "type": "string"
        }
      ],
      "name": "ProfileDeleted",
      "type": "event"
    },
    {
      "anonymous": false,
      "inputs": [
        {
          "indexed": true,
          "internalType": "address",
          "name": "user",
          "type": "address"
        },
        {
          "indexed": false,
          "internalType": "string",
          "name": "displayName",
          "type": "string"
        },
        {
          "indexed": false,
          "internalType": "string",
          "name": "profileIpfsHash",
          "type": "string"
        }
      ],
      "name": "ProfileUpdated",
      "type": "event"
    },
    {
      "anonymous": false,
      "inputs": [
        {
          "indexed": true,
          "internalType": "address",
          "name": "follower",
          "type": "address"
        },
        {
          "indexed": true,
          "internalType": "address",
          "name": "following",
          "type": "address"
        }
      ],
      "name": "UserFollowed",
      "type": "event"
    },
    {
      "anonymous": false,
      "inputs": [
        {
          "indexed": true,
          "internalType": "address",
          "name": "follower",
          "type": "address"
        },
        {
          "indexed": true,
          "internalType": "address",
          "name": "unfollowing",
          "type": "address"
        }
      ],
      "name": "UserUnfollowed",
      "type": "event"
    },
    {
      "inputs": [],
      "name": "MAX_POST_LENGTH",
      "outputs": [
        {
          "internalType": "uint256",
          "name": "",
          "type": "uint256"
        }
      ],
      "stateMutability": "view",
      "type": "function"
    },
    {
      "inputs": [
        {
          "internalType": "uint256",
          "name": "_postId",
          "type": "uint256"
        },
        {
          "internalType": "string",
          "name": "_ipfsHash",
          "type": "string"
        }
      ],
      "name": "addComment",
      "outputs": [],
      "stateMutability": "nonpayable",
      "type": "function"
    },
    {
      "inputs": [
        {
          "internalType": "uint256",
          "name": "_postId",
          "type": "uint256"
        },
        {
          "internalType": "uint256",
          "name": "_replyToCommentId",
          "type": "uint256"
        },
        {
          "internalType": "string",
          "name": "_ipfsHash",
          "type": "string"
        }
      ],
      "name": "addCommentReply",
      "outputs": [],
      "stateMutability": "nonpayable",
      "type": "function"
    },
    {
      "inputs": [
        {
          "internalType": "address",
          "name": "_follower",
          "type": "address"
        },
        {
          "internalType": "address",
          "name": "_following",
          "type": "address"
        }
      ],
      "name": "checkIsFollowing",
      "outputs": [
        {
          "internalType": "bool",
          "name": "",
          "type": "bool"
        }
      ],
      "stateMutability": "view",
      "type": "function"
    },
    {
      "inputs": [
        {
          "internalType": "uint256",
          "name": "_keepCount",
          "type": "uint256"
        }
      ],
      "name": "clearOldNotifications",
      "outputs": [],
      "stateMutability": "nonpayable",
      "type": "function"
    },
    {
      "inputs": [
        {
          "internalType": "uint256",
          "name": "",
          "type": "uint256"
        },
        {
          "internalType": "address",
          "name": "",
          "type": "address"
        }
      ],
      "name": "commentLikes",
      "outputs": [
        {
          "internalType": "bool",
          "name": "",
          "type": "bool"
        }
      ],
      "stateMutability": "view",
      "type": "function"
    },
    {
      "inputs": [
        {
          "internalType": "string",
          "name": "_ipfsHash",
          "type": "string"
        }
      ],
      "name": "createPost",
      "outputs": [],
      "stateMutability": "nonpayable",
      "type": "function"
    },
    {
      "inputs": [
        {
          "internalType": "uint256",
          "name": "_postId",
          "type": "uint256"
        },
        {
          "internalType": "uint256",
          "name": "_commentId",
          "type": "uint256"
        }
      ],
      "name": "deleteComment",
      "outputs": [],
      "stateMutability": "nonpayable",
      "type": "function"
    },
    {
      "inputs": [
        {
          "internalType": "uint256",
          "name": "_postId",
          "type": "uint256"
        }
      ],
      "name": "deletePost",
      "outputs": [],
      "stateMutability": "nonpayable",
      "type": "function"
    },
    {
      "inputs": [],
      "name": "deleteProfile",
      "outputs": [],
      "stateMutability": "nonpayable",
      "type": "function"
    },
    {
      "inputs": [
        {
          "internalType": "uint256",
          "name": "_postId",
          "type": "uint256"
        },
        {
          "internalType": "uint256",
          "name": "_commentId",
          "type": "uint256"
        },
        {
          "internalType": "string",
          "name": "_newIpfsHash",
          "type": "string"
        }
      ],
      "name": "editComment",
      "outputs": [],
      "stateMutability": "nonpayable",
      "type": "function"
    },
    {
      "inputs": [
        {
          "internalType": "address",
          "name": "_userToFollow",
          "type": "address"
        }
      ],
      "name": "followUser",
      "outputs": [],
      "stateMutability": "nonpayable",
      "type": "function"
    },
    {
      "inputs": [],
      "name": "getAllRegisteredUsers",
      "outputs": [
        {
          "internalType": "address[]",
          "name": "",
          "type": "address[]"
        }
      ],
      "stateMutability": "view",
      "type": "function"
    },
    {
      "inputs": [
        {
          "internalType": "uint256",
          "name": "_postId",
          "type": "uint256"
        }
      ],
      "name": "getPostComments",
      "outputs": [
        {
          "components": [
            {
              "internalType": "uint256",
              "name": "id",
              "type": "uint256"
            },
            {
              "internalType": "uint256",
              "name": "postId",
              "type": "uint256"
            },
            {
              "internalType": "address",
              "name": "commenter",
              "type": "address"
            },
            {
              "internalType": "string",
              "name": "ipfsHash",
              "type": "string"
            },
            {
              "internalType": "uint256",
              "name": "timestamp",
              "type": "uint256"
            },
            {
              "internalType": "uint256",
              "name": "likes",
              "type": "uint256"
            },
            {
              "internalType": "uint256",
              "name": "replyTo",
              "type": "uint256"
            },
            {
              "internalType": "bool",
              "name": "isActive",
              "type": "bool"
            }
          ],
          "internalType": "struct SocialFeed.Comment[]",
          "name": "",
          "type": "tuple[]"
        }
      ],
      "stateMutability": "view",
      "type": "function"
    },
    {
      "inputs": [
        {
          "internalType": "uint256",
          "name": "_offset",
          "type": "uint256"
        },
        {
          "internalType": "uint256",
          "name": "_limit",
          "type": "uint256"
        }
      ],
      "name": "getRecentPosts",
      "outputs": [
        {
          "components": [
            {
              "internalType": "uint256",
              "name": "id",
              "type": "uint256"
            },
            {
              "internalType": "address",
              "name": "author",
              "type": "address"
            },
            {
              "internalType": "string",
              "name": "ipfsHash",
              "type": "string"
            },
            {
              "internalType": "uint256",
              "name": "timestamp",
              "type": "uint256"
            },
            {
              "internalType": "uint256",
              "name": "likes",
              "type": "uint256"
            },
            {
              "internalType": "bool",
              "name": "isActive",
              "type": "bool"
            }
          ],
          "internalType": "struct SocialFeed.Post[]",
          "name": "",
          "type": "tuple[]"
        }
      ],
      "stateMutability": "view",
      "type": "function"
    },
    {
      "inputs": [],
      "name": "getRegisteredUsersCount",
      "outputs": [
        {
          "internalType": "uint256",
          "name": "",
          "type": "uint256"
        }
      ],
      "stateMutability": "view",
      "type": "function"
    },
    {
      "inputs": [
        {
          "internalType": "uint256",
          "name": "_start",
          "type": "uint256"
        },
        {
          "internalType": "uint256",
          "name": "_limit",
          "type": "uint256"
        }
      ],
      "name": "getRegisteredUsersPaginated",
      "outputs": [
        {
          "internalType": "address[]",
          "name": "",
          "type": "address[]"
        }
      ],
      "stateMutability": "view",
      "type": "function"
    },
    {
      "inputs": [],
      "name": "getTotalPosts",
      "outputs": [
        {
          "internalType": "uint256",
          "name": "",
          "type": "uint256"
        }
      ],
      "stateMutability": "view",
      "type": "function"
    },
    {
      "inputs": [
        {
          "internalType": "address",
          "name": "_user",
          "type": "address"
        }
      ],
      "name": "getUnreadNotificationCount",
      "outputs": [
        {
          "internalType": "uint256",
          "name": "",
          "type": "uint256"
        }
      ],
      "stateMutability": "view",
      "type": "function"
    },
    {
      "inputs": [
        {
          "internalType": "address",
          "name": "_user",
          "type": "address"
        }
      ],
      "name": "getUserNotifications",
      "outputs": [
        {
          "components": [
            {
              "internalType": "address",
              "name": "sender",
              "type": "address"
            },
            {
              "internalType": "uint96",
              "name": "timestamp",
              "type": "uint96"
            },
            {
              "internalType": "uint8",
              "name": "notificationType",
              "type": "uint8"
            },
            {
              "internalType": "bool",
              "name": "read",
              "type": "bool"
            },
            {
              "internalType": "uint32",
              "name": "relatedId",
              "type": "uint32"
            }
          ],
          "internalType": "struct SocialFeed.Notification[]",
          "name": "",
          "type": "tuple[]"
        }
      ],
      "stateMutability": "view",
      "type": "function"
    },
    {
      "inputs": [
        {
          "internalType": "address",
          "name": "_user",
          "type": "address"
        }
      ],
      "name": "getUserPosts",
      "outputs": [
        {
          "components": [
            {
              "internalType": "uint256",
              "name": "id",
              "type": "uint256"
            },
            {
              "internalType": "address",
              "name": "author",
              "type": "address"
            },
            {
              "internalType": "string",
              "name": "ipfsHash",
              "type": "string"
            },
            {
              "internalType": "uint256",
              "name": "timestamp",
              "type": "uint256"
            },
            {
              "internalType": "uint256",
              "name": "likes",
              "type": "uint256"
            },
            {
              "internalType": "bool",
              "name": "isActive",
              "type": "bool"
            }
          ],
          "internalType": "struct SocialFeed.Post[]",
          "name": "",
          "type": "tuple[]"
        }
      ],
      "stateMutability": "view",
      "type": "function"
    },
    {
      "inputs": [
        {
          "internalType": "address",
          "name": "_user",
          "type": "address"
        }
      ],
      "name": "getUserProfile",
      "outputs": [
        {
          "components": [
            {
              "internalType": "string",
              "name": "displayName",
              "type": "string"
            },
            {
              "internalType": "string",
              "name": "profileIpfsHash",
              "type": "string"
            },
            {
              "internalType": "uint256",
              "name": "postCount",
              "type": "uint256"
            },
            {
              "internalType": "uint256",
              "name": "followerCount",
              "type": "uint256"
            },
            {
              "internalType": "uint256",
              "name": "followingCount",
              "type": "uint256"
            },
            {
              "internalType": "bool",
              "name": "exists",
              "type": "bool"
            }
          ],
          "internalType": "struct SocialFeed.UserProfile",
          "name": "",
          "type": "tuple"
        }
      ],
      "stateMutability": "view",
      "type": "function"
    },
    {
      "inputs": [
        {
          "internalType": "uint256",
          "name": "_postId",
          "type": "uint256"
        },
        {
          "internalType": "address",
          "name": "_user",
          "type": "address"
        }
      ],
      "name": "hasLiked",
      "outputs": [
        {
          "internalType": "bool",
          "name": "",
          "type": "bool"
        }
      ],
      "stateMutability": "view",
      "type": "function"
    },
    {
      "inputs": [
        {
          "internalType": "uint256",
          "name": "_commentId",
          "type": "uint256"
        },
        {
          "internalType": "address",
          "name": "_user",
          "type": "address"
        }
      ],
      "name": "hasLikedComment",
      "outputs": [
        {
          "internalType": "bool",
          "name": "",
          "type": "bool"
        }
      ],
      "stateMutability": "view",
      "type": "function"
    },
    {
      "inputs": [
        {
          "internalType": "address",
          "name": "",
          "type": "address"
        },
        {
          "internalType": "uint256",
          "name": "",
          "type": "uint256"
        }
      ],
      "name": "hasLikedPost",
      "outputs": [
        {
          "internalType": "bool",
          "name": "",
          "type": "bool"
        }
      ],
      "stateMutability": "view",
      "type": "function"
    },
    {
      "inputs": [
        {
          "internalType": "address",
          "name": "",
          "type": "address"
        },
        {
          "internalType": "address",
          "name": "",
          "type": "address"
        }
      ],
      "name": "isFollowing",
      "outputs": [
        {
          "internalType": "bool",
          "name": "",
          "type": "bool"
        }
      ],
      "stateMutability": "view",
      "type": "function"
    },
    {
      "inputs": [
        {
          "internalType": "string",
          "name": "_username",
          "type": "string"
        }
      ],
      "name": "isUsernameAvailable",
      "outputs": [
        {
          "internalType": "bool",
          "name": "",
          "type": "bool"
        }
      ],
      "stateMutability": "view",
      "type": "function"
    },
    {
      "inputs": [
        {
          "internalType": "uint256",
          "name": "_postId",
          "type": "uint256"
        },
        {
          "internalType": "uint256",
          "name": "_commentId",
          "type": "uint256"
        }
      ],
      "name": "likeComment",
      "outputs": [],
      "stateMutability": "nonpayable",
      "type": "function"
    },
    {
      "inputs": [
        {
          "internalType": "uint256",
          "name": "_postId",
          "type": "uint256"
        }
      ],
      "name": "likePost",
      "outputs": [],
      "stateMutability": "nonpayable",
      "type": "function"
    },
    {
      "inputs": [],
      "name": "markAllNotificationsAsRead",
      "outputs": [],
      "stateMutability": "nonpayable",
      "type": "function"
    },
    {
      "inputs": [
        {
          "internalType": "uint256",
          "name": "_notificationIndex",
          "type": "uint256"
        }
      ],
      "name": "markNotificationAsRead",
      "outputs": [],
      "stateMutability": "nonpayable",
      "type": "function"
    },
    {
      "inputs": [],
      "name": "owner",
      "outputs": [
        {
          "internalType": "address",
          "name": "",
          "type": "address"
        }
      ],
      "stateMutability": "view",
      "type": "function"
    },
    {
      "inputs": [
        {
          "internalType": "uint256",
          "name": "",
          "type": "uint256"
        },
        {
          "internalType": "uint256",
          "name": "",
          "type": "uint256"
        }
      ],
      "name": "postComments",
      "outputs": [
        {
          "internalType": "uint256",
          "name": "id",
          "type": "uint256"
        },
        {
          "internalType": "uint256",
          "name": "postId",
          "type": "uint256"
        },
        {
          "internalType": "address",
          "name": "commenter",
          "type": "address"
        },
        {
          "internalType": "string",
          "name": "ipfsHash",
          "type": "string"
        },
        {
          "internalType": "uint256",
          "name": "timestamp",
          "type": "uint256"
        },
        {
          "internalType": "uint256",
          "name": "likes",
          "type": "uint256"
        },
        {
          "internalType": "uint256",
          "name": "replyTo",
          "type": "uint256"
        },
        {
          "internalType": "bool",
          "name": "isActive",
          "type": "bool"
        }
      ],
      "stateMutability": "view",
      "type": "function"
    },
    {
      "inputs": [
        {
          "internalType": "uint256",
          "name": "",
          "type": "uint256"
        },
        {
          "internalType": "address",
          "name": "",
          "type": "address"
        }
      ],
      "name": "postLikes",
      "outputs": [
        {
          "internalType": "bool",
          "name": "",
          "type": "bool"
        }
      ],
      "stateMutability": "view",
      "type": "function"
    },
    {
      "inputs": [
        {
          "internalType": "uint256",
          "name": "",
          "type": "uint256"
        }
      ],
      "name": "posts",
      "outputs": [
        {
          "internalType": "uint256",
          "name": "id",
          "type": "uint256"
        },
        {
          "internalType": "address",
          "name": "author",
          "type": "address"
        },
        {
          "internalType": "string",
          "name": "ipfsHash",
          "type": "string"
        },
        {
          "internalType": "uint256",
          "name": "timestamp",
          "type": "uint256"
        },
        {
          "internalType": "uint256",
          "name": "likes",
          "type": "uint256"
        },
        {
          "internalType": "bool",
          "name": "isActive",
          "type": "bool"
        }
      ],
      "stateMutability": "view",
      "type": "function"
    },
    {
      "inputs": [],
      "name": "renounceOwnership",
      "outputs": [],
      "stateMutability": "nonpayable",
      "type": "function"
    },
    {
      "inputs": [
        {
          "internalType": "string",
          "name": "_ipfsHash",
          "type": "string"
        }
      ],
      "name": "sendChatMessage",
      "outputs": [],
      "stateMutability": "nonpayable",
      "type": "function"
    },
    {
      "inputs": [
        {
          "internalType": "address",
          "name": "newOwner",
          "type": "address"
        }
      ],
      "name": "transferOwnership",
      "outputs": [],
      "stateMutability": "nonpayable",
      "type": "function"
    },
    {
      "inputs": [
        {
          "internalType": "address",
          "name": "_userToUnfollow",
          "type": "address"
        }
      ],
      "name": "unfollowUser",
      "outputs": [],
      "stateMutability": "nonpayable",
      "type": "function"
    },
    {
      "inputs": [
        {
          "internalType": "uint256",
          "name": "_commentId",
          "type": "uint256"
        }
      ],
      "name": "unlikeComment",
      "outputs": [],
      "stateMutability": "nonpayable",
      "type": "function"
    },
    {
      "inputs": [
        {
          "internalType": "uint256",
          "name": "_postId",
          "type": "uint256"
        }
      ],
      "name": "unlikePost",
      "outputs": [],
      "stateMutability": "nonpayable",
      "type": "function"
    },
    {
      "inputs": [
        {
          "internalType": "string",
          "name": "_displayName",
          "type": "string"
        },
        {
          "internalType": "string",
          "name": "_profileIpfsHash",
          "type": "string"
        }
      ],
      "name": "updateProfile",
      "outputs": [],
      "stateMutability": "nonpayable",
      "type": "function"
    },
    {
      "inputs": [
        {
          "internalType": "address",
          "name": "",
          "type": "address"
        },
        {
          "internalType": "address",
          "name": "",
          "type": "address"
        }
      ],
      "name": "userFollows",
      "outputs": [
        {
          "internalType": "bool",
          "name": "",
          "type": "bool"
        }
      ],
      "stateMutability": "view",
      "type": "function"
    },
    {
      "inputs": [
        {
          "internalType": "address",
          "name": "",
          "type": "address"
        }
      ],
      "name": "userProfiles",
      "outputs": [
        {
          "internalType": "string",
          "name": "displayName",
          "type": "string"
        },
        {
          "internalType": "string",
          "name": "profileIpfsHash",
          "type": "string"
        },
        {
          "internalType": "uint256",
          "name": "postCount",
          "type": "uint256"
        },
        {
          "internalType": "uint256",
          "name": "followerCount",
          "type": "uint256"
        },
        {
          "internalType": "uint256",
          "name": "followingCount",
          "type": "uint256"
        },
        {
          "internalType": "bool",
          "name": "exists",
          "type": "bool"
        }
      ],
      "stateMutability": "view",
      "type": "function"
    },
    {
      "inputs": [
        {
          "internalType": "string",
          "name": "",
          "type": "string"
        }
      ],
      "name": "usernameTaken",
      "outputs": [
        {
          "internalType": "bool",
          "name": "",
          "type": "bool"
        }
      ],
      "stateMutability": "view",
      "type": "function"
    },
    {
      "inputs": [
        {
          "internalType": "string",
          "name": "",
          "type": "string"
        }
      ],
      "name": "usernameToAddress",
      "outputs": [
        {
          "internalType": "address",
          "name": "",
          "type": "address"
        }
      ],
      "stateMutability": "view",
      "type": "function"
    }
  ],
  "bytecode": "0x60806040523480156200001157600080fd5b5033806200003957604051631e4fbdf760e01b81526000600482015260240160405180910390fd5b62000044816200004f565b50600180556200009f565b600080546001600160a01b038381166001600160a01b0319831681178455604051919092169283917f8be0079c531659141344cd1fd0a4f28419497f9722a3daafe3b4186f6b6457e09190a35050565b6140cf80620000af6000396000f3fe608060405234801561001057600080fd5b506004361061028a5760003560e01c806399f9b8881161015c578063c9d3cc6a116100ce578063f26e818a11610087578063f26e818a146106c2578063f2fde38b146106f0578063f69c6dec14610703578063f825f14314610716578063fa188de91461074a578063fa5611521461075d57600080fd5b8063c9d3cc6a1461060d578063ca1f0cad14610620578063ccaad2de1461064e578063d524ff7614610661578063e9a9f05114610681578063f107cfcb146106af57600080fd5b8063a7e33a0c11610120578063a7e33a0c1461059b578063aa7e5683146105ae578063b9683006146105c1578063c4c600d9146105d4578063c7303c61146105e7578063c7f87e4f146105fa57600080fd5b806399f9b8881461053c5780639a2194a91461054f5780639ef39d7814610562578063a0e9182114610575578063a70806f71461058857600080fd5b806357f31358116102005780638d97bc7f116101b95780638d97bc7f1461045a5780638da5cb5b146104885780638fb7092c146104ad578063987ee156146104e6578063999572f71461050657806399ec3a421461050e57600080fd5b806357f31358146104075780635fe226b4146104275780636d4540eb1461042f578063715018a614610437578063725009d31461043f578063746f08fd1461045257600080fd5b806334d1bf291161025257806334d1bf291461034857806338904ec91461035b578063397388af146103945780634025681a146103a95780635193c94c146103c95780635432a773146103f057600080fd5b8063094cd5ee1461028f5780630b1e7f83146102a45780631c906291146102d257806331a4bcb514610310578063332d56d714610323575b600080fd5b6102a261029d3660046136e2565b610770565b005b6102b76102b23660046136e2565b610852565b6040516102c99695949392919061374b565b60405180910390f35b6103006102e03660046137b1565b600f60209081526000928352604080842090915290825290205460ff1681565b60405190151581526020016102c9565b6102a261031e3660046137dd565b61091e565b6103366103313660046137ff565b610b14565b6040516102c996959493929190613821565b61030061035636600461386e565b610c5c565b6103006103693660046137b1565b6000918252600f602090815260408084206001600160a01b0393909316845291905290205460ff1690565b61039c610c8c565b6040516102c99190613898565b6103bc6103b73660046137dd565b610cee565b6040516102c991906138e5565b6103dc6103d73660046137dd565b610f79565b6040516102c9989796959493929190613991565b6103f961011881565b6040519081526020016102c9565b61041a6104153660046137ff565b611070565b6040516102c991906139ed565b600b546103f9565b6102a2611139565b6102a261133c565b6102a261044d3660046136e2565b611350565b6102a26114b5565b61030061046836600461386e565b600860209081526000928352604080842090915290825290205460ff1681565b6000546001600160a01b03165b6040516001600160a01b0390911681526020016102c9565b6103006104bb3660046137b1565b60009182526006602090815260408084206001600160a01b0393909316845291905290205460ff1690565b6104f96104f43660046137ff565b611522565b6040516102c99190613a78565b600c546103f9565b61030061051c36600461386e565b600760209081526000928352604080842090915290825290205460ff1681565b6102a261054a3660046136e2565b6116d7565b6103bc61055d3660046137ff565b6117b8565b6103f96105703660046137ff565b611a8b565b6102a26105833660046137dd565b611ba6565b6102a26105963660046137ff565b611d59565b6102a26105a9366004613b8b565b611f4e565b6102a26105bc366004613bc8565b61200c565b61039c6105cf3660046137dd565b6121e0565b6102a26105e23660046136e2565b612332565b6102a26105f5366004613b8b565b6124c0565b6102a2610608366004613c0f565b612689565b6102a261061b366004613c5f565b612815565b61030061062e3660046137b1565b600660209081526000928352604080842090915290825290205460ff1681565b6102a261065c3660046136e2565b612c4e565b61067461066f3660046136e2565b612cf5565b6040516102c99190613cb9565b61030061068f366004613d6e565b600560209081526000928352604080842090915290825290205460ff1681565b6102a26106bd3660046137ff565b612e4d565b6103006106d0366004613b8b565b8051602081830181018051600a8252928201919093012091525460ff1681565b6102a26106fe3660046137ff565b612f60565b610300610711366004613b8b565b612f9b565b610495610724366004613b8b565b80516020818301810180516009825292820191909301209152546001600160a01b031681565b6102a26107583660046136e2565b612fd4565b6102a261076b366004613c0f565b6130ea565b60008181526003602052604090206005015460ff166107aa5760405162461bcd60e51b81526004016107a190613d98565b60405180910390fd5b6000818152600360205260409020600101546001600160a01b0316331461080c5760405162461bcd60e51b81526020600482015260166024820152754f6e6c7920617574686f722063616e2064656c65746560501b60448201526064016107a1565b600081815260036020526040808220600501805460ff1916905551339183917f1da4a15b15417b54b8b3bea2ca87cfc4c94f0fee7d86702d0dab9e2906e7a7d39190a350565b60036020526000908152604090208054600182015460028301805492936001600160a01b039092169261088490613dc5565b80601f01602080910402602001604051908101604052809291908181526020018280546108b090613dc5565b80156108fd5780601f106108d2576101008083540402835291602001916108fd565b820191906000526020600020905b8154815290600101906020018083116108e057829003601f168201915b50505050600383015460048401546005909401549293909290915060ff1686565b6000828152600e60205260408120905b8154811015610ad7578282828154811061094a5761094a613dff565b90600052602060002090600802016000015403610ac557336001600160a01b031682828154811061097d5761097d613dff565b60009182526020909120600260089092020101546001600160a01b0316146109e75760405162461bcd60e51b815260206004820152601960248201527f4f6e6c7920636f6d6d656e7465722063616e2064656c6574650000000000000060448201526064016107a1565b8181815481106109f9576109f9613dff565b600091825260209091206007600890920201015460ff16610a5c5760405162461bcd60e51b815260206004820152601760248201527f436f6d6d656e7420616c72656164792064656c6574656400000000000000000060448201526064016107a1565b6000828281548110610a7057610a70613dff565b60009182526020822060089190910201600701805460ff1916921515929092179091556040513391859187917f6ee692db105027f6f2626ec7348b1fee62bdd8b6aa9c2999ceed2aebd4dc3ee991a450505050565b80610acf81613e2b565b91505061092e565b5060405162461bcd60e51b815260206004820152601160248201527010dbdb5b595b9d081b9bdd08199bdd5b99607a1b60448201526064016107a1565b600460205260009081526040902080548190610b2f90613dc5565b80601f0160208091040260200160405190810160405280929190818152602001828054610b5b90613dc5565b8015610ba85780601f10610b7d57610100808354040283529160200191610ba8565b820191906000526020600020905b815481529060010190602001808311610b8b57829003601f168201915b505050505090806001018054610bbd90613dc5565b80601f0160208091040260200160405190810160405280929190818152602001828054610be990613dc5565b8015610c365780601f10610c0b57610100808354040283529160200191610c36565b820191906000526020600020905b815481529060010190602001808311610c1957829003601f168201915b505050506002830154600384015460048501546005909501549394919390925060ff1686565b6001600160a01b0380831660009081526008602090815260408083209385168352929052205460ff165b92915050565b6060600c805480602002602001604051908101604052809291908181526020018280548015610ce457602002820191906000526020600020905b81546001600160a01b03168152600190910190602001808311610cc6575b5050505050905090565b6060600082118015610d01575060328211155b610d3d5760405162461bcd60e51b815260206004820152600d60248201526c125b9d985b1a59081b1a5b5a5d609a1b60448201526064016107a1565b600b54808410610d81576040805160008082526020820190925290610d78565b610d656136a1565b815260200190600190039081610d5d5790505b50915050610c86565b6000610d8d8486613e44565b905081811115610d9a5750805b6000610da68683613e57565b905060008167ffffffffffffffff811115610dc357610dc3613ae8565b604051908082528060200260200182016040528015610dfc57816020015b610de96136a1565b815260200190600190039081610de15790505b50905060005b82811015610f6e576000600b828a610e1b60018a613e57565b610e259190613e57565b610e2f9190613e57565b81548110610e3f57610e3f613dff565b600091825260208083209091015480835260038252604092839020835160c0810185528154815260018201546001600160a01b0316938101939093526002810180549295509293909290840191610e9590613dc5565b80601f0160208091040260200160405190810160405280929190818152602001828054610ec190613dc5565b8015610f0e5780601f10610ee357610100808354040283529160200191610f0e565b820191906000526020600020905b815481529060010190602001808311610ef157829003601f168201915b5050509183525050600382015460208201526004820154604082015260059091015460ff1615156060909101528351849084908110610f4f57610f4f613dff565b6020026020010181905250508080610f6690613e2b565b915050610e02565b509695505050505050565b600e6020528160005260406000208181548110610f9557600080fd5b600091825260209091206008909102018054600182015460028301546003840180549396509194506001600160a01b03169291610fd190613dc5565b80601f0160208091040260200160405190810160405280929190818152602001828054610ffd90613dc5565b801561104a5780601f1061101f5761010080835404028352916020019161104a565b820191906000526020600020905b81548152906001019060200180831161102d57829003601f168201915b505050506004830154600584015460068501546007909501549394919390925060ff1688565b6001600160a01b0381166000908152600d60209081526040808320805482518185028101850190935280835260609492939192909184015b8282101561112e5760008481526020908190206040805160a0810182526002860290920180546001600160a01b0381168452600160a01b90046001600160601b03168385015260019081015460ff808216938501939093526101008104909216151560608401526201000090910463ffffffff16608083015290835290920191016110a8565b505050509050919050565b3360009081526004602052604090206005015460ff166111945760405162461bcd60e51b8152602060048201526016602482015275141c9bd99a5b1948191bd95cc81b9bdd08195e1a5cdd60521b60448201526064016107a1565b33600090815260046020526040812080546111ae90613dc5565b80601f01602080910402602001604051908101604052809291908181526020018280546111da90613dc5565b80156112275780601f106111fc57610100808354040283529160200191611227565b820191906000526020600020905b81548152906001019060200180831161120a57829003601f168201915b505050505090506000611239826132cb565b90506000600a8260405161124d9190613e6a565b908152604051908190036020018120805492151560ff199093169290921790915560099061127c908390613e6a565b90815260408051918290036020908101832080546001600160a01b031916905582810182526000808452338152600490915220906112ba9082613ed4565b5060408051602080820183526000808352338152600490915291909120600101906112e59082613ed4565b503360008181526004602052604090819020600501805460ff19169055517fccb26faf437ce4765f74a65be3d97c42d3022045b58bd819531faca0da50a82190611330908590613f94565b60405180910390a25050565b61134461342e565b61134e600061345b565b565b60008181526003602052604090206005015460ff166113815760405162461bcd60e51b81526004016107a190613d98565b600081815260066020908152604080832033845290915290205460ff16156113db5760405162461bcd60e51b815260206004820152600d60248201526c105b1c9958591e481b1a5ad959609a1b60448201526064016107a1565b60008181526006602090815260408083203384528252808320805460ff191660011790558383526003909152812060040180549161141883613e2b565b9091555050600081815260036020908152604091829020600401549151918252339183917fdfb8e3561bacb6caea7f0960d425956921b9147a631b6e857325c39911ee7e3b910160405180910390a36000818152600360205260409020600101546001600160a01b031633146114b2576000818152600360205260408120600101546114b2916001600160a01b03909116903390846134ab565b50565b336000908152600d60205260408120905b815481101561151e5760018282815481106114e3576114e3613dff565b906000526020600020906002020160010160016101000a81548160ff021916908315150217905550808061151690613e2b565b9150506114c6565b5050565b61155d6040518060c0016040528060608152602001606081526020016000815260200160008152602001600081526020016000151581525090565b6001600160a01b03821660009081526004602052604090819020815160c0810190925280548290829061158f90613dc5565b80601f01602080910402602001604051908101604052809291908181526020018280546115bb90613dc5565b80156116085780601f106115dd57610100808354040283529160200191611608565b820191906000526020600020905b8154815290600101906020018083116115eb57829003601f168201915b5050505050815260200160018201805461162190613dc5565b80601f016020809104026020016040519081016040528092919081815260200182805461164d90613dc5565b801561169a5780601f1061166f5761010080835404028352916020019161169a565b820191906000526020600020905b81548152906001019060200180831161167d57829003601f168201915b505050918352505060028201546020820152600382015460408201526004820154606082015260059091015460ff16151560809091015292915050565b336000908152600d602052604090205481106117255760405162461bcd60e51b815260206004820152600d60248201526c092dcecc2d8d2c840d2dcc8caf609b1b60448201526064016107a1565b336000908152600d602052604090208054600191908390811061174a5761174a613dff565b906000526020600020906002020160010160016101000a81548160ff021916908315150217905550336001600160a01b03167ffd1543c051ad7cc4f93db51224aef2b82a58016c981119ca48b2b02febdd546b826040516117ad91815260200190565b60405180910390a250565b60606000805b600b5481101561187857836001600160a01b031660036000600b84815481106117e9576117e9613dff565b600091825260208083209091015483528201929092526040019020600101546001600160a01b0316148015611853575060036000600b838154811061183057611830613dff565b6000918252602080832090910154835282019290925260400190206005015460ff165b15611866578161186281613e2b565b9250505b8061187081613e2b565b9150506117be565b5060008167ffffffffffffffff81111561189457611894613ae8565b6040519080825280602002602001820160405280156118cd57816020015b6118ba6136a1565b8152602001906001900390816118b25790505b50600b549091506000905b8015611a81576000600b6118ed600184613e57565b815481106118fd576118fd613dff565b600091825260208083209091015480835260039091526040909120600101549091506001600160a01b0390811690881614801561194b575060008181526003602052604090206005015460ff165b15611a6e57600081815260036020908152604091829020825160c0810184528154815260018201546001600160a01b031692810192909252600281018054929391929184019161199a90613dc5565b80601f01602080910402602001604051908101604052809291908181526020018280546119c690613dc5565b8015611a135780601f106119e857610100808354040283529160200191611a13565b820191906000526020600020905b8154815290600101906020018083116119f657829003601f168201915b5050509183525050600382015460208201526004820154604082015260059091015460ff1615156060909101528451859085908110611a5457611a54613dff565b60200260200101819052508280611a6a90613e2b565b9350505b5080611a7981613fa7565b9150506118d8565b5090949350505050565b6001600160a01b0381166000908152600d60209081526040808320805482518185028101850190935280835284938493929190849084015b82821015611b495760008481526020908190206040805160a0810182526002860290920180546001600160a01b0381168452600160a01b90046001600160601b03168385015260019081015460ff808216938501939093526101008104909216151560608401526201000090910463ffffffff1660808301529083529092019101611ac3565b50505050905060005b8151811015611b9d57818181518110611b6d57611b6d613dff565b602002602001015160600151611b8b5782611b8781613e2b565b9350505b80611b9581613e2b565b915050611b52565b50909392505050565b6000818152600f6020908152604080832033845290915290205460ff1615611c005760405162461bcd60e51b815260206004820152600d60248201526c105b1c9958591e481b1a5ad959609a1b60448201526064016107a1565b6000818152600f60209081526040808320338085529252808320805460ff1916600117905551909183917ff130ed2efa2f29aaeb0d5dd95532c1cfeef37afc311d3b52ca7666dadb6602a29190a36000828152600e60205260408120905b8154811015611d535782828281548110611c7a57611c7a613dff565b906000526020600020906008020160000154148015611cbe5750818181548110611ca657611ca6613dff565b600091825260209091206007600890920201015460ff165b15611d4157336001600160a01b0316828281548110611cdf57611cdf613dff565b60009182526020909120600260089092020101546001600160a01b031614611d3c57611d3c828281548110611d1657611d16613dff565b60009182526020909120600260089092020101546001600160a01b0316336003876134ab565b611d53565b80611d4b81613e2b565b915050611c5e565b50505050565b336001600160a01b03821603611daa5760405162461bcd60e51b815260206004820152601660248201527521b0b73737ba103337b63637bb903cb7bab939b2b63360511b60448201526064016107a1565b3360009081526008602090815260408083206001600160a01b038516845290915290205460ff1615611e125760405162461bcd60e51b8152602060048201526011602482015270416c726561647920666f6c6c6f77696e6760781b60448201526064016107a1565b3360008181526008602090815260408083206001600160a01b03861684528252808320805460ff1916600117905592825260049052206005015460ff16611e7157336000908152600460205260409020600501805460ff191660011790555b6001600160a01b03811660009081526004602052604090206005015460ff16611ebb576001600160a01b0381166000908152600460205260409020600501805460ff191660011790555b336000908152600460208190526040822001805491611ed983613e2b565b90915550506001600160a01b0381166000908152600460205260408120600301805491611f0583613e2b565b90915550506040516001600160a01b0382169033907f30b3435b456f45779984ddfa456115ee4c20d9e446979b1b9e90dbb7e12b90b790600090a36114b28133600160006134ab565b6000815111611f6f5760405162461bcd60e51b81526004016107a190613fbe565b3360009081526004602052604090206005015460ff16611fd15760405162461bcd60e51b815260206004820152601860248201527f50726f66696c6520726571756972656420746f2063686174000000000000000060448201526064016107a1565b336001600160a01b03167f4703b424e970cd3b80e904dfcf84a1532ffa38dba9527c7678eb6e64066396a182426040516117ad929190613ff5565b60008281526003602052604090206005015460ff1661203d5760405162461bcd60e51b81526004016107a190613d98565b600081511161205e5760405162461bcd60e51b81526004016107a190613fbe565b6010805490600061206e83613e2b565b90915550506040805161010081018252601054815260208082018581523383850190815260608401868152426080860152600060a0860181905260c08601819052600160e08701819052898252600e865296812080548089018255908252949020855160089095020193845591519483019490945592516002820180546001600160a01b0319166001600160a01b03909216919091179055915190918291600382019061211b9082613ed4565b506080820151600482015560a0820151600582015560c0820151600682015560e0909101516007909101805460ff1916911515919091179055604051339084907fceaa40d9d02173d6fae1f576cc1baff7cec35a842086153314079c405401a9889061218a9086904290613ff5565b60405180910390a36000838152600360205260409020600101546001600160a01b031633146121db576000838152600360205260409020600101546121db906001600160a01b0316336002866134ab565b505050565b600c5460609083106122345760405162461bcd60e51b815260206004820152601960248201527f537461727420696e646578206f7574206f6620626f756e64730000000000000060448201526064016107a1565b60006122408385613e44565b600c549091508111156122525750600c545b600061225e8583613e57565b905060008167ffffffffffffffff81111561227b5761227b613ae8565b6040519080825280602002602001820160405280156122a4578160200160208202803683370190505b50905060005b8281101561232857600c6122be8289613e44565b815481106122ce576122ce613dff565b9060005260206000200160009054906101000a90046001600160a01b03168282815181106122fe576122fe613dff565b6001600160a01b03909216602092830291909101909101528061232081613e2b565b9150506122aa565b5095945050505050565b336000908152600d602052604090208054821061234d575050565b805460009061235d908490613e57565b905060005b81811015611d535760005b835461237b90600190613e57565b811015612473578361238e826001613e44565b8154811061239e5761239e613dff565b90600052602060002090600202018482815481106123be576123be613dff565b60009182526020909120825460029092020180546001600160a01b039092166001600160a01b0319909216821781558254600160a01b908190046001600160601b03160290911781556001918201805492909101805460ff93841660ff19821681178355835461ffff19909216176101009182900490941615150292909217808355905465ffffffff000019909116620100009182900463ffffffff169091021790558061246b81613e2b565b91505061236d565b508280548061248457612484614017565b600082815260208120600260001990930192830201908155600101805465ffffffffffff191690559055806124b881613e2b565b915050612362565b6124c8613677565b60008151116124e95760405162461bcd60e51b81526004016107a190613fbe565b600280549060006124f983613e2b565b90915550506040805160c08101825260028054808352336020808501918252848601878152426060870152600060808701819052600160a08801819052948152600390925295902084518155905191810180546001600160a01b0319166001600160a01b039093169290921790915592519192919082019061257b9082613ed4565b5060608201516003820155608082015160048083019190915560a0909201516005918201805460ff1916911515919091179055600254600b8054600181019091557f0175b7a638427703f0dbe7bb9bbf987a2551717b34e79f33b5b1008d1fa01db901553360009081526020929092526040909120015460ff1661261757336000908152600460205260409020600501805460ff191660011790555b33600090815260046020526040812060020180549161263583613e2b565b9190505550336001600160a01b03166002547f285db98a4632176385795ddf0d2b67cef1a21f47eb2f5d06f786ab6b5147e2008342604051612678929190613ff5565b60405180910390a36114b260018055565b60008381526003602052604090206005015460ff166126ba5760405162461bcd60e51b81526004016107a190613d98565b60008151116126db5760405162461bcd60e51b81526004016107a190613fbe565b601080549060006126eb83613e2b565b90915550506040805161010081018252601054815260208082018681523383850190815260608401868152426080860152600060a0860181905260c08601899052600160e087018190528a8252600e865296812080548089018255908252949020855160089095020193845591519483019490945592516002820180546001600160a01b0319166001600160a01b0390921691909117905591519091829160038201906127989082613ed4565b506080820151600482015560a0820151600582015560c0820151600682015560e0909101516007909101805460ff1916911515919091179055604051339085907fceaa40d9d02173d6fae1f576cc1baff7cec35a842086153314079c405401a988906128079086904290613ff5565b60405180910390a350505050565b60008251116128665760405162461bcd60e51b815260206004820152601860248201527f557365726e616d652063616e6e6f7420626520656d707479000000000000000060448201526064016107a1565b601e825111156128ac5760405162461bcd60e51b8152602060048201526011602482015270557365726e616d6520746f6f206c6f6e6760781b60448201526064016107a1565b60006128b7836132cb565b3360009081526004602052604090206005015490915060ff16156129ef57336000908152600460205260408120805461297791906128f490613dc5565b80601f016020809104026020016040519081016040528092919081815260200182805461292090613dc5565b801561296d5780601f106129425761010080835404028352916020019161296d565b820191906000526020600020905b81548152906001019060200180831161295057829003601f168201915b50505050506132cb565b905081805190602001208180519060200120146129ed576000600a826040516129a09190613e6a565b908152604051908190036020018120805492151560ff19909316929092179091556009906129cf908390613e6a565b90815260405190819003602001902080546001600160a01b03191690555b505b600a816040516129ff9190613e6a565b9081526040519081900360200190205460ff161580612a4e5750336001600160a01b0316600982604051612a339190613e6a565b908152604051908190036020019020546001600160a01b0316145b612a935760405162461bcd60e51b81526020600482015260166024820152752ab9b2b93730b6b29030b63932b0b23c903a30b5b2b760511b60448201526064016107a1565b6001600a82604051612aa59190613e6a565b908152604051908190036020018120805492151560ff19909316929092179091553390600990612ad6908490613e6a565b908152604080516020928190038301902080546001600160a01b0319166001600160a01b0394909416939093179092553360009081526004909152206005015460ff16158015612b8057336000818152600460205260408120600501805460ff19166001908117909155600c805491820181559091527fdf6966c971051c3d54ec59162606531493a51404a002842f56009d7e5cf4a8c70180546001600160a01b03191690911790555b336000908152600460205260409020612b998582613ed4565b50336000908152600460205260409020600101612bb68482613ed4565b508015612c0557336001600160a01b03167f6b4494367229a908b0585b361e2871a21f8eb4cd852c02f55c9e06989f4bb2aa8585604051612bf892919061402d565b60405180910390a2611d53565b336001600160a01b03167f6eb3a1c6a4675ba92d44e090515b1ceea358f26565d2854df0c99c3f5eaf98508585604051612c4092919061402d565b60405180910390a250505050565b6000818152600f6020908152604080832033845290915290205460ff16612ca75760405162461bcd60e51b815260206004820152600d60248201526c139bdd081b1a5ad959081e595d609a1b60448201526064016107a1565b6000818152600f60209081526040808320338085529252808320805460ff1916905551909183917fca9a5541c0b22886f920ba8e818181b95e96be9b85a0d8d6ee60170ac253b3fa9190a350565b6060600e6000838152602001908152602001600020805480602002602001604051908101604052809291908181526020016000905b8282101561112e5760008481526020908190206040805161010081018252600886029092018054835260018101549383019390935260028301546001600160a01b031690820152600382018054919291606084019190612d8990613dc5565b80601f0160208091040260200160405190810160405280929190818152602001828054612db590613dc5565b8015612e025780601f10612dd757610100808354040283529160200191612e02565b820191906000526020600020905b815481529060010190602001808311612de557829003601f168201915b50505091835250506004820154602080830191909152600583015460408301526006830154606083015260079092015460ff1615156080909101529082526001929092019101612d2a565b3360009081526008602090815260408083206001600160a01b038516845290915290205460ff16612eb05760405162461bcd60e51b815260206004820152600d60248201526c4e6f7420666f6c6c6f77696e6760981b60448201526064016107a1565b3360008181526008602090815260408083206001600160a01b03861684528252808320805460ff19169055928252600490819052918120909101805491612ef683613fa7565b90915550506001600160a01b0381166000908152600460205260408120600301805491612f2283613fa7565b90915550506040516001600160a01b0382169033907fe7339343c6edff57f2d15278c419523844cea30ae5ee2146aa22cb9e3107dab790600090a350565b612f6861342e565b6001600160a01b038116612f9257604051631e4fbdf760e01b8152600060048201526024016107a1565b6114b28161345b565b600080612fa7836132cb565b9050600a81604051612fb99190613e6a565b9081526040519081900360200190205460ff16159392505050565b60008181526003602052604090206005015460ff166130055760405162461bcd60e51b81526004016107a190613d98565b600081815260066020908152604080832033845290915290205460ff1661305e5760405162461bcd60e51b815260206004820152600d60248201526c139bdd081b1a5ad959081e595d609a1b60448201526064016107a1565b60008181526006602090815260408083203384528252808320805460ff191690558383526003909152812060040180549161309883613fa7565b9091555050600081815260036020908152604091829020600401549151918252339183917ff82778657f73816e36e0eec83627a423a37071dfb38bb1dab6a21eb62cc2ff65910160405180910390a350565b600081511161310b5760405162461bcd60e51b81526004016107a190613fbe565b6000838152600e60205260408120905b8154811015610ad7578382828154811061313757613137613dff565b906000526020600020906008020160000154036132b957336001600160a01b031682828154811061316a5761316a613dff565b60009182526020909120600260089092020101546001600160a01b0316146131d45760405162461bcd60e51b815260206004820152601760248201527f4f6e6c7920636f6d6d656e7465722063616e206564697400000000000000000060448201526064016107a1565b8181815481106131e6576131e6613dff565b600091825260209091206007600890920201015460ff1661323e5760405162461bcd60e51b815260206004820152601260248201527110dbdb5b595b9d081a5cc819195b195d195960721b60448201526064016107a1565b8282828154811061325157613251613dff565b9060005260206000209060080201600301908161326e9190613ed4565b50336001600160a01b031684867f87091923e4fcadbd5c83a570516b1ae885c66ca3e926685ef6287888ab95a61c866040516132aa9190613f94565b60405180910390a45050505050565b806132c381613e2b565b91505061311b565b606060008290506000815167ffffffffffffffff8111156132ee576132ee613ae8565b6040519080825280601f01601f191660200182016040528015613318576020820181803683370190505b50905060005b825181101561342657604183828151811061333b5761333b613dff565b016020015160f81c1080159061336b5750605a83828151811061336057613360613dff565b016020015160f81c11155b156133cd5782818151811061338257613382613dff565b602001015160f81c60f81b60f81c602061339c919061405b565b60f81b8282815181106133b1576133b1613dff565b60200101906001600160f81b031916908160001a905350613414565b8281815181106133df576133df613dff565b602001015160f81c60f81b8282815181106133fc576133fc613dff565b60200101906001600160f81b031916908160001a9053505b8061341e81613e2b565b91505061331e565b509392505050565b6000546001600160a01b0316331461134e5760405163118cdaa760e01b81523360048201526024016107a1565b600080546001600160a01b038381166001600160a01b0319831681178455604051919092169283917f8be0079c531659141344cd1fd0a4f28419497f9722a3daafe3b4186f6b6457e09190a35050565b6001600160a01b038085166000908152600d60209081526040808320815160a08101835288861681526001600160601b0342811682860190815260ff808b1695840186815260608086018a815263ffffffff808e1660808901908152895460018181018c559a8e529b909c2097519551909616600160a01b0294909b16939093176002909802909401968755925195909301805497519651909116620100000265ffffffff0000199615156101000261ffff19909816959092169490941795909517939093169390931790559061359d57506040805180820190915260048152636c696b6560e01b6020820152613621565b60001960ff8416016135cc5750604080518082019091526006815265666f6c6c6f7760d01b6020820152613621565b60011960ff8416016135fc575060408051808201909152600781526618dbdb5b595b9d60ca1b6020820152613621565b5060408051808201909152600c81526b636f6d6d656e745f6c696b6560a01b60208201525b836001600160a01b0316856001600160a01b03167f6e06286eb7b0afb28b65a4c8977ed1ad2d10c3895707cdba90de6ba20f56c00d83854260405161366893929190614074565b60405180910390a35050505050565b60026001540361369a57604051633ee5aeb560e01b815260040160405180910390fd5b6002600155565b6040518060c001604052806000815260200160006001600160a01b031681526020016060815260200160008152602001600081526020016000151581525090565b6000602082840312156136f457600080fd5b5035919050565b60005b838110156137165781810151838201526020016136fe565b50506000910152565b600081518084526137378160208601602086016136fb565b601f01601f19169290920160200192915050565b8681526001600160a01b038616602082015260c0604082018190526000906137759083018761371f565b6060830195909552506080810192909252151560a0909101529392505050565b80356001600160a01b03811681146137ac57600080fd5b919050565b600080604083850312156137c457600080fd5b823591506137d460208401613795565b90509250929050565b600080604083850312156137f057600080fd5b50508035926020909101359150565b60006020828403121561381157600080fd5b61381a82613795565b9392505050565b60c08152600061383460c083018961371f565b8281036020840152613846818961371f565b91505085604083015284606083015283608083015282151560a0830152979650505050505050565b6000806040838503121561388157600080fd5b61388a83613795565b91506137d460208401613795565b6020808252825182820181905260009190848201906040850190845b818110156138d95783516001600160a01b0316835292840192918401916001016138b4565b50909695505050505050565b60006020808301818452808551808352604092508286019150828160051b87010184880160005b8381101561398357888303603f19018552815180518452878101516001600160a01b0316888501528681015160c08886018190529061394d8287018261371f565b606084810151908801526080808501519088015260a093840151151593909601929092525050938601939086019060010161390c565b509098975050505050505050565b888152602081018890526001600160a01b0387166040820152610100606082018190526000906139c38382018961371f565b9150508560808301528460a08301528360c083015282151560e08301529998505050505050505050565b602080825282518282018190526000919060409081850190868401855b82811015613a6b57815180516001600160a01b03168552868101516001600160601b0316878601528581015160ff168686015260608082015115159086015260809081015163ffffffff169085015260a09093019290850190600101613a0a565b5091979650505050505050565b602081526000825160c06020840152613a9460e084018261371f565b90506020840151601f19848303016040850152613ab1828261371f565b9150506040840151606084015260608401516080840152608084015160a084015260a0840151151560c08401528091505092915050565b634e487b7160e01b600052604160045260246000fd5b600082601f830112613b0f57600080fd5b813567ffffffffffffffff80821115613b2a57613b2a613ae8565b604051601f8301601f19908116603f01168101908282118183101715613b5257613b52613ae8565b81604052838152866020858801011115613b6b57600080fd5b836020870160208301376000602085830101528094505050505092915050565b600060208284031215613b9d57600080fd5b813567ffffffffffffffff811115613bb457600080fd5b613bc084828501613afe565b949350505050565b60008060408385031215613bdb57600080fd5b82359150602083013567ffffffffffffffff811115613bf957600080fd5b613c0585828601613afe565b9150509250929050565b600080600060608486031215613c2457600080fd5b8335925060208401359150604084013567ffffffffffffffff811115613c4957600080fd5b613c5586828701613afe565b9150509250925092565b60008060408385031215613c7257600080fd5b823567ffffffffffffffff80821115613c8a57600080fd5b613c9686838701613afe565b93506020850135915080821115613cac57600080fd5b50613c0585828601613afe565b60006020808301818452808551808352604092508286019150828160051b87010184880160005b8381101561398357888303603f190185528151805184528781015188850152868101516001600160a01b0316878501526060808201516101008287018190529190613d2d8388018261371f565b6080858101519089015260a0808601519089015260c0808601519089015260e094850151151594909701939093525050509386019390860190600101613ce0565b60008060408385031215613d8157600080fd5b613d8a83613795565b946020939093013593505050565b602080825260139082015272141bdcdd08191bd95cc81b9bdd08195e1a5cdd606a1b604082015260600190565b600181811c90821680613dd957607f821691505b602082108103613df957634e487b7160e01b600052602260045260246000fd5b50919050565b634e487b7160e01b600052603260045260246000fd5b634e487b7160e01b600052601160045260246000fd5b600060018201613e3d57613e3d613e15565b5060010190565b80820180821115610c8657610c86613e15565b81810381811115610c8657610c86613e15565b60008251613e7c8184602087016136fb565b9190910192915050565b601f8211156121db57600081815260208120601f850160051c81016020861015613ead5750805b601f850160051c820191505b81811015613ecc57828155600101613eb9565b505050505050565b815167ffffffffffffffff811115613eee57613eee613ae8565b613f0281613efc8454613dc5565b84613e86565b602080601f831160018114613f375760008415613f1f5750858301515b600019600386901b1c1916600185901b178555613ecc565b600085815260208120601f198616915b82811015613f6657888601518255948401946001909101908401613f47565b5085821015613f845787850151600019600388901b60f8161c191681555b5050505050600190811b01905550565b60208152600061381a602083018461371f565b600081613fb657613fb6613e15565b506000190190565b60208082526019908201527f4950465320686173682063616e6e6f7420626520656d70747900000000000000604082015260600190565b604081526000614008604083018561371f565b90508260208301529392505050565b634e487b7160e01b600052603160045260246000fd5b604081526000614040604083018561371f565b8281036020840152614052818561371f565b95945050505050565b60ff8181168382160190811115610c8657610c86613e15565b606081526000614087606083018661371f565b6020830194909452506040015291905056fea2646970667358221220208a5509935d3b1ba80cd8de83d00fe82b2a6b30d9b73470bf1d511fc07d866a64736f6c63430008140033",
  "linkReferences": {},
  "deployedLinkReferences": {}
}