{
  "_format": "hh-sol-artifact-1",
  "contractName": "SocialFeed",
  "sourceName": "contracts/SocialFeed.sol",
  "abi": [
    {
      "inputs": [],
      "stateMutability": "nonpayable",
      "type": "constructor"
    },
    {
      "inputs": [
        {
          "internalType": "address",
          "name": "owner",
          "type": "address"
        }
      ],
      "name": "OwnableInvalidOwner",
      "type": "error"
    },
    {
      "inputs": [
        {
          "internalType": "address",
          "name": "account",
          "type": "address"
        }
      ],
      "name": "OwnableUnauthorizedAccount",
      "type": "error"
    },
    {
      "inputs": [],
      "name": "ReentrancyGuardReentrantCall",
      "type": "error"
    },
    {
      "anonymous": false,
      "inputs": [
        {
          "indexed": true,
          "internalType": "address",
          "name": "sender",
          "type": "address"
        },
        {
          "indexed": false,
          "internalType": "string",
          "name": "ipfsHash",
          "type": "string"
        },
        {
          "indexed": false,
          "internalType": "uint256",
          "name": "timestamp",
          "type": "uint256"
        }
      ],
      "name": "ChatMessageSent",
      "type": "event"
    },
    {
      "anonymous": false,
      "inputs": [
        {
          "indexed": true,
          "internalType": "uint256",
          "name": "postId",
          "type": "uint256"
        },
        {
          "indexed": true,
          "internalType": "address",
          "name": "commenter",
          "type": "address"
        },
        {
          "indexed": false,
          "internalType": "string",
          "name": "ipfsHash",
          "type": "string"
        },
        {
          "indexed": false,
          "internalType": "uint256",
          "name": "timestamp",
          "type": "uint256"
        }
      ],
      "name": "CommentAdded",
      "type": "event"
    },
    {
      "anonymous": false,
      "inputs": [
        {
          "indexed": true,
          "internalType": "uint256",
          "name": "postId",
          "type": "uint256"
        },
        {
          "indexed": true,
          "internalType": "uint256",
          "name": "commentId",
          "type": "uint256"
        },
        {
          "indexed": true,
          "internalType": "address",
          "name": "commenter",
          "type": "address"
        }
      ],
      "name": "CommentDeleted",
      "type": "event"
    },
    {
      "anonymous": false,
      "inputs": [
        {
          "indexed": true,
          "internalType": "uint256",
          "name": "postId",
          "type": "uint256"
        },
        {
          "indexed": true,
          "internalType": "uint256",
          "name": "commentId",
          "type": "uint256"
        },
        {
          "indexed": true,
          "internalType": "address",
          "name": "commenter",
          "type": "address"
        },
        {
          "indexed": false,
          "internalType": "string",
          "name": "newIpfsHash",
          "type": "string"
        }
      ],
      "name": "CommentEdited",
      "type": "event"
    },
    {
      "anonymous": false,
      "inputs": [
        {
          "indexed": true,
          "internalType": "uint256",
          "name": "commentId",
          "type": "uint256"
        },
        {
          "indexed": true,
          "internalType": "address",
          "name": "liker",
          "type": "address"
        }
      ],
      "name": "CommentLiked",
      "type": "event"
    },
    {
      "anonymous": false,
      "inputs": [
        {
          "indexed": true,
          "internalType": "uint256",
          "name": "commentId",
          "type": "uint256"
        },
        {
          "indexed": true,
          "internalType": "address",
          "name": "unliker",
          "type": "address"
        }
      ],
      "name": "CommentUnliked",
      "type": "event"
    },
    {
      "anonymous": false,
      "inputs": [
        {
          "indexed": true,
          "internalType": "address",
          "name": "previousOwner",
          "type": "address"
        },
        {
          "indexed": true,
          "internalType": "address",
          "name": "newOwner",
          "type": "address"
        }
      ],
      "name": "OwnershipTransferred",
      "type": "event"
    },
    {
      "anonymous": false,
      "inputs": [
        {
          "indexed": true,
          "internalType": "uint256",
          "name": "postId",
          "type": "uint256"
        },
        {
          "indexed": true,
          "internalType": "address",
          "name": "author",
          "type": "address"
        },
        {
          "indexed": false,
          "internalType": "string",
          "name": "ipfsHash",
          "type": "string"
        },
        {
          "indexed": false,
          "internalType": "uint256",
          "name": "timestamp",
          "type": "uint256"
        }
      ],
      "name": "PostCreated",
      "type": "event"
    },
    {
      "anonymous": false,
      "inputs": [
        {
          "indexed": true,
          "internalType": "uint256",
          "name": "postId",
          "type": "uint256"
        },
        {
          "indexed": true,
          "internalType": "address",
          "name": "author",
          "type": "address"
        }
      ],
      "name": "PostDeleted",
      "type": "event"
    },
    {
      "anonymous": false,
      "inputs": [
        {
          "indexed": true,
          "internalType": "uint256",
          "name": "postId",
          "type": "uint256"
        },
        {
          "indexed": true,
          "internalType": "address",
          "name": "liker",
          "type": "address"
        },
        {
          "indexed": false,
          "internalType": "uint256",
          "name": "newLikeCount",
          "type": "uint256"
        }
      ],
      "name": "PostLiked",
      "type": "event"
    },
    {
      "anonymous": false,
      "inputs": [
        {
          "indexed": true,
          "internalType": "uint256",
          "name": "postId",
          "type": "uint256"
        },
        {
          "indexed": true,
          "internalType": "address",
          "name": "unliker",
          "type": "address"
        },
        {
          "indexed": false,
          "internalType": "uint256",
          "name": "newLikeCount",
          "type": "uint256"
        }
      ],
      "name": "PostUnliked",
      "type": "event"
    },
    {
      "anonymous": false,
      "inputs": [
        {
          "indexed": true,
          "internalType": "address",
          "name": "user",
          "type": "address"
        },
        {
          "indexed": false,
          "internalType": "string",
          "name": "displayName",
          "type": "string"
        }
      ],
      "name": "ProfileDeleted",
      "type": "event"
    },
    {
      "anonymous": false,
      "inputs": [
        {
          "indexed": true,
          "internalType": "address",
          "name": "user",
          "type": "address"
        },
        {
          "indexed": false,
          "internalType": "string",
          "name": "displayName",
          "type": "string"
        },
        {
          "indexed": false,
          "internalType": "string",
          "name": "profileIpfsHash",
          "type": "string"
        }
      ],
      "name": "ProfileUpdated",
      "type": "event"
    },
    {
      "anonymous": false,
      "inputs": [
        {
          "indexed": true,
          "internalType": "address",
          "name": "follower",
          "type": "address"
        },
        {
          "indexed": true,
          "internalType": "address",
          "name": "following",
          "type": "address"
        }
      ],
      "name": "UserFollowed",
      "type": "event"
    },
    {
      "anonymous": false,
      "inputs": [
        {
          "indexed": true,
          "internalType": "address",
          "name": "follower",
          "type": "address"
        },
        {
          "indexed": true,
          "internalType": "address",
          "name": "unfollowing",
          "type": "address"
        }
      ],
      "name": "UserUnfollowed",
      "type": "event"
    },
    {
      "inputs": [],
      "name": "MAX_POST_LENGTH",
      "outputs": [
        {
          "internalType": "uint256",
          "name": "",
          "type": "uint256"
        }
      ],
      "stateMutability": "view",
      "type": "function"
    },
    {
      "inputs": [
        {
          "internalType": "uint256",
          "name": "_postId",
          "type": "uint256"
        },
        {
          "internalType": "string",
          "name": "_ipfsHash",
          "type": "string"
        }
      ],
      "name": "addComment",
      "outputs": [],
      "stateMutability": "nonpayable",
      "type": "function"
    },
    {
      "inputs": [
        {
          "internalType": "uint256",
          "name": "_postId",
          "type": "uint256"
        },
        {
          "internalType": "uint256",
          "name": "_replyToCommentId",
          "type": "uint256"
        },
        {
          "internalType": "string",
          "name": "_ipfsHash",
          "type": "string"
        }
      ],
      "name": "addCommentReply",
      "outputs": [],
      "stateMutability": "nonpayable",
      "type": "function"
    },
    {
      "inputs": [
        {
          "internalType": "address",
          "name": "_follower",
          "type": "address"
        },
        {
          "internalType": "address",
          "name": "_following",
          "type": "address"
        }
      ],
      "name": "checkIsFollowing",
      "outputs": [
        {
          "internalType": "bool",
          "name": "",
          "type": "bool"
        }
      ],
      "stateMutability": "view",
      "type": "function"
    },
    {
      "inputs": [
        {
          "internalType": "uint256",
          "name": "",
          "type": "uint256"
        },
        {
          "internalType": "address",
          "name": "",
          "type": "address"
        }
      ],
      "name": "commentLikes",
      "outputs": [
        {
          "internalType": "bool",
          "name": "",
          "type": "bool"
        }
      ],
      "stateMutability": "view",
      "type": "function"
    },
    {
      "inputs": [
        {
          "internalType": "string",
          "name": "_ipfsHash",
          "type": "string"
        }
      ],
      "name": "createPost",
      "outputs": [],
      "stateMutability": "nonpayable",
      "type": "function"
    },
    {
      "inputs": [
        {
          "internalType": "uint256",
          "name": "_postId",
          "type": "uint256"
        },
        {
          "internalType": "uint256",
          "name": "_commentId",
          "type": "uint256"
        }
      ],
      "name": "deleteComment",
      "outputs": [],
      "stateMutability": "nonpayable",
      "type": "function"
    },
    {
      "inputs": [
        {
          "internalType": "uint256",
          "name": "_postId",
          "type": "uint256"
        }
      ],
      "name": "deletePost",
      "outputs": [],
      "stateMutability": "nonpayable",
      "type": "function"
    },
    {
      "inputs": [],
      "name": "deleteProfile",
      "outputs": [],
      "stateMutability": "nonpayable",
      "type": "function"
    },
    {
      "inputs": [
        {
          "internalType": "uint256",
          "name": "_postId",
          "type": "uint256"
        },
        {
          "internalType": "uint256",
          "name": "_commentId",
          "type": "uint256"
        },
        {
          "internalType": "string",
          "name": "_newIpfsHash",
          "type": "string"
        }
      ],
      "name": "editComment",
      "outputs": [],
      "stateMutability": "nonpayable",
      "type": "function"
    },
    {
      "inputs": [
        {
          "internalType": "address",
          "name": "_userToFollow",
          "type": "address"
        }
      ],
      "name": "followUser",
      "outputs": [],
      "stateMutability": "nonpayable",
      "type": "function"
    },
    {
      "inputs": [
        {
          "internalType": "uint256",
          "name": "_postId",
          "type": "uint256"
        }
      ],
      "name": "getPostComments",
      "outputs": [
        {
          "components": [
            {
              "internalType": "uint256",
              "name": "id",
              "type": "uint256"
            },
            {
              "internalType": "uint256",
              "name": "postId",
              "type": "uint256"
            },
            {
              "internalType": "address",
              "name": "commenter",
              "type": "address"
            },
            {
              "internalType": "string",
              "name": "ipfsHash",
              "type": "string"
            },
            {
              "internalType": "uint256",
              "name": "timestamp",
              "type": "uint256"
            },
            {
              "internalType": "uint256",
              "name": "likes",
              "type": "uint256"
            },
            {
              "internalType": "uint256",
              "name": "replyTo",
              "type": "uint256"
            },
            {
              "internalType": "bool",
              "name": "isActive",
              "type": "bool"
            }
          ],
          "internalType": "struct SocialFeed.Comment[]",
          "name": "",
          "type": "tuple[]"
        }
      ],
      "stateMutability": "view",
      "type": "function"
    },
    {
      "inputs": [
        {
          "internalType": "uint256",
          "name": "_offset",
          "type": "uint256"
        },
        {
          "internalType": "uint256",
          "name": "_limit",
          "type": "uint256"
        }
      ],
      "name": "getRecentPosts",
      "outputs": [
        {
          "components": [
            {
              "internalType": "uint256",
              "name": "id",
              "type": "uint256"
            },
            {
              "internalType": "address",
              "name": "author",
              "type": "address"
            },
            {
              "internalType": "string",
              "name": "ipfsHash",
              "type": "string"
            },
            {
              "internalType": "uint256",
              "name": "timestamp",
              "type": "uint256"
            },
            {
              "internalType": "uint256",
              "name": "likes",
              "type": "uint256"
            },
            {
              "internalType": "bool",
              "name": "isActive",
              "type": "bool"
            }
          ],
          "internalType": "struct SocialFeed.Post[]",
          "name": "",
          "type": "tuple[]"
        }
      ],
      "stateMutability": "view",
      "type": "function"
    },
    {
      "inputs": [],
      "name": "getTotalPosts",
      "outputs": [
        {
          "internalType": "uint256",
          "name": "",
          "type": "uint256"
        }
      ],
      "stateMutability": "view",
      "type": "function"
    },
    {
      "inputs": [
        {
          "internalType": "address",
          "name": "_user",
          "type": "address"
        }
      ],
      "name": "getUserPosts",
      "outputs": [
        {
          "components": [
            {
              "internalType": "uint256",
              "name": "id",
              "type": "uint256"
            },
            {
              "internalType": "address",
              "name": "author",
              "type": "address"
            },
            {
              "internalType": "string",
              "name": "ipfsHash",
              "type": "string"
            },
            {
              "internalType": "uint256",
              "name": "timestamp",
              "type": "uint256"
            },
            {
              "internalType": "uint256",
              "name": "likes",
              "type": "uint256"
            },
            {
              "internalType": "bool",
              "name": "isActive",
              "type": "bool"
            }
          ],
          "internalType": "struct SocialFeed.Post[]",
          "name": "",
          "type": "tuple[]"
        }
      ],
      "stateMutability": "view",
      "type": "function"
    },
    {
      "inputs": [
        {
          "internalType": "address",
          "name": "_user",
          "type": "address"
        }
      ],
      "name": "getUserProfile",
      "outputs": [
        {
          "components": [
            {
              "internalType": "string",
              "name": "displayName",
              "type": "string"
            },
            {
              "internalType": "string",
              "name": "profileIpfsHash",
              "type": "string"
            },
            {
              "internalType": "uint256",
              "name": "postCount",
              "type": "uint256"
            },
            {
              "internalType": "uint256",
              "name": "followerCount",
              "type": "uint256"
            },
            {
              "internalType": "uint256",
              "name": "followingCount",
              "type": "uint256"
            },
            {
              "internalType": "bool",
              "name": "exists",
              "type": "bool"
            }
          ],
          "internalType": "struct SocialFeed.UserProfile",
          "name": "",
          "type": "tuple"
        }
      ],
      "stateMutability": "view",
      "type": "function"
    },
    {
      "inputs": [
        {
          "internalType": "uint256",
          "name": "_postId",
          "type": "uint256"
        },
        {
          "internalType": "address",
          "name": "_user",
          "type": "address"
        }
      ],
      "name": "hasLiked",
      "outputs": [
        {
          "internalType": "bool",
          "name": "",
          "type": "bool"
        }
      ],
      "stateMutability": "view",
      "type": "function"
    },
    {
      "inputs": [
        {
          "internalType": "uint256",
          "name": "_commentId",
          "type": "uint256"
        },
        {
          "internalType": "address",
          "name": "_user",
          "type": "address"
        }
      ],
      "name": "hasLikedComment",
      "outputs": [
        {
          "internalType": "bool",
          "name": "",
          "type": "bool"
        }
      ],
      "stateMutability": "view",
      "type": "function"
    },
    {
      "inputs": [
        {
          "internalType": "address",
          "name": "",
          "type": "address"
        },
        {
          "internalType": "uint256",
          "name": "",
          "type": "uint256"
        }
      ],
      "name": "hasLikedPost",
      "outputs": [
        {
          "internalType": "bool",
          "name": "",
          "type": "bool"
        }
      ],
      "stateMutability": "view",
      "type": "function"
    },
    {
      "inputs": [
        {
          "internalType": "address",
          "name": "",
          "type": "address"
        },
        {
          "internalType": "address",
          "name": "",
          "type": "address"
        }
      ],
      "name": "isFollowing",
      "outputs": [
        {
          "internalType": "bool",
          "name": "",
          "type": "bool"
        }
      ],
      "stateMutability": "view",
      "type": "function"
    },
    {
      "inputs": [
        {
          "internalType": "string",
          "name": "_username",
          "type": "string"
        }
      ],
      "name": "isUsernameAvailable",
      "outputs": [
        {
          "internalType": "bool",
          "name": "",
          "type": "bool"
        }
      ],
      "stateMutability": "view",
      "type": "function"
    },
    {
      "inputs": [
        {
          "internalType": "uint256",
          "name": "_commentId",
          "type": "uint256"
        }
      ],
      "name": "likeComment",
      "outputs": [],
      "stateMutability": "nonpayable",
      "type": "function"
    },
    {
      "inputs": [
        {
          "internalType": "uint256",
          "name": "_postId",
          "type": "uint256"
        }
      ],
      "name": "likePost",
      "outputs": [],
      "stateMutability": "nonpayable",
      "type": "function"
    },
    {
      "inputs": [],
      "name": "owner",
      "outputs": [
        {
          "internalType": "address",
          "name": "",
          "type": "address"
        }
      ],
      "stateMutability": "view",
      "type": "function"
    },
    {
      "inputs": [
        {
          "internalType": "uint256",
          "name": "",
          "type": "uint256"
        },
        {
          "internalType": "uint256",
          "name": "",
          "type": "uint256"
        }
      ],
      "name": "postComments",
      "outputs": [
        {
          "internalType": "uint256",
          "name": "id",
          "type": "uint256"
        },
        {
          "internalType": "uint256",
          "name": "postId",
          "type": "uint256"
        },
        {
          "internalType": "address",
          "name": "commenter",
          "type": "address"
        },
        {
          "internalType": "string",
          "name": "ipfsHash",
          "type": "string"
        },
        {
          "internalType": "uint256",
          "name": "timestamp",
          "type": "uint256"
        },
        {
          "internalType": "uint256",
          "name": "likes",
          "type": "uint256"
        },
        {
          "internalType": "uint256",
          "name": "replyTo",
          "type": "uint256"
        },
        {
          "internalType": "bool",
          "name": "isActive",
          "type": "bool"
        }
      ],
      "stateMutability": "view",
      "type": "function"
    },
    {
      "inputs": [
        {
          "internalType": "uint256",
          "name": "",
          "type": "uint256"
        },
        {
          "internalType": "address",
          "name": "",
          "type": "address"
        }
      ],
      "name": "postLikes",
      "outputs": [
        {
          "internalType": "bool",
          "name": "",
          "type": "bool"
        }
      ],
      "stateMutability": "view",
      "type": "function"
    },
    {
      "inputs": [
        {
          "internalType": "uint256",
          "name": "",
          "type": "uint256"
        }
      ],
      "name": "posts",
      "outputs": [
        {
          "internalType": "uint256",
          "name": "id",
          "type": "uint256"
        },
        {
          "internalType": "address",
          "name": "author",
          "type": "address"
        },
        {
          "internalType": "string",
          "name": "ipfsHash",
          "type": "string"
        },
        {
          "internalType": "uint256",
          "name": "timestamp",
          "type": "uint256"
        },
        {
          "internalType": "uint256",
          "name": "likes",
          "type": "uint256"
        },
        {
          "internalType": "bool",
          "name": "isActive",
          "type": "bool"
        }
      ],
      "stateMutability": "view",
      "type": "function"
    },
    {
      "inputs": [],
      "name": "renounceOwnership",
      "outputs": [],
      "stateMutability": "nonpayable",
      "type": "function"
    },
    {
      "inputs": [
        {
          "internalType": "string",
          "name": "_ipfsHash",
          "type": "string"
        }
      ],
      "name": "sendChatMessage",
      "outputs": [],
      "stateMutability": "nonpayable",
      "type": "function"
    },
    {
      "inputs": [
        {
          "internalType": "address",
          "name": "newOwner",
          "type": "address"
        }
      ],
      "name": "transferOwnership",
      "outputs": [],
      "stateMutability": "nonpayable",
      "type": "function"
    },
    {
      "inputs": [
        {
          "internalType": "address",
          "name": "_userToUnfollow",
          "type": "address"
        }
      ],
      "name": "unfollowUser",
      "outputs": [],
      "stateMutability": "nonpayable",
      "type": "function"
    },
    {
      "inputs": [
        {
          "internalType": "uint256",
          "name": "_commentId",
          "type": "uint256"
        }
      ],
      "name": "unlikeComment",
      "outputs": [],
      "stateMutability": "nonpayable",
      "type": "function"
    },
    {
      "inputs": [
        {
          "internalType": "uint256",
          "name": "_postId",
          "type": "uint256"
        }
      ],
      "name": "unlikePost",
      "outputs": [],
      "stateMutability": "nonpayable",
      "type": "function"
    },
    {
      "inputs": [
        {
          "internalType": "string",
          "name": "_displayName",
          "type": "string"
        },
        {
          "internalType": "string",
          "name": "_profileIpfsHash",
          "type": "string"
        }
      ],
      "name": "updateProfile",
      "outputs": [],
      "stateMutability": "nonpayable",
      "type": "function"
    },
    {
      "inputs": [
        {
          "internalType": "address",
          "name": "",
          "type": "address"
        },
        {
          "internalType": "address",
          "name": "",
          "type": "address"
        }
      ],
      "name": "userFollows",
      "outputs": [
        {
          "internalType": "bool",
          "name": "",
          "type": "bool"
        }
      ],
      "stateMutability": "view",
      "type": "function"
    },
    {
      "inputs": [
        {
          "internalType": "address",
          "name": "",
          "type": "address"
        }
      ],
      "name": "userProfiles",
      "outputs": [
        {
          "internalType": "string",
          "name": "displayName",
          "type": "string"
        },
        {
          "internalType": "string",
          "name": "profileIpfsHash",
          "type": "string"
        },
        {
          "internalType": "uint256",
          "name": "postCount",
          "type": "uint256"
        },
        {
          "internalType": "uint256",
          "name": "followerCount",
          "type": "uint256"
        },
        {
          "internalType": "uint256",
          "name": "followingCount",
          "type": "uint256"
        },
        {
          "internalType": "bool",
          "name": "exists",
          "type": "bool"
        }
      ],
      "stateMutability": "view",
      "type": "function"
    },
    {
      "inputs": [
        {
          "internalType": "string",
          "name": "",
          "type": "string"
        }
      ],
      "name": "usernameTaken",
      "outputs": [
        {
          "internalType": "bool",
          "name": "",
          "type": "bool"
        }
      ],
      "stateMutability": "view",
      "type": "function"
    },
    {
      "inputs": [
        {
          "internalType": "string",
          "name": "",
          "type": "string"
        }
      ],
      "name": "usernameToAddress",
      "outputs": [
        {
          "internalType": "address",
          "name": "",
          "type": "address"
        }
      ],
      "stateMutability": "view",
      "type": "function"
    }
  ],
  "bytecode": "0x60806040523480156200001157600080fd5b5033806200003957604051631e4fbdf760e01b81526000600482015260240160405180910390fd5b62000044816200004f565b50600180556200009f565b600080546001600160a01b038381166001600160a01b0319831681178455604051919092169283917f8be0079c531659141344cd1fd0a4f28419497f9722a3daafe3b4186f6b6457e09190a35050565b61346980620000af6000396000f3fe608060405234801561001057600080fd5b50600436106102325760003560e01c806399ec3a4211610130578063ccaad2de116100b8578063f2fde38b1161007c578063f2fde38b14610607578063f69c6dec1461061a578063f825f1431461062d578063fa188de914610661578063fa5611521461067457600080fd5b8063ccaad2de14610565578063d524ff7614610578578063e9a9f05114610598578063f107cfcb146105c6578063f26e818a146105d957600080fd5b8063aa7e5683116100ff578063aa7e5683146104eb578063c7303c61146104fe578063c7f87e4f14610511578063c9d3cc6a14610524578063ca1f0cad1461053757600080fd5b806399ec3a42146104845780639a2194a9146104b2578063a70806f7146104c5578063a7e33a0c146104d857600080fd5b80635193c94c116101be578063725009d311610182578063725009d3146103c55780638d97bc7f146103d85780638da5cb5b146104065780638fb7092c1461042b578063987ee1561461046457600080fd5b80635193c94c1461036f5780635432a773146103965780635fe226b4146103ad5780636d4540eb146103b5578063715018a6146103bd57600080fd5b806331a4bcb51161020557806331a4bcb5146102cb578063332d56d7146102de57806334d1bf291461030357806338904ec9146103165780634025681a1461034f57600080fd5b8063012cc1e214610237578063094cd5ee1461024c5780630b1e7f831461025f5780631c9062911461028d575b600080fd5b61024a610245366004612b8e565b610687565b005b61024a61025a366004612b8e565b610737565b61027261026d366004612b8e565b610810565b60405161028496959493929190612bf7565b60405180910390f35b6102bb61029b366004612c5d565b600d60209081526000928352604080842090915290825290205460ff1681565b6040519015158152602001610284565b61024a6102d9366004612c89565b6108dc565b6102f16102ec366004612cab565b610ad2565b60405161028496959493929190612ccd565b6102bb610311366004612d1a565b610c1a565b6102bb610324366004612c5d565b6000918252600d602090815260408084206001600160a01b0393909316845291905290205460ff1690565b61036261035d366004612c89565b610c4a565b6040516102849190612d44565b61038261037d366004612c89565b610ed5565b604051610284989796959493929190612df0565b61039f61011881565b604051908152602001610284565b600b5461039f565b61024a610fcc565b61024a6111cf565b61024a6103d3366004612b8e565b6111e3565b6102bb6103e6366004612d1a565b600860209081526000928352604080842090915290825290205460ff1681565b6000546001600160a01b03165b6040516001600160a01b039091168152602001610284565b6102bb610439366004612c5d565b60009182526006602090815260408084206001600160a01b0393909316845291905290205460ff1690565b610477610472366004612cab565b6112fe565b6040516102849190612e4c565b6102bb610492366004612d1a565b600760209081526000928352604080842090915290825290205460ff1681565b6103626104c0366004612cab565b6114b3565b61024a6104d3366004612cab565b611786565b61024a6104e6366004612f5f565b611970565b61024a6104f9366004612f9c565b611a39565b61024a61050c366004612f5f565b611bc4565b61024a61051f366004612fe3565b611d90565b61024a610532366004613033565b611f1c565b6102bb610545366004612c5d565b600660209081526000928352604080842090915290825290205460ff1681565b61024a610573366004612b8e565b6122c1565b61058b610586366004612b8e565b612368565b604051610284919061308d565b6102bb6105a6366004613142565b600560209081526000928352604080842090915290825290205460ff1681565b61024a6105d4366004612cab565b6124cb565b6102bb6105e7366004612f5f565b8051602081830181018051600a8252928201919093012091525460ff1681565b61024a610615366004612cab565b6125de565b6102bb610628366004612f5f565b612619565b61041361063b366004612f5f565b80516020818301810180516009825292820191909301209152546001600160a01b031681565b61024a61066f366004612b8e565b612652565b61024a610682366004612fe3565b612762565b6000818152600d6020908152604080832033845290915290205460ff16156106e65760405162461bcd60e51b815260206004820152600d60248201526c105b1c9958591e481b1a5ad959609a1b60448201526064015b60405180910390fd5b6000818152600d60209081526040808320338085529252808320805460ff1916600117905551909183917ff130ed2efa2f29aaeb0d5dd95532c1cfeef37afc311d3b52ca7666dadb6602a29190a350565b60008181526003602052604090206005015460ff166107685760405162461bcd60e51b81526004016106dd9061316c565b6000818152600360205260409020600101546001600160a01b031633146107ca5760405162461bcd60e51b81526020600482015260166024820152754f6e6c7920617574686f722063616e2064656c65746560501b60448201526064016106dd565b600081815260036020526040808220600501805460ff1916905551339183917f1da4a15b15417b54b8b3bea2ca87cfc4c94f0fee7d86702d0dab9e2906e7a7d39190a350565b60036020526000908152604090208054600182015460028301805492936001600160a01b039092169261084290613199565b80601f016020809104026020016040519081016040528092919081815260200182805461086e90613199565b80156108bb5780601f10610890576101008083540402835291602001916108bb565b820191906000526020600020905b81548152906001019060200180831161089e57829003601f168201915b50505050600383015460048401546005909401549293909290915060ff1686565b6000828152600c60205260408120905b8154811015610a955782828281548110610908576109086131d3565b90600052602060002090600802016000015403610a8357336001600160a01b031682828154811061093b5761093b6131d3565b60009182526020909120600260089092020101546001600160a01b0316146109a55760405162461bcd60e51b815260206004820152601960248201527f4f6e6c7920636f6d6d656e7465722063616e2064656c6574650000000000000060448201526064016106dd565b8181815481106109b7576109b76131d3565b600091825260209091206007600890920201015460ff16610a1a5760405162461bcd60e51b815260206004820152601760248201527f436f6d6d656e7420616c72656164792064656c6574656400000000000000000060448201526064016106dd565b6000828281548110610a2e57610a2e6131d3565b60009182526020822060089190910201600701805460ff1916921515929092179091556040513391859187917f6ee692db105027f6f2626ec7348b1fee62bdd8b6aa9c2999ceed2aebd4dc3ee991a450505050565b80610a8d816131ff565b9150506108ec565b5060405162461bcd60e51b815260206004820152601160248201527010dbdb5b595b9d081b9bdd08199bdd5b99607a1b60448201526064016106dd565b600460205260009081526040902080548190610aed90613199565b80601f0160208091040260200160405190810160405280929190818152602001828054610b1990613199565b8015610b665780601f10610b3b57610100808354040283529160200191610b66565b820191906000526020600020905b815481529060010190602001808311610b4957829003601f168201915b505050505090806001018054610b7b90613199565b80601f0160208091040260200160405190810160405280929190818152602001828054610ba790613199565b8015610bf45780601f10610bc957610100808354040283529160200191610bf4565b820191906000526020600020905b815481529060010190602001808311610bd757829003601f168201915b505050506002830154600384015460048501546005909501549394919390925060ff1686565b6001600160a01b0380831660009081526008602090815260408083209385168352929052205460ff165b92915050565b6060600082118015610c5d575060328211155b610c995760405162461bcd60e51b815260206004820152600d60248201526c125b9d985b1a59081b1a5b5a5d609a1b60448201526064016106dd565b600b54808410610cdd576040805160008082526020820190925290610cd4565b610cc1612b4d565b815260200190600190039081610cb95790505b50915050610c44565b6000610ce98486613218565b905081811115610cf65750805b6000610d02868361322b565b905060008167ffffffffffffffff811115610d1f57610d1f612ebc565b604051908082528060200260200182016040528015610d5857816020015b610d45612b4d565b815260200190600190039081610d3d5790505b50905060005b82811015610eca576000600b828a610d7760018a61322b565b610d81919061322b565b610d8b919061322b565b81548110610d9b57610d9b6131d3565b600091825260208083209091015480835260038252604092839020835160c0810185528154815260018201546001600160a01b0316938101939093526002810180549295509293909290840191610df190613199565b80601f0160208091040260200160405190810160405280929190818152602001828054610e1d90613199565b8015610e6a5780601f10610e3f57610100808354040283529160200191610e6a565b820191906000526020600020905b815481529060010190602001808311610e4d57829003601f168201915b5050509183525050600382015460208201526004820154604082015260059091015460ff1615156060909101528351849084908110610eab57610eab6131d3565b6020026020010181905250508080610ec2906131ff565b915050610d5e565b509695505050505050565b600c6020528160005260406000208181548110610ef157600080fd5b600091825260209091206008909102018054600182015460028301546003840180549396509194506001600160a01b03169291610f2d90613199565b80601f0160208091040260200160405190810160405280929190818152602001828054610f5990613199565b8015610fa65780601f10610f7b57610100808354040283529160200191610fa6565b820191906000526020600020905b815481529060010190602001808311610f8957829003601f168201915b505050506004830154600584015460068501546007909501549394919390925060ff1688565b3360009081526004602052604090206005015460ff166110275760405162461bcd60e51b8152602060048201526016602482015275141c9bd99a5b1948191bd95cc81b9bdd08195e1a5cdd60521b60448201526064016106dd565b336000908152600460205260408120805461104190613199565b80601f016020809104026020016040519081016040528092919081815260200182805461106d90613199565b80156110ba5780601f1061108f576101008083540402835291602001916110ba565b820191906000526020600020905b81548152906001019060200180831161109d57829003601f168201915b5050505050905060006110cc82612943565b90506000600a826040516110e0919061323e565b908152604051908190036020018120805492151560ff199093169290921790915560099061110f90839061323e565b90815260408051918290036020908101832080546001600160a01b0319169055828101825260008084523381526004909152209061114d90826132a9565b50604080516020808201835260008083523381526004909152919091206001019061117890826132a9565b503360008181526004602052604090819020600501805460ff19169055517fccb26faf437ce4765f74a65be3d97c42d3022045b58bd819531faca0da50a821906111c3908590613369565b60405180910390a25050565b6111d7612aa6565b6111e16000612ad3565b565b60008181526003602052604090206005015460ff166112145760405162461bcd60e51b81526004016106dd9061316c565b600081815260066020908152604080832033845290915290205460ff161561126e5760405162461bcd60e51b815260206004820152600d60248201526c105b1c9958591e481b1a5ad959609a1b60448201526064016106dd565b60008181526006602090815260408083203384528252808320805460ff19166001179055838352600390915281206004018054916112ab836131ff565b9091555050600081815260036020908152604091829020600401549151918252339183917fdfb8e3561bacb6caea7f0960d425956921b9147a631b6e857325c39911ee7e3b91015b60405180910390a350565b6113396040518060c0016040528060608152602001606081526020016000815260200160008152602001600081526020016000151581525090565b6001600160a01b03821660009081526004602052604090819020815160c0810190925280548290829061136b90613199565b80601f016020809104026020016040519081016040528092919081815260200182805461139790613199565b80156113e45780601f106113b9576101008083540402835291602001916113e4565b820191906000526020600020905b8154815290600101906020018083116113c757829003601f168201915b505050505081526020016001820180546113fd90613199565b80601f016020809104026020016040519081016040528092919081815260200182805461142990613199565b80156114765780601f1061144b57610100808354040283529160200191611476565b820191906000526020600020905b81548152906001019060200180831161145957829003601f168201915b505050918352505060028201546020820152600382015460408201526004820154606082015260059091015460ff16151560809091015292915050565b60606000805b600b5481101561157357836001600160a01b031660036000600b84815481106114e4576114e46131d3565b600091825260208083209091015483528201929092526040019020600101546001600160a01b031614801561154e575060036000600b838154811061152b5761152b6131d3565b6000918252602080832090910154835282019290925260400190206005015460ff165b15611561578161155d816131ff565b9250505b8061156b816131ff565b9150506114b9565b5060008167ffffffffffffffff81111561158f5761158f612ebc565b6040519080825280602002602001820160405280156115c857816020015b6115b5612b4d565b8152602001906001900390816115ad5790505b50600b549091506000905b801561177c576000600b6115e860018461322b565b815481106115f8576115f86131d3565b600091825260208083209091015480835260039091526040909120600101549091506001600160a01b03908116908816148015611646575060008181526003602052604090206005015460ff165b1561176957600081815260036020908152604091829020825160c0810184528154815260018201546001600160a01b031692810192909252600281018054929391929184019161169590613199565b80601f01602080910402602001604051908101604052809291908181526020018280546116c190613199565b801561170e5780601f106116e35761010080835404028352916020019161170e565b820191906000526020600020905b8154815290600101906020018083116116f157829003601f168201915b5050509183525050600382015460208201526004820154604082015260059091015460ff161515606090910152845185908590811061174f5761174f6131d3565b60200260200101819052508280611765906131ff565b9350505b50806117748161337c565b9150506115d3565b5090949350505050565b336001600160a01b038216036117d75760405162461bcd60e51b815260206004820152601660248201527521b0b73737ba103337b63637bb903cb7bab939b2b63360511b60448201526064016106dd565b3360009081526008602090815260408083206001600160a01b038516845290915290205460ff161561183f5760405162461bcd60e51b8152602060048201526011602482015270416c726561647920666f6c6c6f77696e6760781b60448201526064016106dd565b3360008181526008602090815260408083206001600160a01b03861684528252808320805460ff1916600117905592825260049052206005015460ff1661189e57336000908152600460205260409020600501805460ff191660011790555b6001600160a01b03811660009081526004602052604090206005015460ff166118e8576001600160a01b0381166000908152600460205260409020600501805460ff191660011790555b336000908152600460208190526040822001805491611906836131ff565b90915550506001600160a01b0381166000908152600460205260408120600301805491611932836131ff565b90915550506040516001600160a01b0382169033907f30b3435b456f45779984ddfa456115ee4c20d9e446979b1b9e90dbb7e12b90b790600090a350565b60008151116119915760405162461bcd60e51b81526004016106dd90613393565b3360009081526004602052604090206005015460ff166119f35760405162461bcd60e51b815260206004820152601860248201527f50726f66696c6520726571756972656420746f2063686174000000000000000060448201526064016106dd565b336001600160a01b03167f4703b424e970cd3b80e904dfcf84a1532ffa38dba9527c7678eb6e64066396a18242604051611a2e9291906133ca565b60405180910390a250565b60008281526003602052604090206005015460ff16611a6a5760405162461bcd60e51b81526004016106dd9061316c565b6000815111611a8b5760405162461bcd60e51b81526004016106dd90613393565b600e8054906000611a9b836131ff565b90915550506040805161010081018252600e54815260208082018581523383850190815260608401868152426080860152600060a0860181905260c08601819052600160e08701819052898252600c865296812080548089018255908252949020855160089095020193845591519483019490945592516002820180546001600160a01b0319166001600160a01b039092169190911790559151909182916003820190611b4890826132a9565b506080820151600482015560a0820151600582015560c0820151600682015560e0909101516007909101805460ff1916911515919091179055604051339084907fceaa40d9d02173d6fae1f576cc1baff7cec35a842086153314079c405401a98890611bb790869042906133ca565b60405180910390a3505050565b611bcc612b23565b6000815111611bed5760405162461bcd60e51b81526004016106dd90613393565b60028054906000611bfd836131ff565b90915550506040805160c08101825260028054808352336020808501918252848601878152426060870152600060808701819052600160a08801819052948152600390925295902084518155905191810180546001600160a01b0319166001600160a01b0390931692909217909155925191929190820190611c7f90826132a9565b5060608201516003820155608082015160048083019190915560a0909201516005918201805460ff1916911515919091179055600254600b8054600181019091557f0175b7a638427703f0dbe7bb9bbf987a2551717b34e79f33b5b1008d1fa01db901553360009081526020929092526040909120015460ff16611d1b57336000908152600460205260409020600501805460ff191660011790555b336000908152600460205260408120600201805491611d39836131ff565b9190505550336001600160a01b03166002547f285db98a4632176385795ddf0d2b67cef1a21f47eb2f5d06f786ab6b5147e2008342604051611d7c9291906133ca565b60405180910390a3611d8d60018055565b50565b60008381526003602052604090206005015460ff16611dc15760405162461bcd60e51b81526004016106dd9061316c565b6000815111611de25760405162461bcd60e51b81526004016106dd90613393565b600e8054906000611df2836131ff565b90915550506040805161010081018252600e54815260208082018681523383850190815260608401868152426080860152600060a0860181905260c08601899052600160e087018190528a8252600c865296812080548089018255908252949020855160089095020193845591519483019490945592516002820180546001600160a01b0319166001600160a01b039092169190911790559151909182916003820190611e9f90826132a9565b506080820151600482015560a0820151600582015560c0820151600682015560e0909101516007909101805460ff1916911515919091179055604051339085907fceaa40d9d02173d6fae1f576cc1baff7cec35a842086153314079c405401a98890611f0e90869042906133ca565b60405180910390a350505050565b6000825111611f6d5760405162461bcd60e51b815260206004820152601860248201527f557365726e616d652063616e6e6f7420626520656d707479000000000000000060448201526064016106dd565b601e82511115611fb35760405162461bcd60e51b8152602060048201526011602482015270557365726e616d6520746f6f206c6f6e6760781b60448201526064016106dd565b6000611fbe83612943565b3360009081526004602052604090206005015490915060ff16156120f657336000908152600460205260408120805461207e9190611ffb90613199565b80601f016020809104026020016040519081016040528092919081815260200182805461202790613199565b80156120745780601f1061204957610100808354040283529160200191612074565b820191906000526020600020905b81548152906001019060200180831161205757829003601f168201915b5050505050612943565b905081805190602001208180519060200120146120f4576000600a826040516120a7919061323e565b908152604051908190036020018120805492151560ff19909316929092179091556009906120d690839061323e565b90815260405190819003602001902080546001600160a01b03191690555b505b600a81604051612106919061323e565b9081526040519081900360200190205460ff1615806121555750336001600160a01b031660098260405161213a919061323e565b908152604051908190036020019020546001600160a01b0316145b61219a5760405162461bcd60e51b81526020600482015260166024820152752ab9b2b93730b6b29030b63932b0b23c903a30b5b2b760511b60448201526064016106dd565b6001600a826040516121ac919061323e565b908152604051908190036020018120805492151560ff199093169290921790915533906009906121dd90849061323e565b908152604080516020928190038301902080546001600160a01b0319166001600160a01b0394909416939093179092553360009081526004909152206005015460ff1661224257336000908152600460205260409020600501805460ff191660011790555b33600090815260046020526040902061225b84826132a9565b5033600090815260046020526040902060010161227883826132a9565b50336001600160a01b03167f6eb3a1c6a4675ba92d44e090515b1ceea358f26565d2854df0c99c3f5eaf985084846040516122b49291906133ec565b60405180910390a2505050565b6000818152600d6020908152604080832033845290915290205460ff1661231a5760405162461bcd60e51b815260206004820152600d60248201526c139bdd081b1a5ad959081e595d609a1b60448201526064016106dd565b6000818152600d60209081526040808320338085529252808320805460ff1916905551909183917fca9a5541c0b22886f920ba8e818181b95e96be9b85a0d8d6ee60170ac253b3fa9190a350565b6060600c6000838152602001908152602001600020805480602002602001604051908101604052809291908181526020016000905b828210156124c05760008481526020908190206040805161010081018252600886029092018054835260018101549383019390935260028301546001600160a01b0316908201526003820180549192916060840191906123fc90613199565b80601f016020809104026020016040519081016040528092919081815260200182805461242890613199565b80156124755780601f1061244a57610100808354040283529160200191612475565b820191906000526020600020905b81548152906001019060200180831161245857829003601f168201915b50505091835250506004820154602080830191909152600583015460408301526006830154606083015260079092015460ff161515608090910152908252600192909201910161239d565b505050509050919050565b3360009081526008602090815260408083206001600160a01b038516845290915290205460ff1661252e5760405162461bcd60e51b815260206004820152600d60248201526c4e6f7420666f6c6c6f77696e6760981b60448201526064016106dd565b3360008181526008602090815260408083206001600160a01b03861684528252808320805460ff191690559282526004908190529181209091018054916125748361337c565b90915550506001600160a01b03811660009081526004602052604081206003018054916125a08361337c565b90915550506040516001600160a01b0382169033907fe7339343c6edff57f2d15278c419523844cea30ae5ee2146aa22cb9e3107dab790600090a350565b6125e6612aa6565b6001600160a01b03811661261057604051631e4fbdf760e01b8152600060048201526024016106dd565b611d8d81612ad3565b60008061262583612943565b9050600a81604051612637919061323e565b9081526040519081900360200190205460ff16159392505050565b60008181526003602052604090206005015460ff166126835760405162461bcd60e51b81526004016106dd9061316c565b600081815260066020908152604080832033845290915290205460ff166126dc5760405162461bcd60e51b815260206004820152600d60248201526c139bdd081b1a5ad959081e595d609a1b60448201526064016106dd565b60008181526006602090815260408083203384528252808320805460ff19169055838352600390915281206004018054916127168361337c565b9091555050600081815260036020908152604091829020600401549151918252339183917ff82778657f73816e36e0eec83627a423a37071dfb38bb1dab6a21eb62cc2ff6591016112f3565b60008151116127835760405162461bcd60e51b81526004016106dd90613393565b6000838152600c60205260408120905b8154811015610a9557838282815481106127af576127af6131d3565b9060005260206000209060080201600001540361293157336001600160a01b03168282815481106127e2576127e26131d3565b60009182526020909120600260089092020101546001600160a01b03161461284c5760405162461bcd60e51b815260206004820152601760248201527f4f6e6c7920636f6d6d656e7465722063616e206564697400000000000000000060448201526064016106dd565b81818154811061285e5761285e6131d3565b600091825260209091206007600890920201015460ff166128b65760405162461bcd60e51b815260206004820152601260248201527110dbdb5b595b9d081a5cc819195b195d195960721b60448201526064016106dd565b828282815481106128c9576128c96131d3565b906000526020600020906008020160030190816128e691906132a9565b50336001600160a01b031684867f87091923e4fcadbd5c83a570516b1ae885c66ca3e926685ef6287888ab95a61c866040516129229190613369565b60405180910390a45050505050565b8061293b816131ff565b915050612793565b606060008290506000815167ffffffffffffffff81111561296657612966612ebc565b6040519080825280601f01601f191660200182016040528015612990576020820181803683370190505b50905060005b8251811015612a9e5760418382815181106129b3576129b36131d3565b016020015160f81c108015906129e35750605a8382815181106129d8576129d86131d3565b016020015160f81c11155b15612a45578281815181106129fa576129fa6131d3565b602001015160f81c60f81b60f81c6020612a14919061341a565b60f81b828281518110612a2957612a296131d3565b60200101906001600160f81b031916908160001a905350612a8c565b828181518110612a5757612a576131d3565b602001015160f81c60f81b828281518110612a7457612a746131d3565b60200101906001600160f81b031916908160001a9053505b80612a96816131ff565b915050612996565b509392505050565b6000546001600160a01b031633146111e15760405163118cdaa760e01b81523360048201526024016106dd565b600080546001600160a01b038381166001600160a01b0319831681178455604051919092169283917f8be0079c531659141344cd1fd0a4f28419497f9722a3daafe3b4186f6b6457e09190a35050565b600260015403612b4657604051633ee5aeb560e01b815260040160405180910390fd5b6002600155565b6040518060c001604052806000815260200160006001600160a01b031681526020016060815260200160008152602001600081526020016000151581525090565b600060208284031215612ba057600080fd5b5035919050565b60005b83811015612bc2578181015183820152602001612baa565b50506000910152565b60008151808452612be3816020860160208601612ba7565b601f01601f19169290920160200192915050565b8681526001600160a01b038616602082015260c060408201819052600090612c2190830187612bcb565b6060830195909552506080810192909252151560a0909101529392505050565b80356001600160a01b0381168114612c5857600080fd5b919050565b60008060408385031215612c7057600080fd5b82359150612c8060208401612c41565b90509250929050565b60008060408385031215612c9c57600080fd5b50508035926020909101359150565b600060208284031215612cbd57600080fd5b612cc682612c41565b9392505050565b60c081526000612ce060c0830189612bcb565b8281036020840152612cf28189612bcb565b91505085604083015284606083015283608083015282151560a0830152979650505050505050565b60008060408385031215612d2d57600080fd5b612d3683612c41565b9150612c8060208401612c41565b60006020808301818452808551808352604092508286019150828160051b87010184880160005b83811015612de257888303603f19018552815180518452878101516001600160a01b0316888501528681015160c088860181905290612dac82870182612bcb565b606084810151908801526080808501519088015260a0938401511515939096019290925250509386019390860190600101612d6b565b509098975050505050505050565b888152602081018890526001600160a01b038716604082015261010060608201819052600090612e2283820189612bcb565b9150508560808301528460a08301528360c083015282151560e08301529998505050505050505050565b602081526000825160c06020840152612e6860e0840182612bcb565b90506020840151601f19848303016040850152612e858282612bcb565b9150506040840151606084015260608401516080840152608084015160a084015260a0840151151560c08401528091505092915050565b634e487b7160e01b600052604160045260246000fd5b600082601f830112612ee357600080fd5b813567ffffffffffffffff80821115612efe57612efe612ebc565b604051601f8301601f19908116603f01168101908282118183101715612f2657612f26612ebc565b81604052838152866020858801011115612f3f57600080fd5b836020870160208301376000602085830101528094505050505092915050565b600060208284031215612f7157600080fd5b813567ffffffffffffffff811115612f8857600080fd5b612f9484828501612ed2565b949350505050565b60008060408385031215612faf57600080fd5b82359150602083013567ffffffffffffffff811115612fcd57600080fd5b612fd985828601612ed2565b9150509250929050565b600080600060608486031215612ff857600080fd5b8335925060208401359150604084013567ffffffffffffffff81111561301d57600080fd5b61302986828701612ed2565b9150509250925092565b6000806040838503121561304657600080fd5b823567ffffffffffffffff8082111561305e57600080fd5b61306a86838701612ed2565b9350602085013591508082111561308057600080fd5b50612fd985828601612ed2565b60006020808301818452808551808352604092508286019150828160051b87010184880160005b83811015612de257888303603f190185528151805184528781015188850152868101516001600160a01b031687850152606080820151610100828701819052919061310183880182612bcb565b6080858101519089015260a0808601519089015260c0808601519089015260e0948501511515949097019390935250505093860193908601906001016130b4565b6000806040838503121561315557600080fd5b61315e83612c41565b946020939093013593505050565b602080825260139082015272141bdcdd08191bd95cc81b9bdd08195e1a5cdd606a1b604082015260600190565b600181811c908216806131ad57607f821691505b6020821081036131cd57634e487b7160e01b600052602260045260246000fd5b50919050565b634e487b7160e01b600052603260045260246000fd5b634e487b7160e01b600052601160045260246000fd5b600060018201613211576132116131e9565b5060010190565b80820180821115610c4457610c446131e9565b81810381811115610c4457610c446131e9565b60008251613250818460208701612ba7565b9190910192915050565b601f8211156132a457600081815260208120601f850160051c810160208610156132815750805b601f850160051c820191505b818110156132a05782815560010161328d565b5050505b505050565b815167ffffffffffffffff8111156132c3576132c3612ebc565b6132d7816132d18454613199565b8461325a565b602080601f83116001811461330c57600084156132f45750858301515b600019600386901b1c1916600185901b1785556132a0565b600085815260208120601f198616915b8281101561333b5788860151825594840194600190910190840161331c565b50858210156133595787850151600019600388901b60f8161c191681555b5050505050600190811b01905550565b602081526000612cc66020830184612bcb565b60008161338b5761338b6131e9565b506000190190565b60208082526019908201527f4950465320686173682063616e6e6f7420626520656d70747900000000000000604082015260600190565b6040815260006133dd6040830185612bcb565b90508260208301529392505050565b6040815260006133ff6040830185612bcb565b82810360208401526134118185612bcb565b95945050505050565b60ff8181168382160190811115610c4457610c446131e956fea2646970667358221220bece4f62477f3e2b48fedd3c115096d79bd84e05ea4ec2d80e69b93498d6d47a64736f6c63430008140033",
  "linkReferences": {},
  "deployedLinkReferences": {}
}